{
  "address": "0xD0932793bf9dd95f1303A738442d30feE7BE1a18",
  "abi": [
    {
      "inputs": [
        {
          "internalType": "uint256",
          "name": "_shop_Fee",
          "type": "uint256"
        },
        {
          "internalType": "uint256",
          "name": "_percentage_Claim",
          "type": "uint256"
        },
        {
          "internalType": "address",
          "name": "_book_Contract",
          "type": "address"
        },
        {
          "internalType": "address",
          "name": "_usd_Token_Contract",
          "type": "address"
        }
      ],
      "stateMutability": "nonpayable",
      "type": "constructor"
    },
    {
      "inputs": [
        {
          "internalType": "uint256",
          "name": "currentValue",
          "type": "uint256"
        },
        {
          "internalType": "uint256",
          "name": "expectedValue",
          "type": "uint256"
        },
        {
          "internalType": "bytes",
          "name": "reason",
          "type": "bytes"
        }
      ],
      "name": "FeeNotProcessed",
      "type": "error"
    },
    {
      "inputs": [
        {
          "internalType": "uint256",
          "name": "currentValue",
          "type": "uint256"
        },
        {
          "internalType": "bytes",
          "name": "expected",
          "type": "bytes"
        }
      ],
      "name": "InvalidOperation",
      "type": "error"
    },
    {
      "inputs": [],
      "name": "NotEnoughBalance",
      "type": "error"
    },
    {
      "anonymous": false,
      "inputs": [
        {
          "indexed": false,
          "internalType": "uint256",
          "name": "tokenId",
          "type": "uint256"
        },
        {
          "indexed": false,
          "internalType": "address",
          "name": "burner",
          "type": "address"
        },
        {
          "indexed": false,
          "internalType": "uint256",
          "name": "amount",
          "type": "uint256"
        }
      ],
      "name": "BurntBook",
      "type": "event"
    },
    {
      "anonymous": false,
      "inputs": [
        {
          "indexed": false,
          "internalType": "uint256",
          "name": "oldFee",
          "type": "uint256"
        },
        {
          "indexed": false,
          "internalType": "uint256",
          "name": "newFee",
          "type": "uint256"
        }
      ],
      "name": "ChangedShopFee",
      "type": "event"
    },
    {
      "anonymous": false,
      "inputs": [
        {
          "indexed": true,
          "internalType": "address",
          "name": "previousOwner",
          "type": "address"
        },
        {
          "indexed": true,
          "internalType": "address",
          "name": "newOwner",
          "type": "address"
        }
      ],
      "name": "OwnershipTransferred",
      "type": "event"
    },
    {
      "anonymous": false,
      "inputs": [
        {
          "indexed": false,
          "internalType": "uint256",
          "name": "tokenId",
          "type": "uint256"
        },
        {
          "indexed": false,
          "internalType": "address",
          "name": "publisher",
          "type": "address"
        },
        {
          "indexed": false,
          "internalType": "uint256",
          "name": "price",
          "type": "uint256"
        }
      ],
      "name": "PublishedBook",
      "type": "event"
    },
    {
      "anonymous": false,
      "inputs": [
        {
          "indexed": false,
          "internalType": "uint256",
          "name": "tokenId",
          "type": "uint256"
        },
        {
          "indexed": false,
          "internalType": "address",
          "name": "buyer",
          "type": "address"
        },
        {
          "indexed": false,
          "internalType": "uint256",
          "name": "price",
          "type": "uint256"
        }
      ],
      "name": "PurchasedBook",
      "type": "event"
    },
    {
      "inputs": [
        {
          "internalType": "uint256",
          "name": "tokenId",
          "type": "uint256"
        },
        {
          "internalType": "string",
          "name": "_uri",
          "type": "string"
        }
      ],
      "name": "_setTokenUri",
      "outputs": [],
      "stateMutability": "nonpayable",
      "type": "function"
    },
    {
      "inputs": [],
      "name": "bookContract",
      "outputs": [
        {
          "internalType": "contract IERC1155MintableBurnable",
          "name": "",
          "type": "address"
        }
      ],
      "stateMutability": "view",
      "type": "function"
    },
    {
      "inputs": [
        {
          "internalType": "uint256",
          "name": "_tokenId",
          "type": "uint256"
        },
        {
          "internalType": "uint256",
          "name": "_amount",
          "type": "uint256"
        }
      ],
      "name": "burn",
      "outputs": [],
      "stateMutability": "nonpayable",
      "type": "function"
    },
    {
      "inputs": [],
      "name": "claimTokens",
      "outputs": [],
      "stateMutability": "nonpayable",
      "type": "function"
    },
    {
      "inputs": [
        {
          "internalType": "address",
          "name": "",
          "type": "address"
        },
        {
          "internalType": "address",
          "name": "",
          "type": "address"
        },
        {
          "internalType": "uint256[]",
          "name": "",
          "type": "uint256[]"
        },
        {
          "internalType": "uint256[]",
          "name": "",
          "type": "uint256[]"
        },
        {
          "internalType": "bytes",
          "name": "",
          "type": "bytes"
        }
      ],
      "name": "onERC1155BatchReceived",
      "outputs": [
        {
          "internalType": "bytes4",
          "name": "",
          "type": "bytes4"
        }
      ],
      "stateMutability": "nonpayable",
      "type": "function"
    },
    {
      "inputs": [
        {
          "internalType": "address",
          "name": "",
          "type": "address"
        },
        {
          "internalType": "address",
          "name": "",
          "type": "address"
        },
        {
          "internalType": "uint256",
          "name": "",
          "type": "uint256"
        },
        {
          "internalType": "uint256",
          "name": "",
          "type": "uint256"
        },
        {
          "internalType": "bytes",
          "name": "",
          "type": "bytes"
        }
      ],
      "name": "onERC1155Received",
      "outputs": [
        {
          "internalType": "bytes4",
          "name": "",
          "type": "bytes4"
        }
      ],
      "stateMutability": "nonpayable",
      "type": "function"
    },
    {
      "inputs": [],
      "name": "owner",
      "outputs": [
        {
          "internalType": "address",
          "name": "",
          "type": "address"
        }
      ],
      "stateMutability": "view",
      "type": "function"
    },
    {
      "inputs": [],
      "name": "percentageClaim",
      "outputs": [
        {
          "internalType": "uint256",
          "name": "",
          "type": "uint256"
        }
      ],
      "stateMutability": "view",
      "type": "function"
    },
    {
      "inputs": [
        {
          "internalType": "uint256",
          "name": "_amount",
          "type": "uint256"
        },
        {
          "internalType": "uint256",
          "name": "_price",
          "type": "uint256"
        },
        {
          "internalType": "string",
          "name": "_uri",
          "type": "string"
        }
      ],
      "name": "publish",
      "outputs": [],
      "stateMutability": "payable",
      "type": "function"
    },
    {
      "inputs": [
        {
          "internalType": "uint256",
          "name": "_tokenId",
          "type": "uint256"
        }
      ],
      "name": "purchase",
      "outputs": [],
      "stateMutability": "payable",
      "type": "function"
    },
    {
      "inputs": [],
      "name": "renounceOwnership",
      "outputs": [],
      "stateMutability": "nonpayable",
      "type": "function"
    },
    {
      "inputs": [
        {
          "internalType": "uint256",
          "name": "",
          "type": "uint256"
        }
      ],
      "name": "s_price",
      "outputs": [
        {
          "internalType": "uint256",
          "name": "",
          "type": "uint256"
        }
      ],
      "stateMutability": "view",
      "type": "function"
    },
    {
      "inputs": [],
      "name": "shopFee",
      "outputs": [
        {
          "internalType": "uint256",
          "name": "",
          "type": "uint256"
        }
      ],
      "stateMutability": "view",
      "type": "function"
    },
    {
      "inputs": [
        {
          "internalType": "bytes4",
          "name": "interfaceId",
          "type": "bytes4"
        }
      ],
      "name": "supportsInterface",
      "outputs": [
        {
          "internalType": "bool",
          "name": "",
          "type": "bool"
        }
      ],
      "stateMutability": "view",
      "type": "function"
    },
    {
      "inputs": [
        {
          "internalType": "address",
          "name": "newOwner",
          "type": "address"
        }
      ],
      "name": "transferOwnership",
      "outputs": [],
      "stateMutability": "nonpayable",
      "type": "function"
    },
    {
      "inputs": [
        {
          "internalType": "uint256",
          "name": "_newShopFee",
          "type": "uint256"
        }
      ],
      "name": "updateShopFee",
      "outputs": [],
      "stateMutability": "nonpayable",
      "type": "function"
    },
    {
      "inputs": [],
      "name": "usdTokenContract",
      "outputs": [
        {
          "internalType": "contract IERC20",
          "name": "",
          "type": "address"
        }
      ],
      "stateMutability": "view",
      "type": "function"
    },
    {
      "inputs": [
        {
          "internalType": "uint256",
          "name": "_amount",
          "type": "uint256"
        }
      ],
      "name": "withdraw",
      "outputs": [],
      "stateMutability": "nonpayable",
      "type": "function"
    }
  ],
  "transactionHash": "0xbfdf49b4157f605b94d2c656433155a36e6311130d2f25a3983d6ed8f2b6d147",
  "args": [
    "10000000000000000",
    2,
    "0x51866aA62DDD1b1Df188A2E3202846AC980895C1",
    "0x07865c6e87b9f70255377e024ace6630c1eaa37f"
  ],
  "numDeployments": 2,
  "solcInputHash": "1aa36c22ec64daa762e5a9bb19637d83",
  "bytecode": "0x60c06040523480156200001157600080fd5b506040516200279538038062002795833981810160405281019062000037919062000248565b620000576200004b620000d760201b60201c565b620000df60201b60201c565b83600281905550826003819055508173ffffffffffffffffffffffffffffffffffffffff1660808173ffffffffffffffffffffffffffffffffffffffff16815250508073ffffffffffffffffffffffffffffffffffffffff1660a08173ffffffffffffffffffffffffffffffffffffffff168152505050505050620002ba565b600033905090565b60008060009054906101000a900473ffffffffffffffffffffffffffffffffffffffff169050816000806101000a81548173ffffffffffffffffffffffffffffffffffffffff021916908373ffffffffffffffffffffffffffffffffffffffff1602179055508173ffffffffffffffffffffffffffffffffffffffff168173ffffffffffffffffffffffffffffffffffffffff167f8be0079c531659141344cd1fd0a4f28419497f9722a3daafe3b4186f6b6457e060405160405180910390a35050565b600080fd5b6000819050919050565b620001bd81620001a8565b8114620001c957600080fd5b50565b600081519050620001dd81620001b2565b92915050565b600073ffffffffffffffffffffffffffffffffffffffff82169050919050565b60006200021082620001e3565b9050919050565b620002228162000203565b81146200022e57600080fd5b50565b600081519050620002428162000217565b92915050565b60008060008060808587031215620002655762000264620001a3565b5b60006200027587828801620001cc565b94505060206200028887828801620001cc565b93505060406200029b8782880162000231565b9250506060620002ae8782880162000231565b91505092959194509250565b60805160a0516124686200032d60003960008181610488015281816105c0015281816107c701528181610db70152610f300152600081816106650152818161089501528181610a1001528181610a9f01528181610b8801528181610c5b01528181610e5a015261108701526124686000f3fe6080604052600436106101095760003560e01c80638da5cb5b11610095578063c2b84d8011610064578063c2b84d8014610324578063e870138f1461034d578063efef39a11461038a578063f23a6e61146103a6578063f2fde38b146103e357610109565b80638da5cb5b146102775780639e12019a146102a2578063b390c0ab146102be578063bc197c81146102e757610109565b806348c54b9d116100dc57806348c54b9d146101c85780635b7cf14a146101df5780636fabc5011461020a578063715018a614610235578063731510371461024c57610109565b806301ffc9a71461010e5780632589a9d01461014b5780632e1a7d4d146101765780633086719a1461019f575b600080fd5b34801561011a57600080fd5b5061013560048036038101906101309190611447565b61040c565b604051610142919061148f565b60405180910390f35b34801561015757600080fd5b50610160610486565b60405161016d9190611529565b60405180910390f35b34801561018257600080fd5b5061019d6004803603810190610198919061157a565b6104aa565b005b3480156101ab57600080fd5b506101c660048036038101906101c191906116ed565b610663565b005b3480156101d457600080fd5b506101dd6106f4565b005b3480156101eb57600080fd5b506101f4610873565b6040516102019190611758565b60405180910390f35b34801561021657600080fd5b5061021f610879565b60405161022c9190611758565b60405180910390f35b34801561024157600080fd5b5061024a61087f565b005b34801561025857600080fd5b50610261610893565b60405161026e9190611794565b60405180910390f35b34801561028357600080fd5b5061028c6108b7565b60405161029991906117d0565b60405180910390f35b6102bc60048036038101906102b791906117eb565b6108e0565b005b3480156102ca57600080fd5b506102e560048036038101906102e0919061185a565b610b85565b005b3480156102f357600080fd5b5061030e60048036038101906103099190611a2f565b610d27565b60405161031b9190611b0d565b60405180910390f35b34801561033057600080fd5b5061034b6004803603810190610346919061157a565b610d3c565b005b34801561035957600080fd5b50610374600480360381019061036f919061157a565b610d89565b6040516103819190611758565b60405180910390f35b6103a4600480360381019061039f919061157a565b610da1565b005b3480156103b257600080fd5b506103cd60048036038101906103c89190611b28565b61116a565b6040516103da9190611b0d565b60405180910390f35b3480156103ef57600080fd5b5061040a60048036038101906104059190611bbf565b61117f565b005b60007f4e2312e0000000000000000000000000000000000000000000000000000000007bffffffffffffffffffffffffffffffffffffffffffffffffffffffff1916827bffffffffffffffffffffffffffffffffffffffffffffffffffffffff1916148061047f575061047e82611203565b5b9050919050565b7f000000000000000000000000000000000000000000000000000000000000000081565b6104b261126d565b6004548111156104f957806040517fde4090830000000000000000000000000000000000000000000000000000000081526004016104f09190611c6f565b60405180910390fd5b806004600082825461050b9190611ccc565b9250508190555060003373ffffffffffffffffffffffffffffffffffffffff168260405161053890611d31565b60006040518083038185875af1925050503d8060008114610575576040519150601f19603f3d011682016040523d82523d6000602084013e61057a565b606091505b50509050806105be576040517f08c379a00000000000000000000000000000000000000000000000000000000081526004016105b590611da3565b60405180910390fd5b7f000000000000000000000000000000000000000000000000000000000000000073ffffffffffffffffffffffffffffffffffffffff1663a9059cbb336005546040518363ffffffff1660e01b815260040161061b929190611dc3565b6020604051808303816000875af115801561063a573d6000803e3d6000fd5b505050506040513d601f19601f8201168201806040525081019061065e9190611e18565b505050565b7f000000000000000000000000000000000000000000000000000000000000000073ffffffffffffffffffffffffffffffffffffffff166357f7789e83836040518363ffffffff1660e01b81526004016106be929190611ebc565b600060405180830381600087803b1580156106d857600080fd5b505af11580156106ec573d6000803e3d6000fd5b505050505050565b6000600860003373ffffffffffffffffffffffffffffffffffffffff1673ffffffffffffffffffffffffffffffffffffffff16815260200190815260200160002054905080600860003373ffffffffffffffffffffffffffffffffffffffff1673ffffffffffffffffffffffffffffffffffffffff16815260200190815260200160002060008282546107879190611ccc565b9250508190555060006003546064836107a09190611f1b565b6107aa9190611f4c565b905080600560008282546107be9190611fa6565b925050819055507f000000000000000000000000000000000000000000000000000000000000000073ffffffffffffffffffffffffffffffffffffffff1663a9059cbb33838561080e9190611ccc565b6040518363ffffffff1660e01b815260040161082b929190611dc3565b6020604051808303816000875af115801561084a573d6000803e3d6000fd5b505050506040513d601f19601f8201168201806040525081019061086e9190611e18565b505050565b60025481565b60035481565b61088761126d565b61089160006112eb565b565b7f000000000000000000000000000000000000000000000000000000000000000081565b60008060009054906101000a900473ffffffffffffffffffffffffffffffffffffffff16905090565b60025434101561092b57346002546040517f5c237d3f00000000000000000000000000000000000000000000000000000000815260040161092292919061206e565b60405180910390fd5b600283101561097157826040517fde40908300000000000000000000000000000000000000000000000000000000815260040161096891906120f6565b60405180910390fd5b600061097d60016113af565b9050826007600083815260200190815260200160002081905550336006600083815260200190815260200160002060006101000a81548173ffffffffffffffffffffffffffffffffffffffff021916908373ffffffffffffffffffffffffffffffffffffffff1602179055506109f360016113bd565b60025460046000828254610a079190611fa6565b925050819055507f000000000000000000000000000000000000000000000000000000000000000073ffffffffffffffffffffffffffffffffffffffff1663731133e93083876040518463ffffffff1660e01b8152600401610a6b93929190612147565b600060405180830381600087803b158015610a8557600080fd5b505af1158015610a99573d6000803e3d6000fd5b505050507f000000000000000000000000000000000000000000000000000000000000000073ffffffffffffffffffffffffffffffffffffffff1663f242432a30338460016040518563ffffffff1660e01b8152600401610afd94939291906121cc565b600060405180830381600087803b158015610b1757600080fd5b505af1158015610b2b573d6000803e3d6000fd5b505050507f0e93c1eb4faa896a4795064479b0d97a92beef1d626046cf64126fb13a405229813385604051610b6293929190612224565b60405180910390a1600082511115610b7f57610b7e8183610663565b5b50505050565b807f000000000000000000000000000000000000000000000000000000000000000073ffffffffffffffffffffffffffffffffffffffff1662fdd58e33856040518363ffffffff1660e01b8152600401610be0929190611dc3565b602060405180830381865afa158015610bfd573d6000803e3d6000fd5b505050506040513d601f19601f82011682018060405250810190610c219190612270565b1015610c59576040517fad3a8b9e00000000000000000000000000000000000000000000000000000000815260040160405180910390fd5b7f000000000000000000000000000000000000000000000000000000000000000073ffffffffffffffffffffffffffffffffffffffff1663f5298aca3384846040518463ffffffff1660e01b8152600401610cb69392919061229d565b600060405180830381600087803b158015610cd057600080fd5b505af1158015610ce4573d6000803e3d6000fd5b505050507f0e7c315b5550f34978d3c22fcd4fee0871834baf6a96d3d1950951581ae4d3a7823383604051610d1b93929190612224565b60405180910390a15050565b600063bc197c8160e01b905095945050505050565b610d4461126d565b806002819055507fc740db4457383a409d8c38dc04c3b076ed9f75d83f581fc25cbc23937b8f05d560025482604051610d7e9291906122d4565b60405180910390a150565b60076020528060005260406000206000915090505481565b60076000828152602001908152602001600020547f000000000000000000000000000000000000000000000000000000000000000073ffffffffffffffffffffffffffffffffffffffff166370a08231336040518263ffffffff1660e01b8152600401610e0e91906117d0565b602060405180830381865afa158015610e2b573d6000803e3d6000fd5b505050506040513d601f19601f82011682018060405250810190610e4f9190612270565b1080610ef5575060017f000000000000000000000000000000000000000000000000000000000000000073ffffffffffffffffffffffffffffffffffffffff1662fdd58e30846040518363ffffffff1660e01b8152600401610eb2929190611dc3565b602060405180830381865afa158015610ecf573d6000803e3d6000fd5b505050506040513d601f19601f82011682018060405250810190610ef39190612270565b105b15610f2c576040517fad3a8b9e00000000000000000000000000000000000000000000000000000000815260040160405180910390fd5b60007f000000000000000000000000000000000000000000000000000000000000000073ffffffffffffffffffffffffffffffffffffffff166323b872dd333060076000878152602001908152602001600020546040518463ffffffff1660e01b8152600401610f9e939291906122fd565b6020604051808303816000875af1158015610fbd573d6000803e3d6000fd5b505050506040513d601f19601f82011682018060405250810190610fe19190611e18565b90508015611166576007600083815260200190815260200160002054600860006006600086815260200190815260200160002060009054906101000a900473ffffffffffffffffffffffffffffffffffffffff1673ffffffffffffffffffffffffffffffffffffffff1673ffffffffffffffffffffffffffffffffffffffff168152602001908152602001600020600082825461107e9190611fa6565b925050819055507f000000000000000000000000000000000000000000000000000000000000000073ffffffffffffffffffffffffffffffffffffffff1663f242432a30338560016040518563ffffffff1660e01b81526004016110e594939291906121cc565b600060405180830381600087803b1580156110ff57600080fd5b505af1158015611113573d6000803e3d6000fd5b505050507ff3b07963547ce2f7a8ed8d7b9cd50ac7c18007fe39d7a814cd70e87655323b2e8233600760008681526020019081526020016000205460405161115d93929190612224565b60405180910390a15b5050565b600063f23a6e6160e01b905095945050505050565b61118761126d565b600073ffffffffffffffffffffffffffffffffffffffff168173ffffffffffffffffffffffffffffffffffffffff1614156111f7576040517f08c379a00000000000000000000000000000000000000000000000000000000081526004016111ee906123a6565b60405180910390fd5b611200816112eb565b50565b60007f01ffc9a7000000000000000000000000000000000000000000000000000000007bffffffffffffffffffffffffffffffffffffffffffffffffffffffff1916827bffffffffffffffffffffffffffffffffffffffffffffffffffffffff1916149050919050565b6112756113d3565b73ffffffffffffffffffffffffffffffffffffffff166112936108b7565b73ffffffffffffffffffffffffffffffffffffffff16146112e9576040517f08c379a00000000000000000000000000000000000000000000000000000000081526004016112e090612412565b60405180910390fd5b565b60008060009054906101000a900473ffffffffffffffffffffffffffffffffffffffff169050816000806101000a81548173ffffffffffffffffffffffffffffffffffffffff021916908373ffffffffffffffffffffffffffffffffffffffff1602179055508173ffffffffffffffffffffffffffffffffffffffff168173ffffffffffffffffffffffffffffffffffffffff167f8be0079c531659141344cd1fd0a4f28419497f9722a3daafe3b4186f6b6457e060405160405180910390a35050565b600081600001549050919050565b6001816000016000828254019250508190555050565b600033905090565b6000604051905090565b600080fd5b600080fd5b60007fffffffff0000000000000000000000000000000000000000000000000000000082169050919050565b611424816113ef565b811461142f57600080fd5b50565b6000813590506114418161141b565b92915050565b60006020828403121561145d5761145c6113e5565b5b600061146b84828501611432565b91505092915050565b60008115159050919050565b61148981611474565b82525050565b60006020820190506114a46000830184611480565b92915050565b600073ffffffffffffffffffffffffffffffffffffffff82169050919050565b6000819050919050565b60006114ef6114ea6114e5846114aa565b6114ca565b6114aa565b9050919050565b6000611501826114d4565b9050919050565b6000611513826114f6565b9050919050565b61152381611508565b82525050565b600060208201905061153e600083018461151a565b92915050565b6000819050919050565b61155781611544565b811461156257600080fd5b50565b6000813590506115748161154e565b92915050565b6000602082840312156115905761158f6113e5565b5b600061159e84828501611565565b91505092915050565b600080fd5b600080fd5b6000601f19601f8301169050919050565b7f4e487b7100000000000000000000000000000000000000000000000000000000600052604160045260246000fd5b6115fa826115b1565b810181811067ffffffffffffffff82111715611619576116186115c2565b5b80604052505050565b600061162c6113db565b905061163882826115f1565b919050565b600067ffffffffffffffff821115611658576116576115c2565b5b611661826115b1565b9050602081019050919050565b82818337600083830152505050565b600061169061168b8461163d565b611622565b9050828152602081018484840111156116ac576116ab6115ac565b5b6116b784828561166e565b509392505050565b600082601f8301126116d4576116d36115a7565b5b81356116e484826020860161167d565b91505092915050565b60008060408385031215611704576117036113e5565b5b600061171285828601611565565b925050602083013567ffffffffffffffff811115611733576117326113ea565b5b61173f858286016116bf565b9150509250929050565b61175281611544565b82525050565b600060208201905061176d6000830184611749565b92915050565b600061177e826114f6565b9050919050565b61178e81611773565b82525050565b60006020820190506117a96000830184611785565b92915050565b60006117ba826114aa565b9050919050565b6117ca816117af565b82525050565b60006020820190506117e560008301846117c1565b92915050565b600080600060608486031215611804576118036113e5565b5b600061181286828701611565565b935050602061182386828701611565565b925050604084013567ffffffffffffffff811115611844576118436113ea565b5b611850868287016116bf565b9150509250925092565b60008060408385031215611871576118706113e5565b5b600061187f85828601611565565b925050602061189085828601611565565b9150509250929050565b6118a3816117af565b81146118ae57600080fd5b50565b6000813590506118c08161189a565b92915050565b600067ffffffffffffffff8211156118e1576118e06115c2565b5b602082029050602081019050919050565b600080fd5b600061190a611905846118c6565b611622565b9050808382526020820190506020840283018581111561192d5761192c6118f2565b5b835b8181101561195657806119428882611565565b84526020840193505060208101905061192f565b5050509392505050565b600082601f830112611975576119746115a7565b5b81356119858482602086016118f7565b91505092915050565b600067ffffffffffffffff8211156119a9576119a86115c2565b5b6119b2826115b1565b9050602081019050919050565b60006119d26119cd8461198e565b611622565b9050828152602081018484840111156119ee576119ed6115ac565b5b6119f984828561166e565b509392505050565b600082601f830112611a1657611a156115a7565b5b8135611a268482602086016119bf565b91505092915050565b600080600080600060a08688031215611a4b57611a4a6113e5565b5b6000611a59888289016118b1565b9550506020611a6a888289016118b1565b945050604086013567ffffffffffffffff811115611a8b57611a8a6113ea565b5b611a9788828901611960565b935050606086013567ffffffffffffffff811115611ab857611ab76113ea565b5b611ac488828901611960565b925050608086013567ffffffffffffffff811115611ae557611ae46113ea565b5b611af188828901611a01565b9150509295509295909350565b611b07816113ef565b82525050565b6000602082019050611b226000830184611afe565b92915050565b600080600080600060a08688031215611b4457611b436113e5565b5b6000611b52888289016118b1565b9550506020611b63888289016118b1565b9450506040611b7488828901611565565b9350506060611b8588828901611565565b925050608086013567ffffffffffffffff811115611ba657611ba56113ea565b5b611bb288828901611a01565b9150509295509295909350565b600060208284031215611bd557611bd46113e5565b5b6000611be3848285016118b1565b91505092915050565b600082825260208201905092915050565b7f616d6f756e74206d757374206265203c3d20746f74616c20666565732070616960008201527f6420746f207468652073686f7000000000000000000000000000000000000000602082015250565b6000611c59602d83611bec565b9150611c6482611bfd565b604082019050919050565b6000604082019050611c846000830184611749565b8181036020830152611c9581611c4c565b905092915050565b7f4e487b7100000000000000000000000000000000000000000000000000000000600052601160045260246000fd5b6000611cd782611544565b9150611ce283611544565b925082821015611cf557611cf4611c9d565b5b828203905092915050565b600081905092915050565b50565b6000611d1b600083611d00565b9150611d2682611d0b565b600082019050919050565b6000611d3c82611d0e565b9150819050919050565b600082825260208201905092915050565b7f6661696c656420746f2077696474687261772066756e64730000000000000000600082015250565b6000611d8d601883611d46565b9150611d9882611d57565b602082019050919050565b60006020820190508181036000830152611dbc81611d80565b9050919050565b6000604082019050611dd860008301856117c1565b611de56020830184611749565b9392505050565b611df581611474565b8114611e0057600080fd5b50565b600081519050611e1281611dec565b92915050565b600060208284031215611e2e57611e2d6113e5565b5b6000611e3c84828501611e03565b91505092915050565b600081519050919050565b60005b83811015611e6e578082015181840152602081019050611e53565b83811115611e7d576000848401525b50505050565b6000611e8e82611e45565b611e988185611d46565b9350611ea8818560208601611e50565b611eb1816115b1565b840191505092915050565b6000604082019050611ed16000830185611749565b8181036020830152611ee38184611e83565b90509392505050565b7f4e487b7100000000000000000000000000000000000000000000000000000000600052601260045260246000fd5b6000611f2682611544565b9150611f3183611544565b925082611f4157611f40611eec565b5b828204905092915050565b6000611f5782611544565b9150611f6283611544565b9250817fffffffffffffffffffffffffffffffffffffffffffffffffffffffffffffffff0483118215151615611f9b57611f9a611c9d565b5b828202905092915050565b6000611fb182611544565b9150611fbc83611544565b9250827fffffffffffffffffffffffffffffffffffffffffffffffffffffffffffffffff03821115611ff157611ff0611c9d565b5b828201905092915050565b7f6e6f7420656e6f7567682065746820746f2070726f63657373207472616e736160008201527f6374696f6e000000000000000000000000000000000000000000000000000000602082015250565b6000612058602583611bec565b915061206382611ffc565b604082019050919050565b60006060820190506120836000830185611749565b6120906020830184611749565b81810360408301526120a18161204b565b90509392505050565b7f616d6f756e74206d7573742062652067726561746572207468616e2032000000600082015250565b60006120e0601d83611bec565b91506120eb826120aa565b602082019050919050565b600060408201905061210b6000830184611749565b818103602083015261211c816120d3565b905092915050565b6000612131600083611bec565b915061213c82611d0b565b600082019050919050565b600060808201905061215c60008301866117c1565b6121696020830185611749565b6121766040830184611749565b818103606083015261218781612124565b9050949350505050565b6000819050919050565b60006121b66121b16121ac84612191565b6114ca565b611544565b9050919050565b6121c68161219b565b82525050565b600060a0820190506121e160008301876117c1565b6121ee60208301866117c1565b6121fb6040830185611749565b61220860608301846121bd565b818103608083015261221981612124565b905095945050505050565b60006060820190506122396000830186611749565b61224660208301856117c1565b6122536040830184611749565b949350505050565b60008151905061226a8161154e565b92915050565b600060208284031215612286576122856113e5565b5b60006122948482850161225b565b91505092915050565b60006060820190506122b260008301866117c1565b6122bf6020830185611749565b6122cc6040830184611749565b949350505050565b60006040820190506122e96000830185611749565b6122f66020830184611749565b9392505050565b600060608201905061231260008301866117c1565b61231f60208301856117c1565b61232c6040830184611749565b949350505050565b7f4f776e61626c653a206e6577206f776e657220697320746865207a65726f206160008201527f6464726573730000000000000000000000000000000000000000000000000000602082015250565b6000612390602683611d46565b915061239b82612334565b604082019050919050565b600060208201905081810360008301526123bf81612383565b9050919050565b7f4f776e61626c653a2063616c6c6572206973206e6f7420746865206f776e6572600082015250565b60006123fc602083611d46565b9150612407826123c6565b602082019050919050565b6000602082019050818103600083015261242b816123ef565b905091905056fea26469706673582212207d46594910cc4aeb85b7ff0fcfa4a18f6a82dd54f9c6cea689316c185aa6d6bd64736f6c634300080a0033",
  "devdoc": {
    "kind": "dev",
    "methods": {
      "_setTokenUri(uint256,string)": {
        "params": {
          "_uri": "- token metadata uri",
          "tokenId": "- token identifier"
        }
      },
      "burn(uint256,uint256)": {
        "params": {
          "_amount": "- the amount of (token) with ID (_tokenId) to burn from (msg.sender)",
          "_tokenId": "- the token to burn"
        }
      },
      "constructor": {
        "params": {
          "_book_Contract": "- erc1155 thirdbook token contract",
          "_percentage_Claim": "- the percent reserved for shop per each Book purchase",
          "_shop_Fee": "- the fee in (wei) charged from a publisher",
          "_usd_Token_Contract": "- usdc address."
        }
      },
      "owner()": {
        "details": "Returns the address of the current owner."
      },
      "publish(uint256,uint256,string)": {
        "params": {
          "_amount": "- the amount of books to be published",
          "_price": "- the price of this book  specified in (wei)"
        }
      },
      "purchase(uint256)": {
        "params": {
          "_tokenId": "- the id of the (book) to purchase payable keyword - playing aroung with gas savings"
        }
      },
      "renounceOwnership()": {
        "details": "Leaves the contract without owner. It will not be possible to call `onlyOwner` functions anymore. Can only be called by the current owner. NOTE: Renouncing ownership will leave the contract without an owner, thereby removing any functionality that is only available to the owner."
      },
      "supportsInterface(bytes4)": {
        "details": "See {IERC165-supportsInterface}."
      },
      "transferOwnership(address)": {
        "details": "Transfers ownership of the contract to a new account (`newOwner`). Can only be called by the current owner."
      },
      "updateShopFee(uint256)": {
        "details": "updates the shop fee in wei to",
        "params": {
          "_newShopFee": "- the new fee to charge each publisher before minting"
        }
      },
      "withdraw(uint256)": {
        "params": {
          "_amount": "- amount of eth in wei to withdraw from this contract"
        }
      }
    },
    "version": 1
  },
  "userdoc": {
    "kind": "user",
    "methods": {
      "_setTokenUri(uint256,string)": {
        "notice": "sets the metadata uri for token of (tokenId)"
      },
      "burn(uint256,uint256)": {
        "notice": "burns amount of nft with tokenid."
      },
      "claimTokens()": {
        "notice": "transfer all usdc earned from the purchase of `msg.sender` books to caller"
      },
      "publish(uint256,uint256,string)": {
        "notice": "mints books of (amount) to the shop"
      },
      "purchase(uint256)": {
        "notice": "purchase an nft (book) with usdc"
      },
      "withdraw(uint256)": {
        "notice": "withraws eth and usdc from this contract to the owner"
      }
    },
    "version": 1
  },
  "storageLayout": {
    "storage": [
      {
        "astId": 400,
        "contract": "contracts/ThirdBookShop.sol:ThirdBookShop",
        "label": "_owner",
        "offset": 0,
        "slot": "0",
        "type": "t_address"
      },
      {
        "astId": 3227,
        "contract": "contracts/ThirdBookShop.sol:ThirdBookShop",
        "label": "tokenIdCounter",
        "offset": 0,
        "slot": "1",
        "type": "t_struct(Counter)2618_storage"
      },
      {
        "astId": 3235,
        "contract": "contracts/ThirdBookShop.sol:ThirdBookShop",
        "label": "shopFee",
        "offset": 0,
        "slot": "2",
        "type": "t_uint256"
      },
      {
        "astId": 3237,
        "contract": "contracts/ThirdBookShop.sol:ThirdBookShop",
        "label": "percentageClaim",
        "offset": 0,
        "slot": "3",
        "type": "t_uint256"
      },
      {
        "astId": 3239,
        "contract": "contracts/ThirdBookShop.sol:ThirdBookShop",
        "label": "totalFeesPaid",
        "offset": 0,
        "slot": "4",
        "type": "t_uint256"
      },
      {
        "astId": 3241,
        "contract": "contracts/ThirdBookShop.sol:ThirdBookShop",
        "label": "totalShopClaim",
        "offset": 0,
        "slot": "5",
        "type": "t_uint256"
      },
      {
        "astId": 3245,
        "contract": "contracts/ThirdBookShop.sol:ThirdBookShop",
        "label": "s_feeReciever",
        "offset": 0,
        "slot": "6",
        "type": "t_mapping(t_uint256,t_address)"
      },
      {
        "astId": 3249,
        "contract": "contracts/ThirdBookShop.sol:ThirdBookShop",
        "label": "s_price",
        "offset": 0,
        "slot": "7",
        "type": "t_mapping(t_uint256,t_uint256)"
      },
      {
        "astId": 3253,
        "contract": "contracts/ThirdBookShop.sol:ThirdBookShop",
        "label": "s_feeRecieverClaim",
        "offset": 0,
        "slot": "8",
        "type": "t_mapping(t_address,t_uint256)"
      }
    ],
    "types": {
      "t_address": {
        "encoding": "inplace",
        "label": "address",
        "numberOfBytes": "20"
      },
      "t_mapping(t_address,t_uint256)": {
        "encoding": "mapping",
        "key": "t_address",
        "label": "mapping(address => uint256)",
        "numberOfBytes": "32",
        "value": "t_uint256"
      },
      "t_mapping(t_uint256,t_address)": {
        "encoding": "mapping",
        "key": "t_uint256",
        "label": "mapping(uint256 => address)",
        "numberOfBytes": "32",
        "value": "t_address"
      },
      "t_mapping(t_uint256,t_uint256)": {
        "encoding": "mapping",
        "key": "t_uint256",
        "label": "mapping(uint256 => uint256)",
        "numberOfBytes": "32",
        "value": "t_uint256"
      },
      "t_struct(Counter)2618_storage": {
        "encoding": "inplace",
        "label": "struct Counters.Counter",
        "members": [
          {
            "astId": 2617,
            "contract": "contracts/ThirdBookShop.sol:ThirdBookShop",
            "label": "_value",
            "offset": 0,
            "slot": "0",
            "type": "t_uint256"
          }
        ],
        "numberOfBytes": "32"
      },
      "t_uint256": {
        "encoding": "inplace",
        "label": "uint256",
        "numberOfBytes": "32"
      }
    }
  }
}