{
  "address": "0x6a274624223daA93d660a69D3b74b85eAc9fb3A2",
  "abi": [
    {
      "inputs": [],
      "stateMutability": "nonpayable",
      "type": "constructor"
    },
    {
      "anonymous": false,
      "inputs": [
        {
          "indexed": true,
          "internalType": "address",
          "name": "account",
          "type": "address"
        },
        {
          "indexed": true,
          "internalType": "address",
          "name": "operator",
          "type": "address"
        },
        {
          "indexed": false,
          "internalType": "bool",
          "name": "approved",
          "type": "bool"
        }
      ],
      "name": "ApprovalForAll",
      "type": "event"
    },
    {
      "anonymous": false,
      "inputs": [
        {
          "indexed": true,
          "internalType": "bytes32",
          "name": "role",
          "type": "bytes32"
        },
        {
          "indexed": true,
          "internalType": "bytes32",
          "name": "previousAdminRole",
          "type": "bytes32"
        },
        {
          "indexed": true,
          "internalType": "bytes32",
          "name": "newAdminRole",
          "type": "bytes32"
        }
      ],
      "name": "RoleAdminChanged",
      "type": "event"
    },
    {
      "anonymous": false,
      "inputs": [
        {
          "indexed": true,
          "internalType": "bytes32",
          "name": "role",
          "type": "bytes32"
        },
        {
          "indexed": true,
          "internalType": "address",
          "name": "account",
          "type": "address"
        },
        {
          "indexed": true,
          "internalType": "address",
          "name": "sender",
          "type": "address"
        }
      ],
      "name": "RoleGranted",
      "type": "event"
    },
    {
      "anonymous": false,
      "inputs": [
        {
          "indexed": true,
          "internalType": "bytes32",
          "name": "role",
          "type": "bytes32"
        },
        {
          "indexed": true,
          "internalType": "address",
          "name": "account",
          "type": "address"
        },
        {
          "indexed": true,
          "internalType": "address",
          "name": "sender",
          "type": "address"
        }
      ],
      "name": "RoleRevoked",
      "type": "event"
    },
    {
      "anonymous": false,
      "inputs": [
        {
          "indexed": true,
          "internalType": "address",
          "name": "operator",
          "type": "address"
        },
        {
          "indexed": true,
          "internalType": "address",
          "name": "from",
          "type": "address"
        },
        {
          "indexed": true,
          "internalType": "address",
          "name": "to",
          "type": "address"
        },
        {
          "indexed": false,
          "internalType": "uint256[]",
          "name": "ids",
          "type": "uint256[]"
        },
        {
          "indexed": false,
          "internalType": "uint256[]",
          "name": "values",
          "type": "uint256[]"
        }
      ],
      "name": "TransferBatch",
      "type": "event"
    },
    {
      "anonymous": false,
      "inputs": [
        {
          "indexed": true,
          "internalType": "address",
          "name": "operator",
          "type": "address"
        },
        {
          "indexed": true,
          "internalType": "address",
          "name": "from",
          "type": "address"
        },
        {
          "indexed": true,
          "internalType": "address",
          "name": "to",
          "type": "address"
        },
        {
          "indexed": false,
          "internalType": "uint256",
          "name": "id",
          "type": "uint256"
        },
        {
          "indexed": false,
          "internalType": "uint256",
          "name": "value",
          "type": "uint256"
        }
      ],
      "name": "TransferSingle",
      "type": "event"
    },
    {
      "anonymous": false,
      "inputs": [
        {
          "indexed": false,
          "internalType": "string",
          "name": "value",
          "type": "string"
        },
        {
          "indexed": true,
          "internalType": "uint256",
          "name": "id",
          "type": "uint256"
        }
      ],
      "name": "URI",
      "type": "event"
    },
    {
      "inputs": [],
      "name": "DEFAULT_ADMIN_ROLE",
      "outputs": [
        {
          "internalType": "bytes32",
          "name": "",
          "type": "bytes32"
        }
      ],
      "stateMutability": "view",
      "type": "function"
    },
    {
      "inputs": [],
      "name": "MINTER_ROLE",
      "outputs": [
        {
          "internalType": "bytes32",
          "name": "",
          "type": "bytes32"
        }
      ],
      "stateMutability": "view",
      "type": "function"
    },
    {
      "inputs": [],
      "name": "URI_SETTER_ROLE",
      "outputs": [
        {
          "internalType": "bytes32",
          "name": "",
          "type": "bytes32"
        }
      ],
      "stateMutability": "view",
      "type": "function"
    },
    {
      "inputs": [
        {
          "internalType": "address",
          "name": "account",
          "type": "address"
        },
        {
          "internalType": "uint256",
          "name": "id",
          "type": "uint256"
        }
      ],
      "name": "balanceOf",
      "outputs": [
        {
          "internalType": "uint256",
          "name": "",
          "type": "uint256"
        }
      ],
      "stateMutability": "view",
      "type": "function"
    },
    {
      "inputs": [
        {
          "internalType": "address[]",
          "name": "accounts",
          "type": "address[]"
        },
        {
          "internalType": "uint256[]",
          "name": "ids",
          "type": "uint256[]"
        }
      ],
      "name": "balanceOfBatch",
      "outputs": [
        {
          "internalType": "uint256[]",
          "name": "",
          "type": "uint256[]"
        }
      ],
      "stateMutability": "view",
      "type": "function"
    },
    {
      "inputs": [
        {
          "internalType": "address",
          "name": "account",
          "type": "address"
        },
        {
          "internalType": "uint256",
          "name": "id",
          "type": "uint256"
        },
        {
          "internalType": "uint256",
          "name": "value",
          "type": "uint256"
        }
      ],
      "name": "burn",
      "outputs": [],
      "stateMutability": "nonpayable",
      "type": "function"
    },
    {
      "inputs": [
        {
          "internalType": "address",
          "name": "account",
          "type": "address"
        },
        {
          "internalType": "uint256[]",
          "name": "ids",
          "type": "uint256[]"
        },
        {
          "internalType": "uint256[]",
          "name": "values",
          "type": "uint256[]"
        }
      ],
      "name": "burnBatch",
      "outputs": [],
      "stateMutability": "nonpayable",
      "type": "function"
    },
    {
      "inputs": [
        {
          "internalType": "uint256",
          "name": "id",
          "type": "uint256"
        }
      ],
      "name": "exists",
      "outputs": [
        {
          "internalType": "bool",
          "name": "",
          "type": "bool"
        }
      ],
      "stateMutability": "view",
      "type": "function"
    },
    {
      "inputs": [
        {
          "internalType": "bytes32",
          "name": "role",
          "type": "bytes32"
        }
      ],
      "name": "getRoleAdmin",
      "outputs": [
        {
          "internalType": "bytes32",
          "name": "",
          "type": "bytes32"
        }
      ],
      "stateMutability": "view",
      "type": "function"
    },
    {
      "inputs": [
        {
          "internalType": "bytes32",
          "name": "role",
          "type": "bytes32"
        },
        {
          "internalType": "address",
          "name": "account",
          "type": "address"
        }
      ],
      "name": "grantRole",
      "outputs": [],
      "stateMutability": "nonpayable",
      "type": "function"
    },
    {
      "inputs": [
        {
          "internalType": "bytes32",
          "name": "role",
          "type": "bytes32"
        },
        {
          "internalType": "address",
          "name": "account",
          "type": "address"
        }
      ],
      "name": "hasRole",
      "outputs": [
        {
          "internalType": "bool",
          "name": "",
          "type": "bool"
        }
      ],
      "stateMutability": "view",
      "type": "function"
    },
    {
      "inputs": [
        {
          "internalType": "address",
          "name": "account",
          "type": "address"
        },
        {
          "internalType": "address",
          "name": "operator",
          "type": "address"
        }
      ],
      "name": "isApprovedForAll",
      "outputs": [
        {
          "internalType": "bool",
          "name": "",
          "type": "bool"
        }
      ],
      "stateMutability": "view",
      "type": "function"
    },
    {
      "inputs": [
        {
          "internalType": "address",
          "name": "account",
          "type": "address"
        },
        {
          "internalType": "uint256",
          "name": "id",
          "type": "uint256"
        },
        {
          "internalType": "uint256",
          "name": "amount",
          "type": "uint256"
        },
        {
          "internalType": "bytes",
          "name": "data",
          "type": "bytes"
        }
      ],
      "name": "mint",
      "outputs": [],
      "stateMutability": "nonpayable",
      "type": "function"
    },
    {
      "inputs": [
        {
          "internalType": "address",
          "name": "to",
          "type": "address"
        },
        {
          "internalType": "uint256[]",
          "name": "ids",
          "type": "uint256[]"
        },
        {
          "internalType": "uint256[]",
          "name": "amounts",
          "type": "uint256[]"
        },
        {
          "internalType": "bytes",
          "name": "data",
          "type": "bytes"
        }
      ],
      "name": "mintBatch",
      "outputs": [],
      "stateMutability": "nonpayable",
      "type": "function"
    },
    {
      "inputs": [
        {
          "internalType": "bytes32",
          "name": "role",
          "type": "bytes32"
        },
        {
          "internalType": "address",
          "name": "account",
          "type": "address"
        }
      ],
      "name": "renounceRole",
      "outputs": [],
      "stateMutability": "nonpayable",
      "type": "function"
    },
    {
      "inputs": [
        {
          "internalType": "bytes32",
          "name": "role",
          "type": "bytes32"
        },
        {
          "internalType": "address",
          "name": "account",
          "type": "address"
        }
      ],
      "name": "revokeRole",
      "outputs": [],
      "stateMutability": "nonpayable",
      "type": "function"
    },
    {
      "inputs": [
        {
          "internalType": "address",
          "name": "from",
          "type": "address"
        },
        {
          "internalType": "address",
          "name": "to",
          "type": "address"
        },
        {
          "internalType": "uint256[]",
          "name": "ids",
          "type": "uint256[]"
        },
        {
          "internalType": "uint256[]",
          "name": "amounts",
          "type": "uint256[]"
        },
        {
          "internalType": "bytes",
          "name": "data",
          "type": "bytes"
        }
      ],
      "name": "safeBatchTransferFrom",
      "outputs": [],
      "stateMutability": "nonpayable",
      "type": "function"
    },
    {
      "inputs": [
        {
          "internalType": "address",
          "name": "from",
          "type": "address"
        },
        {
          "internalType": "address",
          "name": "to",
          "type": "address"
        },
        {
          "internalType": "uint256",
          "name": "id",
          "type": "uint256"
        },
        {
          "internalType": "uint256",
          "name": "amount",
          "type": "uint256"
        },
        {
          "internalType": "bytes",
          "name": "data",
          "type": "bytes"
        }
      ],
      "name": "safeTransferFrom",
      "outputs": [],
      "stateMutability": "nonpayable",
      "type": "function"
    },
    {
      "inputs": [
        {
          "internalType": "address",
          "name": "operator",
          "type": "address"
        },
        {
          "internalType": "bool",
          "name": "approved",
          "type": "bool"
        }
      ],
      "name": "setApprovalForAll",
      "outputs": [],
      "stateMutability": "nonpayable",
      "type": "function"
    },
    {
      "inputs": [
        {
          "internalType": "string",
          "name": "newuri",
          "type": "string"
        }
      ],
      "name": "setURI",
      "outputs": [],
      "stateMutability": "nonpayable",
      "type": "function"
    },
    {
      "inputs": [
        {
          "internalType": "bytes4",
          "name": "interfaceId",
          "type": "bytes4"
        }
      ],
      "name": "supportsInterface",
      "outputs": [
        {
          "internalType": "bool",
          "name": "",
          "type": "bool"
        }
      ],
      "stateMutability": "view",
      "type": "function"
    },
    {
      "inputs": [
        {
          "internalType": "uint256",
          "name": "id",
          "type": "uint256"
        }
      ],
      "name": "totalSupply",
      "outputs": [
        {
          "internalType": "uint256",
          "name": "",
          "type": "uint256"
        }
      ],
      "stateMutability": "view",
      "type": "function"
    },
    {
      "inputs": [
        {
          "internalType": "uint256",
          "name": "",
          "type": "uint256"
        }
      ],
      "name": "uri",
      "outputs": [
        {
          "internalType": "string",
          "name": "",
          "type": "string"
        }
      ],
      "stateMutability": "view",
      "type": "function"
    }
  ],
  "transactionHash": "0xc85b43f729f86b5644d474d19e4805e154e17877db545b22b654f998bfb62074",
  "args": [],
  "numDeployments": 1,
  "solcInputHash": "51935fa80800d1e21273d51ee43ccabc",
  "bytecode": "0x60806040523480156200001157600080fd5b506040518060200160405280600081525062000033816200008160201b60201c565b50620000496000801b336200009d60201b60201c565b6200007b7f7804d923f43a17d325d77e781528e0793b2edd9890ab45fc64efd7b4b427744c336200009d60201b60201c565b62000317565b80600290805190602001906200009992919062000202565b5050565b620000af82826200018f60201b60201c565b6200018b5760016003600084815260200190815260200160002060000160008373ffffffffffffffffffffffffffffffffffffffff1673ffffffffffffffffffffffffffffffffffffffff16815260200190815260200160002060006101000a81548160ff02191690831515021790555062000130620001fa60201b60201c565b73ffffffffffffffffffffffffffffffffffffffff168173ffffffffffffffffffffffffffffffffffffffff16837f2f8788117e7eff1d82e926ec794901d17c78024a50270940304540a733656f0d60405160405180910390a45b5050565b60006003600084815260200190815260200160002060000160008373ffffffffffffffffffffffffffffffffffffffff1673ffffffffffffffffffffffffffffffffffffffff16815260200190815260200160002060009054906101000a900460ff16905092915050565b600033905090565b8280546200021090620002e1565b90600052602060002090601f01602090048101928262000234576000855562000280565b82601f106200024f57805160ff191683800117855562000280565b8280016001018555821562000280579182015b828111156200027f57825182559160200191906001019062000262565b5b5090506200028f919062000293565b5090565b5b80821115620002ae57600081600090555060010162000294565b5090565b7f4e487b7100000000000000000000000000000000000000000000000000000000600052602260045260246000fd5b60006002820490506001821680620002fa57607f821691505b60208210811415620003115762000310620002b2565b5b50919050565b61452a80620003276000396000f3fe608060405234801561001057600080fd5b506004361061014c5760003560e01c80636b20c454116100c3578063bd85b0391161007c578063bd85b039146103bd578063d5391393146103ed578063d547741f1461040b578063e985e9c514610427578063f242432a14610457578063f5298aca146104735761014c565b80636b20c454146102fd578063731133e9146103195780637f3457101461033557806391d1485414610353578063a217fddf14610383578063a22cb465146103a15761014c565b8063248a9ca311610115578063248a9ca3146102195780632eb2c2d6146102495780632f2ff15d1461026557806336568abe146102815780634e1273f41461029d5780634f558e79146102cd5761014c565b8062fdd58e1461015157806301ffc9a71461018157806302fe5305146101b15780630e89341c146101cd5780631f7fdffa146101fd575b600080fd5b61016b60048036038101906101669190612b05565b61048f565b6040516101789190612b54565b60405180910390f35b61019b60048036038101906101969190612bc7565b610558565b6040516101a89190612c0f565b60405180910390f35b6101cb60048036038101906101c69190612d70565b61056a565b005b6101e760048036038101906101e29190612db9565b6105a1565b6040516101f49190612e6e565b60405180910390f35b61021760048036038101906102129190612ff9565b610635565b005b610233600480360381019061022e91906130ea565b610672565b6040516102409190613126565b60405180910390f35b610263600480360381019061025e9190613141565b610692565b005b61027f600480360381019061027a9190613210565b610733565b005b61029b60048036038101906102969190613210565b610754565b005b6102b760048036038101906102b29190613313565b6107d7565b6040516102c49190613449565b60405180910390f35b6102e760048036038101906102e29190612db9565b6108f0565b6040516102f49190612c0f565b60405180910390f35b6103176004803603810190610312919061346b565b610904565b005b610333600480360381019061032e91906134f6565b6109a1565b005b61033d6109de565b60405161034a9190613126565b60405180910390f35b61036d60048036038101906103689190613210565b610a02565b60405161037a9190612c0f565b60405180910390f35b61038b610a6d565b6040516103989190613126565b60405180910390f35b6103bb60048036038101906103b691906135a5565b610a74565b005b6103d760048036038101906103d29190612db9565b610a8a565b6040516103e49190612b54565b60405180910390f35b6103f5610aa7565b6040516104029190613126565b60405180910390f35b61042560048036038101906104209190613210565b610acb565b005b610441600480360381019061043c91906135e5565b610aec565b60405161044e9190612c0f565b60405180910390f35b610471600480360381019061046c9190613625565b610b80565b005b61048d600480360381019061048891906136bc565b610c21565b005b60008073ffffffffffffffffffffffffffffffffffffffff168373ffffffffffffffffffffffffffffffffffffffff161415610500576040517f08c379a00000000000000000000000000000000000000000000000000000000081526004016104f790613781565b60405180910390fd5b60008083815260200190815260200160002060008473ffffffffffffffffffffffffffffffffffffffff1673ffffffffffffffffffffffffffffffffffffffff16815260200190815260200160002054905092915050565b600061056382610cbe565b9050919050565b7f7804d923f43a17d325d77e781528e0793b2edd9890ab45fc64efd7b4b427744c61059481610d38565b61059d82610d4c565b5050565b6060600280546105b0906137d0565b80601f01602080910402602001604051908101604052809291908181526020018280546105dc906137d0565b80156106295780601f106105fe57610100808354040283529160200191610629565b820191906000526020600020905b81548152906001019060200180831161060c57829003601f168201915b50505050509050919050565b7f9f2df0fed2c77648de5860a4cc508cd0818c85b8b8a1ab4ceeef8d981c8956a661065f81610d38565b61066b85858585610d66565b5050505050565b600060036000838152602001908152602001600020600101549050919050565b61069a610f93565b73ffffffffffffffffffffffffffffffffffffffff168573ffffffffffffffffffffffffffffffffffffffff1614806106e057506106df856106da610f93565b610aec565b5b61071f576040517f08c379a000000000000000000000000000000000000000000000000000000000815260040161071690613874565b60405180910390fd5b61072c8585858585610f9b565b5050505050565b61073c82610672565b61074581610d38565b61074f83836112bd565b505050565b61075c610f93565b73ffffffffffffffffffffffffffffffffffffffff168173ffffffffffffffffffffffffffffffffffffffff16146107c9576040517f08c379a00000000000000000000000000000000000000000000000000000000081526004016107c090613906565b60405180910390fd5b6107d3828261139e565b5050565b6060815183511461081d576040517f08c379a000000000000000000000000000000000000000000000000000000000815260040161081490613998565b60405180910390fd5b6000835167ffffffffffffffff81111561083a57610839612c45565b5b6040519080825280602002602001820160405280156108685781602001602082028036833780820191505090505b50905060005b84518110156108e5576108b585828151811061088d5761088c6139b8565b5b60200260200101518583815181106108a8576108a76139b8565b5b602002602001015161048f565b8282815181106108c8576108c76139b8565b5b602002602001018181525050806108de90613a16565b905061086e565b508091505092915050565b6000806108fc83610a8a565b119050919050565b61090c610f93565b73ffffffffffffffffffffffffffffffffffffffff168373ffffffffffffffffffffffffffffffffffffffff16148061095257506109518361094c610f93565b610aec565b5b610991576040517f08c379a000000000000000000000000000000000000000000000000000000000815260040161098890613874565b60405180910390fd5b61099c838383611480565b505050565b7f9f2df0fed2c77648de5860a4cc508cd0818c85b8b8a1ab4ceeef8d981c8956a66109cb81610d38565b6109d78585858561174f565b5050505050565b7f7804d923f43a17d325d77e781528e0793b2edd9890ab45fc64efd7b4b427744c81565b60006003600084815260200190815260200160002060000160008373ffffffffffffffffffffffffffffffffffffffff1673ffffffffffffffffffffffffffffffffffffffff16815260200190815260200160002060009054906101000a900460ff16905092915050565b6000801b81565b610a86610a7f610f93565b8383611900565b5050565b600060046000838152602001908152602001600020549050919050565b7f9f2df0fed2c77648de5860a4cc508cd0818c85b8b8a1ab4ceeef8d981c8956a681565b610ad482610672565b610add81610d38565b610ae7838361139e565b505050565b6000600160008473ffffffffffffffffffffffffffffffffffffffff1673ffffffffffffffffffffffffffffffffffffffff16815260200190815260200160002060008373ffffffffffffffffffffffffffffffffffffffff1673ffffffffffffffffffffffffffffffffffffffff16815260200190815260200160002060009054906101000a900460ff16905092915050565b610b88610f93565b73ffffffffffffffffffffffffffffffffffffffff168573ffffffffffffffffffffffffffffffffffffffff161480610bce5750610bcd85610bc8610f93565b610aec565b5b610c0d576040517f08c379a0000000000000000000000000000000000000000000000000000000008152600401610c0490613874565b60405180910390fd5b610c1a8585858585611a6d565b5050505050565b610c29610f93565b73ffffffffffffffffffffffffffffffffffffffff168373ffffffffffffffffffffffffffffffffffffffff161480610c6f5750610c6e83610c69610f93565b610aec565b5b610cae576040517f08c379a0000000000000000000000000000000000000000000000000000000008152600401610ca590613874565b60405180910390fd5b610cb9838383611d09565b505050565b60007f7965db0b000000000000000000000000000000000000000000000000000000007bffffffffffffffffffffffffffffffffffffffffffffffffffffffff1916827bffffffffffffffffffffffffffffffffffffffffffffffffffffffff19161480610d315750610d3082611f50565b5b9050919050565b610d4981610d44610f93565b612032565b50565b8060029080519060200190610d629291906129ba565b5050565b600073ffffffffffffffffffffffffffffffffffffffff168473ffffffffffffffffffffffffffffffffffffffff161415610dd6576040517f08c379a0000000000000000000000000000000000000000000000000000000008152600401610dcd90613ad1565b60405180910390fd5b8151835114610e1a576040517f08c379a0000000000000000000000000000000000000000000000000000000008152600401610e1190613b63565b60405180910390fd5b6000610e24610f93565b9050610e35816000878787876120cf565b60005b8451811015610eee57838181518110610e5457610e536139b8565b5b6020026020010151600080878481518110610e7257610e716139b8565b5b6020026020010151815260200190815260200160002060008873ffffffffffffffffffffffffffffffffffffffff1673ffffffffffffffffffffffffffffffffffffffff1681526020019081526020016000206000828254610ed49190613b83565b925050819055508080610ee690613a16565b915050610e38565b508473ffffffffffffffffffffffffffffffffffffffff16600073ffffffffffffffffffffffffffffffffffffffff168273ffffffffffffffffffffffffffffffffffffffff167f4a39dc06d4c0dbc64b70af90fd698a233a518aa5d07e595d983b8c0526c8f7fb8787604051610f66929190613bd9565b60405180910390a4610f7d816000878787876120e5565b610f8c816000878787876120ed565b5050505050565b600033905090565b8151835114610fdf576040517f08c379a0000000000000000000000000000000000000000000000000000000008152600401610fd690613b63565b60405180910390fd5b600073ffffffffffffffffffffffffffffffffffffffff168473ffffffffffffffffffffffffffffffffffffffff16141561104f576040517f08c379a000000000000000000000000000000000000000000000000000000000815260040161104690613c82565b60405180910390fd5b6000611059610f93565b90506110698187878787876120cf565b60005b845181101561121a57600085828151811061108a576110896139b8565b5b6020026020010151905060008583815181106110a9576110a86139b8565b5b60200260200101519050600080600084815260200190815260200160002060008b73ffffffffffffffffffffffffffffffffffffffff1673ffffffffffffffffffffffffffffffffffffffff1681526020019081526020016000205490508181101561114a576040517f08c379a000000000000000000000000000000000000000000000000000000000815260040161114190613d14565b60405180910390fd5b81810360008085815260200190815260200160002060008c73ffffffffffffffffffffffffffffffffffffffff1673ffffffffffffffffffffffffffffffffffffffff168152602001908152602001600020819055508160008085815260200190815260200160002060008b73ffffffffffffffffffffffffffffffffffffffff1673ffffffffffffffffffffffffffffffffffffffff16815260200190815260200160002060008282546111ff9190613b83565b925050819055505050508061121390613a16565b905061106c565b508473ffffffffffffffffffffffffffffffffffffffff168673ffffffffffffffffffffffffffffffffffffffff168273ffffffffffffffffffffffffffffffffffffffff167f4a39dc06d4c0dbc64b70af90fd698a233a518aa5d07e595d983b8c0526c8f7fb8787604051611291929190613bd9565b60405180910390a46112a78187878787876120e5565b6112b58187878787876120ed565b505050505050565b6112c78282610a02565b61139a5760016003600084815260200190815260200160002060000160008373ffffffffffffffffffffffffffffffffffffffff1673ffffffffffffffffffffffffffffffffffffffff16815260200190815260200160002060006101000a81548160ff02191690831515021790555061133f610f93565b73ffffffffffffffffffffffffffffffffffffffff168173ffffffffffffffffffffffffffffffffffffffff16837f2f8788117e7eff1d82e926ec794901d17c78024a50270940304540a733656f0d60405160405180910390a45b5050565b6113a88282610a02565b1561147c5760006003600084815260200190815260200160002060000160008373ffffffffffffffffffffffffffffffffffffffff1673ffffffffffffffffffffffffffffffffffffffff16815260200190815260200160002060006101000a81548160ff021916908315150217905550611421610f93565b73ffffffffffffffffffffffffffffffffffffffff168173ffffffffffffffffffffffffffffffffffffffff16837ff6391f5c32d9c69d2a47ea670b442974b53935d1edc7fd64eb21e047a839171b60405160405180910390a45b5050565b600073ffffffffffffffffffffffffffffffffffffffff168373ffffffffffffffffffffffffffffffffffffffff1614156114f0576040517f08c379a00000000000000000000000000000000000000000000000000000000081526004016114e790613da6565b60405180910390fd5b8051825114611534576040517f08c379a000000000000000000000000000000000000000000000000000000000815260040161152b90613b63565b60405180910390fd5b600061153e610f93565b905061155e818560008686604051806020016040528060008152506120cf565b60005b83518110156116ab57600084828151811061157f5761157e6139b8565b5b60200260200101519050600084838151811061159e5761159d6139b8565b5b60200260200101519050600080600084815260200190815260200160002060008973ffffffffffffffffffffffffffffffffffffffff1673ffffffffffffffffffffffffffffffffffffffff1681526020019081526020016000205490508181101561163f576040517f08c379a000000000000000000000000000000000000000000000000000000000815260040161163690613e38565b60405180910390fd5b81810360008085815260200190815260200160002060008a73ffffffffffffffffffffffffffffffffffffffff1673ffffffffffffffffffffffffffffffffffffffff1681526020019081526020016000208190555050505080806116a390613a16565b915050611561565b50600073ffffffffffffffffffffffffffffffffffffffff168473ffffffffffffffffffffffffffffffffffffffff168273ffffffffffffffffffffffffffffffffffffffff167f4a39dc06d4c0dbc64b70af90fd698a233a518aa5d07e595d983b8c0526c8f7fb8686604051611723929190613bd9565b60405180910390a4611749818560008686604051806020016040528060008152506120e5565b50505050565b600073ffffffffffffffffffffffffffffffffffffffff168473ffffffffffffffffffffffffffffffffffffffff1614156117bf576040517f08c379a00000000000000000000000000000000000000000000000000000000081526004016117b690613ad1565b60405180910390fd5b60006117c9610f93565b905060006117d6856122c5565b905060006117e3856122c5565b90506117f4836000898585896120cf565b8460008088815260200190815260200160002060008973ffffffffffffffffffffffffffffffffffffffff1673ffffffffffffffffffffffffffffffffffffffff16815260200190815260200160002060008282546118539190613b83565b925050819055508673ffffffffffffffffffffffffffffffffffffffff16600073ffffffffffffffffffffffffffffffffffffffff168473ffffffffffffffffffffffffffffffffffffffff167fc3d58168c5ae7397731d063d5bbf3d657854427343f4c083240f7aacaa2d0f6289896040516118d1929190613e58565b60405180910390a46118e8836000898585896120e5565b6118f78360008989898961233f565b50505050505050565b8173ffffffffffffffffffffffffffffffffffffffff168373ffffffffffffffffffffffffffffffffffffffff16141561196f576040517f08c379a000000000000000000000000000000000000000000000000000000000815260040161196690613ef3565b60405180910390fd5b80600160008573ffffffffffffffffffffffffffffffffffffffff1673ffffffffffffffffffffffffffffffffffffffff16815260200190815260200160002060008473ffffffffffffffffffffffffffffffffffffffff1673ffffffffffffffffffffffffffffffffffffffff16815260200190815260200160002060006101000a81548160ff0219169083151502179055508173ffffffffffffffffffffffffffffffffffffffff168373ffffffffffffffffffffffffffffffffffffffff167f17307eab39ab6107e8899845ad3d59bd9653f200f220920489ca2b5937696c3183604051611a609190612c0f565b60405180910390a3505050565b600073ffffffffffffffffffffffffffffffffffffffff168473ffffffffffffffffffffffffffffffffffffffff161415611add576040517f08c379a0000000000000000000000000000000000000000000000000000000008152600401611ad490613c82565b60405180910390fd5b6000611ae7610f93565b90506000611af4856122c5565b90506000611b01856122c5565b9050611b118389898585896120cf565b600080600088815260200190815260200160002060008a73ffffffffffffffffffffffffffffffffffffffff1673ffffffffffffffffffffffffffffffffffffffff16815260200190815260200160002054905085811015611ba8576040517f08c379a0000000000000000000000000000000000000000000000000000000008152600401611b9f90613d14565b60405180910390fd5b85810360008089815260200190815260200160002060008b73ffffffffffffffffffffffffffffffffffffffff1673ffffffffffffffffffffffffffffffffffffffff168152602001908152602001600020819055508560008089815260200190815260200160002060008a73ffffffffffffffffffffffffffffffffffffffff1673ffffffffffffffffffffffffffffffffffffffff1681526020019081526020016000206000828254611c5d9190613b83565b925050819055508773ffffffffffffffffffffffffffffffffffffffff168973ffffffffffffffffffffffffffffffffffffffff168573ffffffffffffffffffffffffffffffffffffffff167fc3d58168c5ae7397731d063d5bbf3d657854427343f4c083240f7aacaa2d0f628a8a604051611cda929190613e58565b60405180910390a4611cf0848a8a86868a6120e5565b611cfe848a8a8a8a8a61233f565b505050505050505050565b600073ffffffffffffffffffffffffffffffffffffffff168373ffffffffffffffffffffffffffffffffffffffff161415611d79576040517f08c379a0000000000000000000000000000000000000000000000000000000008152600401611d7090613da6565b60405180910390fd5b6000611d83610f93565b90506000611d90846122c5565b90506000611d9d846122c5565b9050611dbd838760008585604051806020016040528060008152506120cf565b600080600087815260200190815260200160002060008873ffffffffffffffffffffffffffffffffffffffff1673ffffffffffffffffffffffffffffffffffffffff16815260200190815260200160002054905084811015611e54576040517f08c379a0000000000000000000000000000000000000000000000000000000008152600401611e4b90613e38565b60405180910390fd5b84810360008088815260200190815260200160002060008973ffffffffffffffffffffffffffffffffffffffff1673ffffffffffffffffffffffffffffffffffffffff16815260200190815260200160002081905550600073ffffffffffffffffffffffffffffffffffffffff168773ffffffffffffffffffffffffffffffffffffffff168573ffffffffffffffffffffffffffffffffffffffff167fc3d58168c5ae7397731d063d5bbf3d657854427343f4c083240f7aacaa2d0f628989604051611f21929190613e58565b60405180910390a4611f47848860008686604051806020016040528060008152506120e5565b50505050505050565b60007fd9b67a26000000000000000000000000000000000000000000000000000000007bffffffffffffffffffffffffffffffffffffffffffffffffffffffff1916827bffffffffffffffffffffffffffffffffffffffffffffffffffffffff1916148061201b57507f0e89341c000000000000000000000000000000000000000000000000000000007bffffffffffffffffffffffffffffffffffffffffffffffffffffffff1916827bffffffffffffffffffffffffffffffffffffffffffffffffffffffff1916145b8061202b575061202a82612517565b5b9050919050565b61203c8282610a02565b6120cb576120618173ffffffffffffffffffffffffffffffffffffffff166014612581565b61206f8360001c6020612581565b604051602001612080929190613fe7565b6040516020818303038152906040526040517f08c379a00000000000000000000000000000000000000000000000000000000081526004016120c29190612e6e565b60405180910390fd5b5050565b6120dd8686868686866127bd565b505050505050565b505050505050565b61210c8473ffffffffffffffffffffffffffffffffffffffff1661298f565b156122bd578373ffffffffffffffffffffffffffffffffffffffff1663bc197c8187878686866040518663ffffffff1660e01b8152600401612152959493929190614085565b6020604051808303816000875af192505050801561218e57506040513d601f19601f8201168201806040525081019061218b9190614102565b60015b6122345761219a61413c565b806308c379a014156121f757506121af61415e565b806121ba57506121f9565b806040517f08c379a00000000000000000000000000000000000000000000000000000000081526004016121ee9190612e6e565b60405180910390fd5b505b6040517f08c379a000000000000000000000000000000000000000000000000000000000815260040161222b90614266565b60405180910390fd5b63bc197c8160e01b7bffffffffffffffffffffffffffffffffffffffffffffffffffffffff1916817bffffffffffffffffffffffffffffffffffffffffffffffffffffffff1916146122bb576040517f08c379a00000000000000000000000000000000000000000000000000000000081526004016122b2906142f8565b60405180910390fd5b505b505050505050565b60606000600167ffffffffffffffff8111156122e4576122e3612c45565b5b6040519080825280602002602001820160405280156123125781602001602082028036833780820191505090505b509050828160008151811061232a576123296139b8565b5b60200260200101818152505080915050919050565b61235e8473ffffffffffffffffffffffffffffffffffffffff1661298f565b1561250f578373ffffffffffffffffffffffffffffffffffffffff1663f23a6e6187878686866040518663ffffffff1660e01b81526004016123a4959493929190614318565b6020604051808303816000875af19250505080156123e057506040513d601f19601f820116820180604052508101906123dd9190614102565b60015b612486576123ec61413c565b806308c379a01415612449575061240161415e565b8061240c575061244b565b806040517f08c379a00000000000000000000000000000000000000000000000000000000081526004016124409190612e6e565b60405180910390fd5b505b6040517f08c379a000000000000000000000000000000000000000000000000000000000815260040161247d90614266565b60405180910390fd5b63f23a6e6160e01b7bffffffffffffffffffffffffffffffffffffffffffffffffffffffff1916817bffffffffffffffffffffffffffffffffffffffffffffffffffffffff19161461250d576040517f08c379a0000000000000000000000000000000000000000000000000000000008152600401612504906142f8565b60405180910390fd5b505b505050505050565b60007f01ffc9a7000000000000000000000000000000000000000000000000000000007bffffffffffffffffffffffffffffffffffffffffffffffffffffffff1916827bffffffffffffffffffffffffffffffffffffffffffffffffffffffff1916149050919050565b6060600060028360026125949190614372565b61259e9190613b83565b67ffffffffffffffff8111156125b7576125b6612c45565b5b6040519080825280601f01601f1916602001820160405280156125e95781602001600182028036833780820191505090505b5090507f300000000000000000000000000000000000000000000000000000000000000081600081518110612621576126206139b8565b5b60200101907effffffffffffffffffffffffffffffffffffffffffffffffffffffffffffff1916908160001a9053507f780000000000000000000000000000000000000000000000000000000000000081600181518110612685576126846139b8565b5b60200101907effffffffffffffffffffffffffffffffffffffffffffffffffffffffffffff1916908160001a905350600060018460026126c59190614372565b6126cf9190613b83565b90505b600181111561276f577f3031323334353637383961626364656600000000000000000000000000000000600f861660108110612711576127106139b8565b5b1a60f81b828281518110612728576127276139b8565b5b60200101907effffffffffffffffffffffffffffffffffffffffffffffffffffffffffffff1916908160001a905350600485901c945080612768906143cc565b90506126d2565b50600084146127b3576040517f08c379a00000000000000000000000000000000000000000000000000000000081526004016127aa90614442565b60405180910390fd5b8091505092915050565b6127cb8686868686866129b2565b600073ffffffffffffffffffffffffffffffffffffffff168573ffffffffffffffffffffffffffffffffffffffff16141561287d5760005b835181101561287b5782818151811061281f5761281e6139b8565b5b60200260200101516004600086848151811061283e5761283d6139b8565b5b6020026020010151815260200190815260200160002060008282546128639190613b83565b925050819055508061287490613a16565b9050612803565b505b600073ffffffffffffffffffffffffffffffffffffffff168473ffffffffffffffffffffffffffffffffffffffff1614156129875760005b83518110156129855760008482815181106128d3576128d26139b8565b5b6020026020010151905060008483815181106128f2576128f16139b8565b5b6020026020010151905060006004600084815260200190815260200160002054905081811015612957576040517f08c379a000000000000000000000000000000000000000000000000000000000815260040161294e906144d4565b60405180910390fd5b81810360046000858152602001908152602001600020819055505050508061297e90613a16565b90506128b5565b505b505050505050565b6000808273ffffffffffffffffffffffffffffffffffffffff163b119050919050565b505050505050565b8280546129c6906137d0565b90600052602060002090601f0160209004810192826129e85760008555612a2f565b82601f10612a0157805160ff1916838001178555612a2f565b82800160010185558215612a2f579182015b82811115612a2e578251825591602001919060010190612a13565b5b509050612a3c9190612a40565b5090565b5b80821115612a59576000816000905550600101612a41565b5090565b6000604051905090565b600080fd5b600080fd5b600073ffffffffffffffffffffffffffffffffffffffff82169050919050565b6000612a9c82612a71565b9050919050565b612aac81612a91565b8114612ab757600080fd5b50565b600081359050612ac981612aa3565b92915050565b6000819050919050565b612ae281612acf565b8114612aed57600080fd5b50565b600081359050612aff81612ad9565b92915050565b60008060408385031215612b1c57612b1b612a67565b5b6000612b2a85828601612aba565b9250506020612b3b85828601612af0565b9150509250929050565b612b4e81612acf565b82525050565b6000602082019050612b696000830184612b45565b92915050565b60007fffffffff0000000000000000000000000000000000000000000000000000000082169050919050565b612ba481612b6f565b8114612baf57600080fd5b50565b600081359050612bc181612b9b565b92915050565b600060208284031215612bdd57612bdc612a67565b5b6000612beb84828501612bb2565b91505092915050565b60008115159050919050565b612c0981612bf4565b82525050565b6000602082019050612c246000830184612c00565b92915050565b600080fd5b600080fd5b6000601f19601f8301169050919050565b7f4e487b7100000000000000000000000000000000000000000000000000000000600052604160045260246000fd5b612c7d82612c34565b810181811067ffffffffffffffff82111715612c9c57612c9b612c45565b5b80604052505050565b6000612caf612a5d565b9050612cbb8282612c74565b919050565b600067ffffffffffffffff821115612cdb57612cda612c45565b5b612ce482612c34565b9050602081019050919050565b82818337600083830152505050565b6000612d13612d0e84612cc0565b612ca5565b905082815260208101848484011115612d2f57612d2e612c2f565b5b612d3a848285612cf1565b509392505050565b600082601f830112612d5757612d56612c2a565b5b8135612d67848260208601612d00565b91505092915050565b600060208284031215612d8657612d85612a67565b5b600082013567ffffffffffffffff811115612da457612da3612a6c565b5b612db084828501612d42565b91505092915050565b600060208284031215612dcf57612dce612a67565b5b6000612ddd84828501612af0565b91505092915050565b600081519050919050565b600082825260208201905092915050565b60005b83811015612e20578082015181840152602081019050612e05565b83811115612e2f576000848401525b50505050565b6000612e4082612de6565b612e4a8185612df1565b9350612e5a818560208601612e02565b612e6381612c34565b840191505092915050565b60006020820190508181036000830152612e888184612e35565b905092915050565b600067ffffffffffffffff821115612eab57612eaa612c45565b5b602082029050602081019050919050565b600080fd5b6000612ed4612ecf84612e90565b612ca5565b90508083825260208201905060208402830185811115612ef757612ef6612ebc565b5b835b81811015612f205780612f0c8882612af0565b845260208401935050602081019050612ef9565b5050509392505050565b600082601f830112612f3f57612f3e612c2a565b5b8135612f4f848260208601612ec1565b91505092915050565b600067ffffffffffffffff821115612f7357612f72612c45565b5b612f7c82612c34565b9050602081019050919050565b6000612f9c612f9784612f58565b612ca5565b905082815260208101848484011115612fb857612fb7612c2f565b5b612fc3848285612cf1565b509392505050565b600082601f830112612fe057612fdf612c2a565b5b8135612ff0848260208601612f89565b91505092915050565b6000806000806080858703121561301357613012612a67565b5b600061302187828801612aba565b945050602085013567ffffffffffffffff81111561304257613041612a6c565b5b61304e87828801612f2a565b935050604085013567ffffffffffffffff81111561306f5761306e612a6c565b5b61307b87828801612f2a565b925050606085013567ffffffffffffffff81111561309c5761309b612a6c565b5b6130a887828801612fcb565b91505092959194509250565b6000819050919050565b6130c7816130b4565b81146130d257600080fd5b50565b6000813590506130e4816130be565b92915050565b600060208284031215613100576130ff612a67565b5b600061310e848285016130d5565b91505092915050565b613120816130b4565b82525050565b600060208201905061313b6000830184613117565b92915050565b600080600080600060a0868803121561315d5761315c612a67565b5b600061316b88828901612aba565b955050602061317c88828901612aba565b945050604086013567ffffffffffffffff81111561319d5761319c612a6c565b5b6131a988828901612f2a565b935050606086013567ffffffffffffffff8111156131ca576131c9612a6c565b5b6131d688828901612f2a565b925050608086013567ffffffffffffffff8111156131f7576131f6612a6c565b5b61320388828901612fcb565b9150509295509295909350565b6000806040838503121561322757613226612a67565b5b6000613235858286016130d5565b925050602061324685828601612aba565b9150509250929050565b600067ffffffffffffffff82111561326b5761326a612c45565b5b602082029050602081019050919050565b600061328f61328a84613250565b612ca5565b905080838252602082019050602084028301858111156132b2576132b1612ebc565b5b835b818110156132db57806132c78882612aba565b8452602084019350506020810190506132b4565b5050509392505050565b600082601f8301126132fa576132f9612c2a565b5b813561330a84826020860161327c565b91505092915050565b6000806040838503121561332a57613329612a67565b5b600083013567ffffffffffffffff81111561334857613347612a6c565b5b613354858286016132e5565b925050602083013567ffffffffffffffff81111561337557613374612a6c565b5b61338185828601612f2a565b9150509250929050565b600081519050919050565b600082825260208201905092915050565b6000819050602082019050919050565b6133c081612acf565b82525050565b60006133d283836133b7565b60208301905092915050565b6000602082019050919050565b60006133f68261338b565b6134008185613396565b935061340b836133a7565b8060005b8381101561343c57815161342388826133c6565b975061342e836133de565b92505060018101905061340f565b5085935050505092915050565b6000602082019050818103600083015261346381846133eb565b905092915050565b60008060006060848603121561348457613483612a67565b5b600061349286828701612aba565b935050602084013567ffffffffffffffff8111156134b3576134b2612a6c565b5b6134bf86828701612f2a565b925050604084013567ffffffffffffffff8111156134e0576134df612a6c565b5b6134ec86828701612f2a565b9150509250925092565b600080600080608085870312156135105761350f612a67565b5b600061351e87828801612aba565b945050602061352f87828801612af0565b935050604061354087828801612af0565b925050606085013567ffffffffffffffff81111561356157613560612a6c565b5b61356d87828801612fcb565b91505092959194509250565b61358281612bf4565b811461358d57600080fd5b50565b60008135905061359f81613579565b92915050565b600080604083850312156135bc576135bb612a67565b5b60006135ca85828601612aba565b92505060206135db85828601613590565b9150509250929050565b600080604083850312156135fc576135fb612a67565b5b600061360a85828601612aba565b925050602061361b85828601612aba565b9150509250929050565b600080600080600060a0868803121561364157613640612a67565b5b600061364f88828901612aba565b955050602061366088828901612aba565b945050604061367188828901612af0565b935050606061368288828901612af0565b925050608086013567ffffffffffffffff8111156136a3576136a2612a6c565b5b6136af88828901612fcb565b9150509295509295909350565b6000806000606084860312156136d5576136d4612a67565b5b60006136e386828701612aba565b93505060206136f486828701612af0565b925050604061370586828701612af0565b9150509250925092565b7f455243313135353a2061646472657373207a65726f206973206e6f742061207660008201527f616c6964206f776e657200000000000000000000000000000000000000000000602082015250565b600061376b602a83612df1565b91506137768261370f565b604082019050919050565b6000602082019050818103600083015261379a8161375e565b9050919050565b7f4e487b7100000000000000000000000000000000000000000000000000000000600052602260045260246000fd5b600060028204905060018216806137e857607f821691505b602082108114156137fc576137fb6137a1565b5b50919050565b7f455243313135353a2063616c6c6572206973206e6f7420746f6b656e206f776e60008201527f6572206e6f7220617070726f7665640000000000000000000000000000000000602082015250565b600061385e602f83612df1565b915061386982613802565b604082019050919050565b6000602082019050818103600083015261388d81613851565b9050919050565b7f416363657373436f6e74726f6c3a2063616e206f6e6c792072656e6f756e636560008201527f20726f6c657320666f722073656c660000000000000000000000000000000000602082015250565b60006138f0602f83612df1565b91506138fb82613894565b604082019050919050565b6000602082019050818103600083015261391f816138e3565b9050919050565b7f455243313135353a206163636f756e747320616e6420696473206c656e67746860008201527f206d69736d617463680000000000000000000000000000000000000000000000602082015250565b6000613982602983612df1565b915061398d82613926565b604082019050919050565b600060208201905081810360008301526139b181613975565b9050919050565b7f4e487b7100000000000000000000000000000000000000000000000000000000600052603260045260246000fd5b7f4e487b7100000000000000000000000000000000000000000000000000000000600052601160045260246000fd5b6000613a2182612acf565b91507fffffffffffffffffffffffffffffffffffffffffffffffffffffffffffffffff821415613a5457613a536139e7565b5b600182019050919050565b7f455243313135353a206d696e7420746f20746865207a65726f2061646472657360008201527f7300000000000000000000000000000000000000000000000000000000000000602082015250565b6000613abb602183612df1565b9150613ac682613a5f565b604082019050919050565b60006020820190508181036000830152613aea81613aae565b9050919050565b7f455243313135353a2069647320616e6420616d6f756e7473206c656e6774682060008201527f6d69736d61746368000000000000000000000000000000000000000000000000602082015250565b6000613b4d602883612df1565b9150613b5882613af1565b604082019050919050565b60006020820190508181036000830152613b7c81613b40565b9050919050565b6000613b8e82612acf565b9150613b9983612acf565b9250827fffffffffffffffffffffffffffffffffffffffffffffffffffffffffffffffff03821115613bce57613bcd6139e7565b5b828201905092915050565b60006040820190508181036000830152613bf381856133eb565b90508181036020830152613c0781846133eb565b90509392505050565b7f455243313135353a207472616e7366657220746f20746865207a65726f20616460008201527f6472657373000000000000000000000000000000000000000000000000000000602082015250565b6000613c6c602583612df1565b9150613c7782613c10565b604082019050919050565b60006020820190508181036000830152613c9b81613c5f565b9050919050565b7f455243313135353a20696e73756666696369656e742062616c616e636520666f60008201527f72207472616e7366657200000000000000000000000000000000000000000000602082015250565b6000613cfe602a83612df1565b9150613d0982613ca2565b604082019050919050565b60006020820190508181036000830152613d2d81613cf1565b9050919050565b7f455243313135353a206275726e2066726f6d20746865207a65726f206164647260008201527f6573730000000000000000000000000000000000000000000000000000000000602082015250565b6000613d90602383612df1565b9150613d9b82613d34565b604082019050919050565b60006020820190508181036000830152613dbf81613d83565b9050919050565b7f455243313135353a206275726e20616d6f756e7420657863656564732062616c60008201527f616e636500000000000000000000000000000000000000000000000000000000602082015250565b6000613e22602483612df1565b9150613e2d82613dc6565b604082019050919050565b60006020820190508181036000830152613e5181613e15565b9050919050565b6000604082019050613e6d6000830185612b45565b613e7a6020830184612b45565b9392505050565b7f455243313135353a2073657474696e6720617070726f76616c2073746174757360008201527f20666f722073656c660000000000000000000000000000000000000000000000602082015250565b6000613edd602983612df1565b9150613ee882613e81565b604082019050919050565b60006020820190508181036000830152613f0c81613ed0565b9050919050565b600081905092915050565b7f416363657373436f6e74726f6c3a206163636f756e7420000000000000000000600082015250565b6000613f54601783613f13565b9150613f5f82613f1e565b601782019050919050565b6000613f7582612de6565b613f7f8185613f13565b9350613f8f818560208601612e02565b80840191505092915050565b7f206973206d697373696e6720726f6c6520000000000000000000000000000000600082015250565b6000613fd1601183613f13565b9150613fdc82613f9b565b601182019050919050565b6000613ff282613f47565b9150613ffe8285613f6a565b915061400982613fc4565b91506140158284613f6a565b91508190509392505050565b61402a81612a91565b82525050565b600081519050919050565b600082825260208201905092915050565b600061405782614030565b614061818561403b565b9350614071818560208601612e02565b61407a81612c34565b840191505092915050565b600060a08201905061409a6000830188614021565b6140a76020830187614021565b81810360408301526140b981866133eb565b905081810360608301526140cd81856133eb565b905081810360808301526140e1818461404c565b90509695505050505050565b6000815190506140fc81612b9b565b92915050565b60006020828403121561411857614117612a67565b5b6000614126848285016140ed565b91505092915050565b60008160e01c9050919050565b600060033d111561415b5760046000803e61415860005161412f565b90505b90565b600060443d101561416e576141f1565b614176612a5d565b60043d036004823e80513d602482011167ffffffffffffffff8211171561419e5750506141f1565b808201805167ffffffffffffffff8111156141bc57505050506141f1565b80602083010160043d0385018111156141d95750505050506141f1565b6141e882602001850186612c74565b82955050505050505b90565b7f455243313135353a207472616e7366657220746f206e6f6e204552433131353560008201527f526563656976657220696d706c656d656e746572000000000000000000000000602082015250565b6000614250603483612df1565b915061425b826141f4565b604082019050919050565b6000602082019050818103600083015261427f81614243565b9050919050565b7f455243313135353a204552433131353552656365697665722072656a6563746560008201527f6420746f6b656e73000000000000000000000000000000000000000000000000602082015250565b60006142e2602883612df1565b91506142ed82614286565b604082019050919050565b60006020820190508181036000830152614311816142d5565b9050919050565b600060a08201905061432d6000830188614021565b61433a6020830187614021565b6143476040830186612b45565b6143546060830185612b45565b8181036080830152614366818461404c565b90509695505050505050565b600061437d82612acf565b915061438883612acf565b9250817fffffffffffffffffffffffffffffffffffffffffffffffffffffffffffffffff04831182151516156143c1576143c06139e7565b5b828202905092915050565b60006143d782612acf565b915060008214156143eb576143ea6139e7565b5b600182039050919050565b7f537472696e67733a20686578206c656e67746820696e73756666696369656e74600082015250565b600061442c602083612df1565b9150614437826143f6565b602082019050919050565b6000602082019050818103600083015261445b8161441f565b9050919050565b7f455243313135353a206275726e20616d6f756e74206578636565647320746f7460008201527f616c537570706c79000000000000000000000000000000000000000000000000602082015250565b60006144be602883612df1565b91506144c982614462565b604082019050919050565b600060208201905081810360008301526144ed816144b1565b905091905056fea2646970667358221220da7eb70346791507b9cfd08b2f34da6b9027d95e85a6cfae7c343b46bc3b753164736f6c634300080a0033",
  "devdoc": {
    "kind": "dev",
    "methods": {
      "balanceOf(address,uint256)": {
        "details": "See {IERC1155-balanceOf}. Requirements: - `account` cannot be the zero address."
      },
      "balanceOfBatch(address[],uint256[])": {
        "details": "See {IERC1155-balanceOfBatch}. Requirements: - `accounts` and `ids` must have the same length."
      },
      "exists(uint256)": {
        "details": "Indicates whether any token exist with a given id, or not."
      },
      "getRoleAdmin(bytes32)": {
        "details": "Returns the admin role that controls `role`. See {grantRole} and {revokeRole}. To change a role's admin, use {_setRoleAdmin}."
      },
      "grantRole(bytes32,address)": {
        "details": "Grants `role` to `account`. If `account` had not been already granted `role`, emits a {RoleGranted} event. Requirements: - the caller must have ``role``'s admin role. May emit a {RoleGranted} event."
      },
      "hasRole(bytes32,address)": {
        "details": "Returns `true` if `account` has been granted `role`."
      },
      "isApprovedForAll(address,address)": {
        "details": "See {IERC1155-isApprovedForAll}."
      },
      "renounceRole(bytes32,address)": {
        "details": "Revokes `role` from the calling account. Roles are often managed via {grantRole} and {revokeRole}: this function's purpose is to provide a mechanism for accounts to lose their privileges if they are compromised (such as when a trusted device is misplaced). If the calling account had been revoked `role`, emits a {RoleRevoked} event. Requirements: - the caller must be `account`. May emit a {RoleRevoked} event."
      },
      "revokeRole(bytes32,address)": {
        "details": "Revokes `role` from `account`. If `account` had been granted `role`, emits a {RoleRevoked} event. Requirements: - the caller must have ``role``'s admin role. May emit a {RoleRevoked} event."
      },
      "safeBatchTransferFrom(address,address,uint256[],uint256[],bytes)": {
        "details": "See {IERC1155-safeBatchTransferFrom}."
      },
      "safeTransferFrom(address,address,uint256,uint256,bytes)": {
        "details": "See {IERC1155-safeTransferFrom}."
      },
      "setApprovalForAll(address,bool)": {
        "details": "See {IERC1155-setApprovalForAll}."
      },
      "totalSupply(uint256)": {
        "details": "Total amount of tokens in with a given id."
      },
      "uri(uint256)": {
        "details": "See {IERC1155MetadataURI-uri}. This implementation returns the same URI for *all* token types. It relies on the token type ID substitution mechanism https://eips.ethereum.org/EIPS/eip-1155#metadata[defined in the EIP]. Clients calling this function must replace the `\\{id\\}` substring with the actual token type ID."
      }
    },
    "version": 1
  },
  "userdoc": {
    "kind": "user",
    "methods": {},
    "version": 1
  },
  "storageLayout": {
    "storage": [
      {
        "astId": 531,
        "contract": "contracts/ThirdBook.sol:ThirdBook",
        "label": "_balances",
        "offset": 0,
        "slot": "0",
        "type": "t_mapping(t_uint256,t_mapping(t_address,t_uint256))"
      },
      {
        "astId": 537,
        "contract": "contracts/ThirdBook.sol:ThirdBook",
        "label": "_operatorApprovals",
        "offset": 0,
        "slot": "1",
        "type": "t_mapping(t_address,t_mapping(t_address,t_bool))"
      },
      {
        "astId": 539,
        "contract": "contracts/ThirdBook.sol:ThirdBook",
        "label": "_uri",
        "offset": 0,
        "slot": "2",
        "type": "t_string_storage"
      },
      {
        "astId": 24,
        "contract": "contracts/ThirdBook.sol:ThirdBook",
        "label": "_roles",
        "offset": 0,
        "slot": "3",
        "type": "t_mapping(t_bytes32,t_struct(RoleData)19_storage)"
      },
      {
        "astId": 1970,
        "contract": "contracts/ThirdBook.sol:ThirdBook",
        "label": "_totalSupply",
        "offset": 0,
        "slot": "4",
        "type": "t_mapping(t_uint256,t_uint256)"
      }
    ],
    "types": {
      "t_address": {
        "encoding": "inplace",
        "label": "address",
        "numberOfBytes": "20"
      },
      "t_bool": {
        "encoding": "inplace",
        "label": "bool",
        "numberOfBytes": "1"
      },
      "t_bytes32": {
        "encoding": "inplace",
        "label": "bytes32",
        "numberOfBytes": "32"
      },
      "t_mapping(t_address,t_bool)": {
        "encoding": "mapping",
        "key": "t_address",
        "label": "mapping(address => bool)",
        "numberOfBytes": "32",
        "value": "t_bool"
      },
      "t_mapping(t_address,t_mapping(t_address,t_bool))": {
        "encoding": "mapping",
        "key": "t_address",
        "label": "mapping(address => mapping(address => bool))",
        "numberOfBytes": "32",
        "value": "t_mapping(t_address,t_bool)"
      },
      "t_mapping(t_address,t_uint256)": {
        "encoding": "mapping",
        "key": "t_address",
        "label": "mapping(address => uint256)",
        "numberOfBytes": "32",
        "value": "t_uint256"
      },
      "t_mapping(t_bytes32,t_struct(RoleData)19_storage)": {
        "encoding": "mapping",
        "key": "t_bytes32",
        "label": "mapping(bytes32 => struct AccessControl.RoleData)",
        "numberOfBytes": "32",
        "value": "t_struct(RoleData)19_storage"
      },
      "t_mapping(t_uint256,t_mapping(t_address,t_uint256))": {
        "encoding": "mapping",
        "key": "t_uint256",
        "label": "mapping(uint256 => mapping(address => uint256))",
        "numberOfBytes": "32",
        "value": "t_mapping(t_address,t_uint256)"
      },
      "t_mapping(t_uint256,t_uint256)": {
        "encoding": "mapping",
        "key": "t_uint256",
        "label": "mapping(uint256 => uint256)",
        "numberOfBytes": "32",
        "value": "t_uint256"
      },
      "t_string_storage": {
        "encoding": "bytes",
        "label": "string",
        "numberOfBytes": "32"
      },
      "t_struct(RoleData)19_storage": {
        "encoding": "inplace",
        "label": "struct AccessControl.RoleData",
        "members": [
          {
            "astId": 16,
            "contract": "contracts/ThirdBook.sol:ThirdBook",
            "label": "members",
            "offset": 0,
            "slot": "0",
            "type": "t_mapping(t_address,t_bool)"
          },
          {
            "astId": 18,
            "contract": "contracts/ThirdBook.sol:ThirdBook",
            "label": "adminRole",
            "offset": 0,
            "slot": "1",
            "type": "t_bytes32"
          }
        ],
        "numberOfBytes": "64"
      },
      "t_uint256": {
        "encoding": "inplace",
        "label": "uint256",
        "numberOfBytes": "32"
      }
    }
  }
}