{
  "address": "0xC4485100CaF703c6D0eBaB3a4AF3f174938C4fEA",
  "abi": [
    {
      "inputs": [
        {
          "internalType": "uint256",
          "name": "_shop_Fee",
          "type": "uint256"
        },
        {
          "internalType": "uint256",
          "name": "_percentage_Claim",
          "type": "uint256"
        },
        {
          "internalType": "address",
          "name": "_book_Contract",
          "type": "address"
        },
        {
          "internalType": "address",
          "name": "_usd_Token_Contract",
          "type": "address"
        }
      ],
      "stateMutability": "nonpayable",
      "type": "constructor"
    },
    {
      "inputs": [
        {
          "internalType": "uint256",
          "name": "currentValue",
          "type": "uint256"
        },
        {
          "internalType": "uint256",
          "name": "expectedValue",
          "type": "uint256"
        },
        {
          "internalType": "bytes",
          "name": "reason",
          "type": "bytes"
        }
      ],
      "name": "FeeNotProcessed",
      "type": "error"
    },
    {
      "inputs": [
        {
          "internalType": "uint256",
          "name": "currentValue",
          "type": "uint256"
        },
        {
          "internalType": "bytes",
          "name": "expected",
          "type": "bytes"
        }
      ],
      "name": "InvalidOperation",
      "type": "error"
    },
    {
      "inputs": [],
      "name": "NotEnoughBalance",
      "type": "error"
    },
    {
      "anonymous": false,
      "inputs": [
        {
          "indexed": false,
          "internalType": "uint256",
          "name": "tokenId",
          "type": "uint256"
        },
        {
          "indexed": false,
          "internalType": "address",
          "name": "burner",
          "type": "address"
        },
        {
          "indexed": false,
          "internalType": "uint256",
          "name": "amount",
          "type": "uint256"
        }
      ],
      "name": "BurntBook",
      "type": "event"
    },
    {
      "anonymous": false,
      "inputs": [
        {
          "indexed": false,
          "internalType": "uint256",
          "name": "oldFee",
          "type": "uint256"
        },
        {
          "indexed": false,
          "internalType": "uint256",
          "name": "newFee",
          "type": "uint256"
        }
      ],
      "name": "ChangedShopFee",
      "type": "event"
    },
    {
      "anonymous": false,
      "inputs": [
        {
          "indexed": true,
          "internalType": "address",
          "name": "previousOwner",
          "type": "address"
        },
        {
          "indexed": true,
          "internalType": "address",
          "name": "newOwner",
          "type": "address"
        }
      ],
      "name": "OwnershipTransferred",
      "type": "event"
    },
    {
      "anonymous": false,
      "inputs": [
        {
          "indexed": false,
          "internalType": "uint256",
          "name": "tokenId",
          "type": "uint256"
        },
        {
          "indexed": false,
          "internalType": "address",
          "name": "publisher",
          "type": "address"
        },
        {
          "indexed": false,
          "internalType": "uint256",
          "name": "price",
          "type": "uint256"
        }
      ],
      "name": "PublishedBook",
      "type": "event"
    },
    {
      "anonymous": false,
      "inputs": [
        {
          "indexed": false,
          "internalType": "uint256",
          "name": "tokenId",
          "type": "uint256"
        },
        {
          "indexed": false,
          "internalType": "address",
          "name": "buyer",
          "type": "address"
        },
        {
          "indexed": false,
          "internalType": "uint256",
          "name": "price",
          "type": "uint256"
        }
      ],
      "name": "PurchasedBook",
      "type": "event"
    },
    {
      "inputs": [],
      "name": "bookContract",
      "outputs": [
        {
          "internalType": "contract IERC1155MintableBurnable",
          "name": "",
          "type": "address"
        }
      ],
      "stateMutability": "view",
      "type": "function"
    },
    {
      "inputs": [
        {
          "internalType": "uint256",
          "name": "_tokenId",
          "type": "uint256"
        },
        {
          "internalType": "uint256",
          "name": "_amount",
          "type": "uint256"
        }
      ],
      "name": "burn",
      "outputs": [],
      "stateMutability": "nonpayable",
      "type": "function"
    },
    {
      "inputs": [],
      "name": "claimTokens",
      "outputs": [],
      "stateMutability": "nonpayable",
      "type": "function"
    },
    {
      "inputs": [
        {
          "internalType": "address",
          "name": "",
          "type": "address"
        },
        {
          "internalType": "address",
          "name": "",
          "type": "address"
        },
        {
          "internalType": "uint256[]",
          "name": "",
          "type": "uint256[]"
        },
        {
          "internalType": "uint256[]",
          "name": "",
          "type": "uint256[]"
        },
        {
          "internalType": "bytes",
          "name": "",
          "type": "bytes"
        }
      ],
      "name": "onERC1155BatchReceived",
      "outputs": [
        {
          "internalType": "bytes4",
          "name": "",
          "type": "bytes4"
        }
      ],
      "stateMutability": "nonpayable",
      "type": "function"
    },
    {
      "inputs": [
        {
          "internalType": "address",
          "name": "",
          "type": "address"
        },
        {
          "internalType": "address",
          "name": "",
          "type": "address"
        },
        {
          "internalType": "uint256",
          "name": "",
          "type": "uint256"
        },
        {
          "internalType": "uint256",
          "name": "",
          "type": "uint256"
        },
        {
          "internalType": "bytes",
          "name": "",
          "type": "bytes"
        }
      ],
      "name": "onERC1155Received",
      "outputs": [
        {
          "internalType": "bytes4",
          "name": "",
          "type": "bytes4"
        }
      ],
      "stateMutability": "nonpayable",
      "type": "function"
    },
    {
      "inputs": [],
      "name": "owner",
      "outputs": [
        {
          "internalType": "address",
          "name": "",
          "type": "address"
        }
      ],
      "stateMutability": "view",
      "type": "function"
    },
    {
      "inputs": [],
      "name": "percentageClaim",
      "outputs": [
        {
          "internalType": "uint256",
          "name": "",
          "type": "uint256"
        }
      ],
      "stateMutability": "view",
      "type": "function"
    },
    {
      "inputs": [
        {
          "internalType": "uint256",
          "name": "_amount",
          "type": "uint256"
        },
        {
          "internalType": "uint256",
          "name": "_price",
          "type": "uint256"
        }
      ],
      "name": "publish",
      "outputs": [],
      "stateMutability": "payable",
      "type": "function"
    },
    {
      "inputs": [
        {
          "internalType": "uint256",
          "name": "_tokenId",
          "type": "uint256"
        }
      ],
      "name": "purchase",
      "outputs": [],
      "stateMutability": "payable",
      "type": "function"
    },
    {
      "inputs": [],
      "name": "renounceOwnership",
      "outputs": [],
      "stateMutability": "nonpayable",
      "type": "function"
    },
    {
      "inputs": [
        {
          "internalType": "uint256",
          "name": "",
          "type": "uint256"
        }
      ],
      "name": "s_price",
      "outputs": [
        {
          "internalType": "uint256",
          "name": "",
          "type": "uint256"
        }
      ],
      "stateMutability": "view",
      "type": "function"
    },
    {
      "inputs": [],
      "name": "shopFee",
      "outputs": [
        {
          "internalType": "uint256",
          "name": "",
          "type": "uint256"
        }
      ],
      "stateMutability": "view",
      "type": "function"
    },
    {
      "inputs": [
        {
          "internalType": "bytes4",
          "name": "interfaceId",
          "type": "bytes4"
        }
      ],
      "name": "supportsInterface",
      "outputs": [
        {
          "internalType": "bool",
          "name": "",
          "type": "bool"
        }
      ],
      "stateMutability": "view",
      "type": "function"
    },
    {
      "inputs": [
        {
          "internalType": "address",
          "name": "newOwner",
          "type": "address"
        }
      ],
      "name": "transferOwnership",
      "outputs": [],
      "stateMutability": "nonpayable",
      "type": "function"
    },
    {
      "inputs": [
        {
          "internalType": "uint256",
          "name": "_newShopFee",
          "type": "uint256"
        }
      ],
      "name": "updateShopFee",
      "outputs": [],
      "stateMutability": "nonpayable",
      "type": "function"
    },
    {
      "inputs": [],
      "name": "usdTokenContract",
      "outputs": [
        {
          "internalType": "contract IERC20",
          "name": "",
          "type": "address"
        }
      ],
      "stateMutability": "view",
      "type": "function"
    },
    {
      "inputs": [
        {
          "internalType": "uint256",
          "name": "_amount",
          "type": "uint256"
        }
      ],
      "name": "withdraw",
      "outputs": [],
      "stateMutability": "nonpayable",
      "type": "function"
    }
  ],
  "transactionHash": "0x06ec7f07738cda39893e585323ff963ff1c42787552600c868aad6e8396dc5bb",
  "args": [
    "10000000000000000",
    2,
    "0x6a274624223daA93d660a69D3b74b85eAc9fb3A2",
    "0x07865c6e87b9f70255377e024ace6630c1eaa37f"
  ],
  "numDeployments": 1,
  "solcInputHash": "51935fa80800d1e21273d51ee43ccabc",
  "bytecode": "0x60c06040523480156200001157600080fd5b50604051620024a0380380620024a0833981810160405281019062000037919062000248565b620000576200004b620000d760201b60201c565b620000df60201b60201c565b83600281905550826003819055508173ffffffffffffffffffffffffffffffffffffffff1660808173ffffffffffffffffffffffffffffffffffffffff16815250508073ffffffffffffffffffffffffffffffffffffffff1660a08173ffffffffffffffffffffffffffffffffffffffff168152505050505050620002ba565b600033905090565b60008060009054906101000a900473ffffffffffffffffffffffffffffffffffffffff169050816000806101000a81548173ffffffffffffffffffffffffffffffffffffffff021916908373ffffffffffffffffffffffffffffffffffffffff1602179055508173ffffffffffffffffffffffffffffffffffffffff168173ffffffffffffffffffffffffffffffffffffffff167f8be0079c531659141344cd1fd0a4f28419497f9722a3daafe3b4186f6b6457e060405160405180910390a35050565b600080fd5b6000819050919050565b620001bd81620001a8565b8114620001c957600080fd5b50565b600081519050620001dd81620001b2565b92915050565b600073ffffffffffffffffffffffffffffffffffffffff82169050919050565b60006200021082620001e3565b9050919050565b620002228162000203565b81146200022e57600080fd5b50565b600081519050620002428162000217565b92915050565b60008060008060808587031215620002655762000264620001a3565b5b60006200027587828801620001cc565b94505060206200028887828801620001cc565b93505060406200029b8782880162000231565b9250506060620002ae8782880162000231565b91505092959194509250565b60805160a05161217a62000326600039600081816104540152818161058c0152818161070201528181610cdc0152610e550152600081816107d00152818161081e015281816108f101528181610b4f01528181610bde01528181610d7f0152610fac015261217a6000f3fe6080604052600436106100fe5760003560e01c80638da5cb5b11610095578063c2e4331511610064578063c2e43315146102fd578063e870138f14610319578063efef39a114610356578063f23a6e6114610372578063f2fde38b146103af576100fe565b80638da5cb5b14610243578063b390c0ab1461026e578063bc197c8114610297578063c2b84d80146102d4576100fe565b80635b7cf14a116100d15780635b7cf14a146101ab5780636fabc501146101d6578063715018a6146102015780637315103714610218576100fe565b806301ffc9a7146101035780632589a9d0146101405780632e1a7d4d1461016b57806348c54b9d14610194575b600080fd5b34801561010f57600080fd5b5061012a6004803603810190610125919061136c565b6103d8565b60405161013791906113b4565b60405180910390f35b34801561014c57600080fd5b50610155610452565b604051610162919061144e565b60405180910390f35b34801561017757600080fd5b50610192600480360381019061018d919061149f565b610476565b005b3480156101a057600080fd5b506101a961062f565b005b3480156101b757600080fd5b506101c06107ae565b6040516101cd91906114db565b60405180910390f35b3480156101e257600080fd5b506101eb6107b4565b6040516101f891906114db565b60405180910390f35b34801561020d57600080fd5b506102166107ba565b005b34801561022457600080fd5b5061022d6107ce565b60405161023a9190611517565b60405180910390f35b34801561024f57600080fd5b506102586107f2565b6040516102659190611553565b60405180910390f35b34801561027a57600080fd5b506102956004803603810190610290919061156e565b61081b565b005b3480156102a357600080fd5b506102be60048036038101906102b991906117e8565b6109bd565b6040516102cb91906118c6565b60405180910390f35b3480156102e057600080fd5b506102fb60048036038101906102f6919061149f565b6109d2565b005b6103176004803603810190610312919061156e565b610a1f565b005b34801561032557600080fd5b50610340600480360381019061033b919061149f565b610cae565b60405161034d91906114db565b60405180910390f35b610370600480360381019061036b919061149f565b610cc6565b005b34801561037e57600080fd5b50610399600480360381019061039491906118e1565b61108f565b6040516103a691906118c6565b60405180910390f35b3480156103bb57600080fd5b506103d660048036038101906103d19190611978565b6110a4565b005b60007f4e2312e0000000000000000000000000000000000000000000000000000000007bffffffffffffffffffffffffffffffffffffffffffffffffffffffff1916827bffffffffffffffffffffffffffffffffffffffffffffffffffffffff1916148061044b575061044a82611128565b5b9050919050565b7f000000000000000000000000000000000000000000000000000000000000000081565b61047e611192565b6004548111156104c557806040517fde4090830000000000000000000000000000000000000000000000000000000081526004016104bc9190611a28565b60405180910390fd5b80600460008282546104d79190611a85565b9250508190555060003373ffffffffffffffffffffffffffffffffffffffff168260405161050490611aea565b60006040518083038185875af1925050503d8060008114610541576040519150601f19603f3d011682016040523d82523d6000602084013e610546565b606091505b505090508061058a576040517f08c379a000000000000000000000000000000000000000000000000000000000815260040161058190611b5c565b60405180910390fd5b7f000000000000000000000000000000000000000000000000000000000000000073ffffffffffffffffffffffffffffffffffffffff1663a9059cbb336005546040518363ffffffff1660e01b81526004016105e7929190611b7c565b6020604051808303816000875af1158015610606573d6000803e3d6000fd5b505050506040513d601f19601f8201168201806040525081019061062a9190611bd1565b505050565b6000600860003373ffffffffffffffffffffffffffffffffffffffff1673ffffffffffffffffffffffffffffffffffffffff16815260200190815260200160002054905080600860003373ffffffffffffffffffffffffffffffffffffffff1673ffffffffffffffffffffffffffffffffffffffff16815260200190815260200160002060008282546106c29190611a85565b9250508190555060006003546064836106db9190611c2d565b6106e59190611c5e565b905080600560008282546106f99190611cb8565b925050819055507f000000000000000000000000000000000000000000000000000000000000000073ffffffffffffffffffffffffffffffffffffffff1663a9059cbb3383856107499190611a85565b6040518363ffffffff1660e01b8152600401610766929190611b7c565b6020604051808303816000875af1158015610785573d6000803e3d6000fd5b505050506040513d601f19601f820116820180604052508101906107a99190611bd1565b505050565b60025481565b60035481565b6107c2611192565b6107cc6000611210565b565b7f000000000000000000000000000000000000000000000000000000000000000081565b60008060009054906101000a900473ffffffffffffffffffffffffffffffffffffffff16905090565b807f000000000000000000000000000000000000000000000000000000000000000073ffffffffffffffffffffffffffffffffffffffff1662fdd58e33856040518363ffffffff1660e01b8152600401610876929190611b7c565b602060405180830381865afa158015610893573d6000803e3d6000fd5b505050506040513d601f19601f820116820180604052508101906108b79190611d23565b10156108ef576040517fad3a8b9e00000000000000000000000000000000000000000000000000000000815260040160405180910390fd5b7f000000000000000000000000000000000000000000000000000000000000000073ffffffffffffffffffffffffffffffffffffffff1663f5298aca3384846040518463ffffffff1660e01b815260040161094c93929190611d50565b600060405180830381600087803b15801561096657600080fd5b505af115801561097a573d6000803e3d6000fd5b505050507f0e7c315b5550f34978d3c22fcd4fee0871834baf6a96d3d1950951581ae4d3a78233836040516109b193929190611d87565b60405180910390a15050565b600063bc197c8160e01b905095945050505050565b6109da611192565b806002819055507fc740db4457383a409d8c38dc04c3b076ed9f75d83f581fc25cbc23937b8f05d560025482604051610a14929190611dbe565b60405180910390a150565b600254341015610a6a57346002546040517f5c237d3f000000000000000000000000000000000000000000000000000000008152600401610a61929190611e59565b60405180910390fd5b6002821015610ab057816040517fde409083000000000000000000000000000000000000000000000000000000008152600401610aa79190611ee1565b60405180910390fd5b6000610abc60016112d4565b9050816007600083815260200190815260200160002081905550336006600083815260200190815260200160002060006101000a81548173ffffffffffffffffffffffffffffffffffffffff021916908373ffffffffffffffffffffffffffffffffffffffff160217905550610b3260016112e2565b60025460046000828254610b469190611cb8565b925050819055507f000000000000000000000000000000000000000000000000000000000000000073ffffffffffffffffffffffffffffffffffffffff1663731133e93083866040518463ffffffff1660e01b8152600401610baa93929190611f32565b600060405180830381600087803b158015610bc457600080fd5b505af1158015610bd8573d6000803e3d6000fd5b505050507f000000000000000000000000000000000000000000000000000000000000000073ffffffffffffffffffffffffffffffffffffffff1663f242432a30338460016040518563ffffffff1660e01b8152600401610c3c9493929190611fb7565b600060405180830381600087803b158015610c5657600080fd5b505af1158015610c6a573d6000803e3d6000fd5b505050507f0e93c1eb4faa896a4795064479b0d97a92beef1d626046cf64126fb13a405229813384604051610ca193929190611d87565b60405180910390a1505050565b60076020528060005260406000206000915090505481565b60076000828152602001908152602001600020547f000000000000000000000000000000000000000000000000000000000000000073ffffffffffffffffffffffffffffffffffffffff166370a08231336040518263ffffffff1660e01b8152600401610d339190611553565b602060405180830381865afa158015610d50573d6000803e3d6000fd5b505050506040513d601f19601f82011682018060405250810190610d749190611d23565b1080610e1a575060017f000000000000000000000000000000000000000000000000000000000000000073ffffffffffffffffffffffffffffffffffffffff1662fdd58e30846040518363ffffffff1660e01b8152600401610dd7929190611b7c565b602060405180830381865afa158015610df4573d6000803e3d6000fd5b505050506040513d601f19601f82011682018060405250810190610e189190611d23565b105b15610e51576040517fad3a8b9e00000000000000000000000000000000000000000000000000000000815260040160405180910390fd5b60007f000000000000000000000000000000000000000000000000000000000000000073ffffffffffffffffffffffffffffffffffffffff166323b872dd333060076000878152602001908152602001600020546040518463ffffffff1660e01b8152600401610ec39392919061200f565b6020604051808303816000875af1158015610ee2573d6000803e3d6000fd5b505050506040513d601f19601f82011682018060405250810190610f069190611bd1565b9050801561108b576007600083815260200190815260200160002054600860006006600086815260200190815260200160002060009054906101000a900473ffffffffffffffffffffffffffffffffffffffff1673ffffffffffffffffffffffffffffffffffffffff1673ffffffffffffffffffffffffffffffffffffffff1681526020019081526020016000206000828254610fa39190611cb8565b925050819055507f000000000000000000000000000000000000000000000000000000000000000073ffffffffffffffffffffffffffffffffffffffff1663f242432a30338560016040518563ffffffff1660e01b815260040161100a9493929190611fb7565b600060405180830381600087803b15801561102457600080fd5b505af1158015611038573d6000803e3d6000fd5b505050507ff3b07963547ce2f7a8ed8d7b9cd50ac7c18007fe39d7a814cd70e87655323b2e8233600760008681526020019081526020016000205460405161108293929190611d87565b60405180910390a15b5050565b600063f23a6e6160e01b905095945050505050565b6110ac611192565b600073ffffffffffffffffffffffffffffffffffffffff168173ffffffffffffffffffffffffffffffffffffffff16141561111c576040517f08c379a0000000000000000000000000000000000000000000000000000000008152600401611113906120b8565b60405180910390fd5b61112581611210565b50565b60007f01ffc9a7000000000000000000000000000000000000000000000000000000007bffffffffffffffffffffffffffffffffffffffffffffffffffffffff1916827bffffffffffffffffffffffffffffffffffffffffffffffffffffffff1916149050919050565b61119a6112f8565b73ffffffffffffffffffffffffffffffffffffffff166111b86107f2565b73ffffffffffffffffffffffffffffffffffffffff161461120e576040517f08c379a000000000000000000000000000000000000000000000000000000000815260040161120590612124565b60405180910390fd5b565b60008060009054906101000a900473ffffffffffffffffffffffffffffffffffffffff169050816000806101000a81548173ffffffffffffffffffffffffffffffffffffffff021916908373ffffffffffffffffffffffffffffffffffffffff1602179055508173ffffffffffffffffffffffffffffffffffffffff168173ffffffffffffffffffffffffffffffffffffffff167f8be0079c531659141344cd1fd0a4f28419497f9722a3daafe3b4186f6b6457e060405160405180910390a35050565b600081600001549050919050565b6001816000016000828254019250508190555050565b600033905090565b6000604051905090565b600080fd5b600080fd5b60007fffffffff0000000000000000000000000000000000000000000000000000000082169050919050565b61134981611314565b811461135457600080fd5b50565b60008135905061136681611340565b92915050565b6000602082840312156113825761138161130a565b5b600061139084828501611357565b91505092915050565b60008115159050919050565b6113ae81611399565b82525050565b60006020820190506113c960008301846113a5565b92915050565b600073ffffffffffffffffffffffffffffffffffffffff82169050919050565b6000819050919050565b600061141461140f61140a846113cf565b6113ef565b6113cf565b9050919050565b6000611426826113f9565b9050919050565b60006114388261141b565b9050919050565b6114488161142d565b82525050565b6000602082019050611463600083018461143f565b92915050565b6000819050919050565b61147c81611469565b811461148757600080fd5b50565b60008135905061149981611473565b92915050565b6000602082840312156114b5576114b461130a565b5b60006114c38482850161148a565b91505092915050565b6114d581611469565b82525050565b60006020820190506114f060008301846114cc565b92915050565b60006115018261141b565b9050919050565b611511816114f6565b82525050565b600060208201905061152c6000830184611508565b92915050565b600061153d826113cf565b9050919050565b61154d81611532565b82525050565b60006020820190506115686000830184611544565b92915050565b600080604083850312156115855761158461130a565b5b60006115938582860161148a565b92505060206115a48582860161148a565b9150509250929050565b6115b781611532565b81146115c257600080fd5b50565b6000813590506115d4816115ae565b92915050565b600080fd5b6000601f19601f8301169050919050565b7f4e487b7100000000000000000000000000000000000000000000000000000000600052604160045260246000fd5b611628826115df565b810181811067ffffffffffffffff82111715611647576116466115f0565b5b80604052505050565b600061165a611300565b9050611666828261161f565b919050565b600067ffffffffffffffff821115611686576116856115f0565b5b602082029050602081019050919050565b600080fd5b60006116af6116aa8461166b565b611650565b905080838252602082019050602084028301858111156116d2576116d1611697565b5b835b818110156116fb57806116e7888261148a565b8452602084019350506020810190506116d4565b5050509392505050565b600082601f83011261171a576117196115da565b5b813561172a84826020860161169c565b91505092915050565b600080fd5b600067ffffffffffffffff821115611753576117526115f0565b5b61175c826115df565b9050602081019050919050565b82818337600083830152505050565b600061178b61178684611738565b611650565b9050828152602081018484840111156117a7576117a6611733565b5b6117b2848285611769565b509392505050565b600082601f8301126117cf576117ce6115da565b5b81356117df848260208601611778565b91505092915050565b600080600080600060a086880312156118045761180361130a565b5b6000611812888289016115c5565b9550506020611823888289016115c5565b945050604086013567ffffffffffffffff8111156118445761184361130f565b5b61185088828901611705565b935050606086013567ffffffffffffffff8111156118715761187061130f565b5b61187d88828901611705565b925050608086013567ffffffffffffffff81111561189e5761189d61130f565b5b6118aa888289016117ba565b9150509295509295909350565b6118c081611314565b82525050565b60006020820190506118db60008301846118b7565b92915050565b600080600080600060a086880312156118fd576118fc61130a565b5b600061190b888289016115c5565b955050602061191c888289016115c5565b945050604061192d8882890161148a565b935050606061193e8882890161148a565b925050608086013567ffffffffffffffff81111561195f5761195e61130f565b5b61196b888289016117ba565b9150509295509295909350565b60006020828403121561198e5761198d61130a565b5b600061199c848285016115c5565b91505092915050565b600082825260208201905092915050565b7f616d6f756e74206d757374206265203c3d20746f74616c20666565732070616960008201527f6420746f207468652073686f7000000000000000000000000000000000000000602082015250565b6000611a12602d836119a5565b9150611a1d826119b6565b604082019050919050565b6000604082019050611a3d60008301846114cc565b8181036020830152611a4e81611a05565b905092915050565b7f4e487b7100000000000000000000000000000000000000000000000000000000600052601160045260246000fd5b6000611a9082611469565b9150611a9b83611469565b925082821015611aae57611aad611a56565b5b828203905092915050565b600081905092915050565b50565b6000611ad4600083611ab9565b9150611adf82611ac4565b600082019050919050565b6000611af582611ac7565b9150819050919050565b600082825260208201905092915050565b7f6661696c656420746f2077696474687261772066756e64730000000000000000600082015250565b6000611b46601883611aff565b9150611b5182611b10565b602082019050919050565b60006020820190508181036000830152611b7581611b39565b9050919050565b6000604082019050611b916000830185611544565b611b9e60208301846114cc565b9392505050565b611bae81611399565b8114611bb957600080fd5b50565b600081519050611bcb81611ba5565b92915050565b600060208284031215611be757611be661130a565b5b6000611bf584828501611bbc565b91505092915050565b7f4e487b7100000000000000000000000000000000000000000000000000000000600052601260045260246000fd5b6000611c3882611469565b9150611c4383611469565b925082611c5357611c52611bfe565b5b828204905092915050565b6000611c6982611469565b9150611c7483611469565b9250817fffffffffffffffffffffffffffffffffffffffffffffffffffffffffffffffff0483118215151615611cad57611cac611a56565b5b828202905092915050565b6000611cc382611469565b9150611cce83611469565b9250827fffffffffffffffffffffffffffffffffffffffffffffffffffffffffffffffff03821115611d0357611d02611a56565b5b828201905092915050565b600081519050611d1d81611473565b92915050565b600060208284031215611d3957611d3861130a565b5b6000611d4784828501611d0e565b91505092915050565b6000606082019050611d656000830186611544565b611d7260208301856114cc565b611d7f60408301846114cc565b949350505050565b6000606082019050611d9c60008301866114cc565b611da96020830185611544565b611db660408301846114cc565b949350505050565b6000604082019050611dd360008301856114cc565b611de060208301846114cc565b9392505050565b7f6e6f7420656e6f7567682065746820746f2070726f63657373207472616e736160008201527f6374696f6e000000000000000000000000000000000000000000000000000000602082015250565b6000611e436025836119a5565b9150611e4e82611de7565b604082019050919050565b6000606082019050611e6e60008301856114cc565b611e7b60208301846114cc565b8181036040830152611e8c81611e36565b90509392505050565b7f616d6f756e74206d7573742062652067726561746572207468616e2032000000600082015250565b6000611ecb601d836119a5565b9150611ed682611e95565b602082019050919050565b6000604082019050611ef660008301846114cc565b8181036020830152611f0781611ebe565b905092915050565b6000611f1c6000836119a5565b9150611f2782611ac4565b600082019050919050565b6000608082019050611f476000830186611544565b611f5460208301856114cc565b611f6160408301846114cc565b8181036060830152611f7281611f0f565b9050949350505050565b6000819050919050565b6000611fa1611f9c611f9784611f7c565b6113ef565b611469565b9050919050565b611fb181611f86565b82525050565b600060a082019050611fcc6000830187611544565b611fd96020830186611544565b611fe660408301856114cc565b611ff36060830184611fa8565b818103608083015261200481611f0f565b905095945050505050565b60006060820190506120246000830186611544565b6120316020830185611544565b61203e60408301846114cc565b949350505050565b7f4f776e61626c653a206e6577206f776e657220697320746865207a65726f206160008201527f6464726573730000000000000000000000000000000000000000000000000000602082015250565b60006120a2602683611aff565b91506120ad82612046565b604082019050919050565b600060208201905081810360008301526120d181612095565b9050919050565b7f4f776e61626c653a2063616c6c6572206973206e6f7420746865206f776e6572600082015250565b600061210e602083611aff565b9150612119826120d8565b602082019050919050565b6000602082019050818103600083015261213d81612101565b905091905056fea26469706673582212208eb28fba8194004babaaf58d104e7b8af3c594b72ba8f4271b3b5c833c00353a64736f6c634300080a0033",
  "devdoc": {
    "kind": "dev",
    "methods": {
      "burn(uint256,uint256)": {
        "params": {
          "_amount": "- the amount of (token) with ID (_tokenId) to burn from (msg.sender)",
          "_tokenId": "- the token to burn"
        }
      },
      "constructor": {
        "params": {
          "_book_Contract": "- erc1155 thirdbook token contract",
          "_percentage_Claim": "- the percent reserved for shop per each Book purchase",
          "_shop_Fee": "- the fee in (wei) charged from a publisher",
          "_usd_Token_Contract": "- usdc address."
        }
      },
      "owner()": {
        "details": "Returns the address of the current owner."
      },
      "publish(uint256,uint256)": {
        "params": {
          "_amount": "- the amount of books to be published",
          "_price": "- the price of this book  specified in (wei)"
        }
      },
      "purchase(uint256)": {
        "params": {
          "_tokenId": "- the id of the (book) to purchase payable keyword - playing aroung with gas savings"
        }
      },
      "renounceOwnership()": {
        "details": "Leaves the contract without owner. It will not be possible to call `onlyOwner` functions anymore. Can only be called by the current owner. NOTE: Renouncing ownership will leave the contract without an owner, thereby removing any functionality that is only available to the owner."
      },
      "supportsInterface(bytes4)": {
        "details": "See {IERC165-supportsInterface}."
      },
      "transferOwnership(address)": {
        "details": "Transfers ownership of the contract to a new account (`newOwner`). Can only be called by the current owner."
      },
      "updateShopFee(uint256)": {
        "details": "updates the shop fee in wei to",
        "params": {
          "_newShopFee": "- the new fee to charge each publisher before minting"
        }
      },
      "withdraw(uint256)": {
        "params": {
          "_amount": "- amount of eth in wei to withdraw from this contract"
        }
      }
    },
    "version": 1
  },
  "userdoc": {
    "kind": "user",
    "methods": {
      "burn(uint256,uint256)": {
        "notice": "burns amount of nft with tokenid."
      },
      "claimTokens()": {
        "notice": "transfer all usdc earned from the purchase of `msg.sender` books to caller"
      },
      "publish(uint256,uint256)": {
        "notice": "mints books of (amount) to the shop"
      },
      "purchase(uint256)": {
        "notice": "purchase an nft (book) with usdc"
      },
      "withdraw(uint256)": {
        "notice": "withraws eth and usdc from this contract to the owner"
      }
    },
    "version": 1
  },
  "storageLayout": {
    "storage": [
      {
        "astId": 400,
        "contract": "contracts/ThirdBookShop.sol:ThirdBookShop",
        "label": "_owner",
        "offset": 0,
        "slot": "0",
        "type": "t_address"
      },
      {
        "astId": 3783,
        "contract": "contracts/ThirdBookShop.sol:ThirdBookShop",
        "label": "tokenIdCounter",
        "offset": 0,
        "slot": "1",
        "type": "t_struct(Counter)3229_storage"
      },
      {
        "astId": 3791,
        "contract": "contracts/ThirdBookShop.sol:ThirdBookShop",
        "label": "shopFee",
        "offset": 0,
        "slot": "2",
        "type": "t_uint256"
      },
      {
        "astId": 3793,
        "contract": "contracts/ThirdBookShop.sol:ThirdBookShop",
        "label": "percentageClaim",
        "offset": 0,
        "slot": "3",
        "type": "t_uint256"
      },
      {
        "astId": 3795,
        "contract": "contracts/ThirdBookShop.sol:ThirdBookShop",
        "label": "totalFeesPaid",
        "offset": 0,
        "slot": "4",
        "type": "t_uint256"
      },
      {
        "astId": 3797,
        "contract": "contracts/ThirdBookShop.sol:ThirdBookShop",
        "label": "totalShopClaim",
        "offset": 0,
        "slot": "5",
        "type": "t_uint256"
      },
      {
        "astId": 3801,
        "contract": "contracts/ThirdBookShop.sol:ThirdBookShop",
        "label": "s_feeReciever",
        "offset": 0,
        "slot": "6",
        "type": "t_mapping(t_uint256,t_address)"
      },
      {
        "astId": 3805,
        "contract": "contracts/ThirdBookShop.sol:ThirdBookShop",
        "label": "s_price",
        "offset": 0,
        "slot": "7",
        "type": "t_mapping(t_uint256,t_uint256)"
      },
      {
        "astId": 3809,
        "contract": "contracts/ThirdBookShop.sol:ThirdBookShop",
        "label": "s_feeRecieverClaim",
        "offset": 0,
        "slot": "8",
        "type": "t_mapping(t_address,t_uint256)"
      }
    ],
    "types": {
      "t_address": {
        "encoding": "inplace",
        "label": "address",
        "numberOfBytes": "20"
      },
      "t_mapping(t_address,t_uint256)": {
        "encoding": "mapping",
        "key": "t_address",
        "label": "mapping(address => uint256)",
        "numberOfBytes": "32",
        "value": "t_uint256"
      },
      "t_mapping(t_uint256,t_address)": {
        "encoding": "mapping",
        "key": "t_uint256",
        "label": "mapping(uint256 => address)",
        "numberOfBytes": "32",
        "value": "t_address"
      },
      "t_mapping(t_uint256,t_uint256)": {
        "encoding": "mapping",
        "key": "t_uint256",
        "label": "mapping(uint256 => uint256)",
        "numberOfBytes": "32",
        "value": "t_uint256"
      },
      "t_struct(Counter)3229_storage": {
        "encoding": "inplace",
        "label": "struct Counters.Counter",
        "members": [
          {
            "astId": 3228,
            "contract": "contracts/ThirdBookShop.sol:ThirdBookShop",
            "label": "_value",
            "offset": 0,
            "slot": "0",
            "type": "t_uint256"
          }
        ],
        "numberOfBytes": "32"
      },
      "t_uint256": {
        "encoding": "inplace",
        "label": "uint256",
        "numberOfBytes": "32"
      }
    }
  }
}