{
  "address": "0x052Cd85606C214B18e1f90aE3963421515b761aC",
  "abi": [
    {
      "inputs": [
        {
          "internalType": "uint256",
          "name": "_shop_Fee",
          "type": "uint256"
        },
        {
          "internalType": "uint256",
          "name": "_percentage_Claim",
          "type": "uint256"
        },
        {
          "internalType": "address",
          "name": "_book_Contract",
          "type": "address"
        },
        {
          "internalType": "address",
          "name": "_usd_Token_Contract",
          "type": "address"
        }
      ],
      "stateMutability": "nonpayable",
      "type": "constructor"
    },
    {
      "inputs": [
        {
          "internalType": "uint256",
          "name": "currentValue",
          "type": "uint256"
        },
        {
          "internalType": "uint256",
          "name": "expectedValue",
          "type": "uint256"
        },
        {
          "internalType": "bytes",
          "name": "reason",
          "type": "bytes"
        }
      ],
      "name": "FeeNotProcessed",
      "type": "error"
    },
    {
      "inputs": [
        {
          "internalType": "uint256",
          "name": "currentValue",
          "type": "uint256"
        },
        {
          "internalType": "bytes",
          "name": "expected",
          "type": "bytes"
        }
      ],
      "name": "InvalidOperation",
      "type": "error"
    },
    {
      "inputs": [],
      "name": "NotEnoughBalance",
      "type": "error"
    },
    {
      "anonymous": false,
      "inputs": [
        {
          "indexed": false,
          "internalType": "uint256",
          "name": "tokenId",
          "type": "uint256"
        },
        {
          "indexed": false,
          "internalType": "address",
          "name": "burner",
          "type": "address"
        },
        {
          "indexed": false,
          "internalType": "uint256",
          "name": "amount",
          "type": "uint256"
        }
      ],
      "name": "BurntBook",
      "type": "event"
    },
    {
      "anonymous": false,
      "inputs": [
        {
          "indexed": false,
          "internalType": "uint256",
          "name": "oldFee",
          "type": "uint256"
        },
        {
          "indexed": false,
          "internalType": "uint256",
          "name": "newFee",
          "type": "uint256"
        }
      ],
      "name": "ChangedShopFee",
      "type": "event"
    },
    {
      "anonymous": false,
      "inputs": [
        {
          "indexed": true,
          "internalType": "address",
          "name": "previousOwner",
          "type": "address"
        },
        {
          "indexed": true,
          "internalType": "address",
          "name": "newOwner",
          "type": "address"
        }
      ],
      "name": "OwnershipTransferred",
      "type": "event"
    },
    {
      "anonymous": false,
      "inputs": [
        {
          "indexed": false,
          "internalType": "uint256",
          "name": "tokenId",
          "type": "uint256"
        },
        {
          "indexed": false,
          "internalType": "address",
          "name": "publisher",
          "type": "address"
        },
        {
          "indexed": false,
          "internalType": "uint256",
          "name": "price",
          "type": "uint256"
        }
      ],
      "name": "PublishedBook",
      "type": "event"
    },
    {
      "anonymous": false,
      "inputs": [
        {
          "indexed": false,
          "internalType": "uint256",
          "name": "tokenId",
          "type": "uint256"
        },
        {
          "indexed": false,
          "internalType": "address",
          "name": "buyer",
          "type": "address"
        },
        {
          "indexed": false,
          "internalType": "uint256",
          "name": "price",
          "type": "uint256"
        }
      ],
      "name": "PurchasedBook",
      "type": "event"
    },
    {
      "inputs": [],
      "name": "bookContract",
      "outputs": [
        {
          "internalType": "contract IERC1155MintableBurnable",
          "name": "",
          "type": "address"
        }
      ],
      "stateMutability": "view",
      "type": "function"
    },
    {
      "inputs": [
        {
          "internalType": "uint256",
          "name": "_tokenId",
          "type": "uint256"
        },
        {
          "internalType": "uint256",
          "name": "_amount",
          "type": "uint256"
        }
      ],
      "name": "burn",
      "outputs": [],
      "stateMutability": "nonpayable",
      "type": "function"
    },
    {
      "inputs": [],
      "name": "claimTokens",
      "outputs": [],
      "stateMutability": "nonpayable",
      "type": "function"
    },
    {
      "inputs": [
        {
          "internalType": "address",
          "name": "",
          "type": "address"
        },
        {
          "internalType": "address",
          "name": "",
          "type": "address"
        },
        {
          "internalType": "uint256[]",
          "name": "",
          "type": "uint256[]"
        },
        {
          "internalType": "uint256[]",
          "name": "",
          "type": "uint256[]"
        },
        {
          "internalType": "bytes",
          "name": "",
          "type": "bytes"
        }
      ],
      "name": "onERC1155BatchReceived",
      "outputs": [
        {
          "internalType": "bytes4",
          "name": "",
          "type": "bytes4"
        }
      ],
      "stateMutability": "nonpayable",
      "type": "function"
    },
    {
      "inputs": [
        {
          "internalType": "address",
          "name": "",
          "type": "address"
        },
        {
          "internalType": "address",
          "name": "",
          "type": "address"
        },
        {
          "internalType": "uint256",
          "name": "",
          "type": "uint256"
        },
        {
          "internalType": "uint256",
          "name": "",
          "type": "uint256"
        },
        {
          "internalType": "bytes",
          "name": "",
          "type": "bytes"
        }
      ],
      "name": "onERC1155Received",
      "outputs": [
        {
          "internalType": "bytes4",
          "name": "",
          "type": "bytes4"
        }
      ],
      "stateMutability": "nonpayable",
      "type": "function"
    },
    {
      "inputs": [],
      "name": "owner",
      "outputs": [
        {
          "internalType": "address",
          "name": "",
          "type": "address"
        }
      ],
      "stateMutability": "view",
      "type": "function"
    },
    {
      "inputs": [],
      "name": "percentageClaim",
      "outputs": [
        {
          "internalType": "uint256",
          "name": "",
          "type": "uint256"
        }
      ],
      "stateMutability": "view",
      "type": "function"
    },
    {
      "inputs": [
        {
          "internalType": "uint256",
          "name": "_amount",
          "type": "uint256"
        },
        {
          "internalType": "uint256",
          "name": "_price",
          "type": "uint256"
        },
        {
          "internalType": "string",
          "name": "_uri",
          "type": "string"
        }
      ],
      "name": "publish",
      "outputs": [],
      "stateMutability": "payable",
      "type": "function"
    },
    {
      "inputs": [
        {
          "internalType": "uint256",
          "name": "_tokenId",
          "type": "uint256"
        }
      ],
      "name": "purchase",
      "outputs": [],
      "stateMutability": "payable",
      "type": "function"
    },
    {
      "inputs": [],
      "name": "renounceOwnership",
      "outputs": [],
      "stateMutability": "nonpayable",
      "type": "function"
    },
    {
      "inputs": [
        {
          "internalType": "uint256",
          "name": "",
          "type": "uint256"
        }
      ],
      "name": "s_price",
      "outputs": [
        {
          "internalType": "uint256",
          "name": "",
          "type": "uint256"
        }
      ],
      "stateMutability": "view",
      "type": "function"
    },
    {
      "inputs": [],
      "name": "shopFee",
      "outputs": [
        {
          "internalType": "uint256",
          "name": "",
          "type": "uint256"
        }
      ],
      "stateMutability": "view",
      "type": "function"
    },
    {
      "inputs": [
        {
          "internalType": "bytes4",
          "name": "interfaceId",
          "type": "bytes4"
        }
      ],
      "name": "supportsInterface",
      "outputs": [
        {
          "internalType": "bool",
          "name": "",
          "type": "bool"
        }
      ],
      "stateMutability": "view",
      "type": "function"
    },
    {
      "inputs": [
        {
          "internalType": "address",
          "name": "newOwner",
          "type": "address"
        }
      ],
      "name": "transferOwnership",
      "outputs": [],
      "stateMutability": "nonpayable",
      "type": "function"
    },
    {
      "inputs": [
        {
          "internalType": "uint256",
          "name": "_newShopFee",
          "type": "uint256"
        }
      ],
      "name": "updateShopFee",
      "outputs": [],
      "stateMutability": "nonpayable",
      "type": "function"
    },
    {
      "inputs": [],
      "name": "usdTokenContract",
      "outputs": [
        {
          "internalType": "contract IERC20",
          "name": "",
          "type": "address"
        }
      ],
      "stateMutability": "view",
      "type": "function"
    },
    {
      "inputs": [
        {
          "internalType": "uint256",
          "name": "_amount",
          "type": "uint256"
        }
      ],
      "name": "withdraw",
      "outputs": [],
      "stateMutability": "nonpayable",
      "type": "function"
    }
  ],
  "transactionHash": "0x701dfc6e96dcac4864bd6ae9d2df5e8cb38e772a35764c303e9107491bd6349b",
  "args": [
    "10000000000000000",
    2,
    "0x9D0FfB77f552cb87DCf8D4ABBD4C63e14A7C924c",
    "0x07865c6e87b9f70255377e024ace6630c1eaa37f"
  ],
  "numDeployments": 1,
  "solcInputHash": "0cb5f82a46e05a0632013aaec382e826",
  "bytecode": "0x60c06040523480156200001157600080fd5b50604051620026f7380380620026f7833981810160405281019062000037919062000248565b620000576200004b620000d760201b60201c565b620000df60201b60201c565b83600281905550826003819055508173ffffffffffffffffffffffffffffffffffffffff1660808173ffffffffffffffffffffffffffffffffffffffff16815250508073ffffffffffffffffffffffffffffffffffffffff1660a08173ffffffffffffffffffffffffffffffffffffffff168152505050505050620002ba565b600033905090565b60008060009054906101000a900473ffffffffffffffffffffffffffffffffffffffff169050816000806101000a81548173ffffffffffffffffffffffffffffffffffffffff021916908373ffffffffffffffffffffffffffffffffffffffff1602179055508173ffffffffffffffffffffffffffffffffffffffff168173ffffffffffffffffffffffffffffffffffffffff167f8be0079c531659141344cd1fd0a4f28419497f9722a3daafe3b4186f6b6457e060405160405180910390a35050565b600080fd5b6000819050919050565b620001bd81620001a8565b8114620001c957600080fd5b50565b600081519050620001dd81620001b2565b92915050565b600073ffffffffffffffffffffffffffffffffffffffff82169050919050565b60006200021082620001e3565b9050919050565b620002228162000203565b81146200022e57600080fd5b50565b600081519050620002428162000217565b92915050565b60008060008060808587031215620002655762000264620001a3565b5b60006200027587828801620001cc565b94505060206200028887828801620001cc565b93505060406200029b8782880162000231565b9250506060620002ae8782880162000231565b91505092959194509250565b60805160a0516123ca6200032d600039600081816104540152818161058c0152818161070201528181610d750152610eee0152600081816107d00152818161094b015281816109da01528181610ab101528181610b4601528181610c1901528181610e18015261104501526123ca6000f3fe6080604052600436106100fe5760003560e01c80638da5cb5b11610095578063c2b84d8011610064578063c2b84d80146102f0578063e870138f14610319578063efef39a114610356578063f23a6e6114610372578063f2fde38b146103af576100fe565b80638da5cb5b146102435780639e12019a1461026e578063b390c0ab1461028a578063bc197c81146102b3576100fe565b80635b7cf14a116100d15780635b7cf14a146101ab5780636fabc501146101d6578063715018a6146102015780637315103714610218576100fe565b806301ffc9a7146101035780632589a9d0146101405780632e1a7d4d1461016b57806348c54b9d14610194575b600080fd5b34801561010f57600080fd5b5061012a60048036038101906101259190611405565b6103d8565b604051610137919061144d565b60405180910390f35b34801561014c57600080fd5b50610155610452565b60405161016291906114e7565b60405180910390f35b34801561017757600080fd5b50610192600480360381019061018d9190611538565b610476565b005b3480156101a057600080fd5b506101a961062f565b005b3480156101b757600080fd5b506101c06107ae565b6040516101cd9190611574565b60405180910390f35b3480156101e257600080fd5b506101eb6107b4565b6040516101f89190611574565b60405180910390f35b34801561020d57600080fd5b506102166107ba565b005b34801561022457600080fd5b5061022d6107ce565b60405161023a91906115b0565b60405180910390f35b34801561024f57600080fd5b506102586107f2565b60405161026591906115ec565b60405180910390f35b6102886004803603810190610283919061174d565b61081b565b005b34801561029657600080fd5b506102b160048036038101906102ac91906117bc565b610b43565b005b3480156102bf57600080fd5b506102da60048036038101906102d59190611991565b610ce5565b6040516102e79190611a6f565b60405180910390f35b3480156102fc57600080fd5b5061031760048036038101906103129190611538565b610cfa565b005b34801561032557600080fd5b50610340600480360381019061033b9190611538565b610d47565b60405161034d9190611574565b60405180910390f35b610370600480360381019061036b9190611538565b610d5f565b005b34801561037e57600080fd5b5061039960048036038101906103949190611a8a565b611128565b6040516103a69190611a6f565b60405180910390f35b3480156103bb57600080fd5b506103d660048036038101906103d19190611b21565b61113d565b005b60007f4e2312e0000000000000000000000000000000000000000000000000000000007bffffffffffffffffffffffffffffffffffffffffffffffffffffffff1916827bffffffffffffffffffffffffffffffffffffffffffffffffffffffff1916148061044b575061044a826111c1565b5b9050919050565b7f000000000000000000000000000000000000000000000000000000000000000081565b61047e61122b565b6004548111156104c557806040517fde4090830000000000000000000000000000000000000000000000000000000081526004016104bc9190611bd1565b60405180910390fd5b80600460008282546104d79190611c2e565b9250508190555060003373ffffffffffffffffffffffffffffffffffffffff168260405161050490611c93565b60006040518083038185875af1925050503d8060008114610541576040519150601f19603f3d011682016040523d82523d6000602084013e610546565b606091505b505090508061058a576040517f08c379a000000000000000000000000000000000000000000000000000000000815260040161058190611d05565b60405180910390fd5b7f000000000000000000000000000000000000000000000000000000000000000073ffffffffffffffffffffffffffffffffffffffff1663a9059cbb336005546040518363ffffffff1660e01b81526004016105e7929190611d25565b6020604051808303816000875af1158015610606573d6000803e3d6000fd5b505050506040513d601f19601f8201168201806040525081019061062a9190611d7a565b505050565b6000600860003373ffffffffffffffffffffffffffffffffffffffff1673ffffffffffffffffffffffffffffffffffffffff16815260200190815260200160002054905080600860003373ffffffffffffffffffffffffffffffffffffffff1673ffffffffffffffffffffffffffffffffffffffff16815260200190815260200160002060008282546106c29190611c2e565b9250508190555060006003546064836106db9190611dd6565b6106e59190611e07565b905080600560008282546106f99190611e61565b925050819055507f000000000000000000000000000000000000000000000000000000000000000073ffffffffffffffffffffffffffffffffffffffff1663a9059cbb3383856107499190611c2e565b6040518363ffffffff1660e01b8152600401610766929190611d25565b6020604051808303816000875af1158015610785573d6000803e3d6000fd5b505050506040513d601f19601f820116820180604052508101906107a99190611d7a565b505050565b60025481565b60035481565b6107c261122b565b6107cc60006112a9565b565b7f000000000000000000000000000000000000000000000000000000000000000081565b60008060009054906101000a900473ffffffffffffffffffffffffffffffffffffffff16905090565b60025434101561086657346002546040517f5c237d3f00000000000000000000000000000000000000000000000000000000815260040161085d929190611f29565b60405180910390fd5b60028310156108ac57826040517fde4090830000000000000000000000000000000000000000000000000000000081526004016108a39190611fb1565b60405180910390fd5b60006108b8600161136d565b9050826007600083815260200190815260200160002081905550336006600083815260200190815260200160002060006101000a81548173ffffffffffffffffffffffffffffffffffffffff021916908373ffffffffffffffffffffffffffffffffffffffff16021790555061092e600161137b565b600254600460008282546109429190611e61565b925050819055507f000000000000000000000000000000000000000000000000000000000000000073ffffffffffffffffffffffffffffffffffffffff1663731133e93083876040518463ffffffff1660e01b81526004016109a693929190612002565b600060405180830381600087803b1580156109c057600080fd5b505af11580156109d4573d6000803e3d6000fd5b505050507f000000000000000000000000000000000000000000000000000000000000000073ffffffffffffffffffffffffffffffffffffffff1663f242432a30338460016040518563ffffffff1660e01b8152600401610a389493929190612087565b600060405180830381600087803b158015610a5257600080fd5b505af1158015610a66573d6000803e3d6000fd5b505050507f0e93c1eb4faa896a4795064479b0d97a92beef1d626046cf64126fb13a405229813385604051610a9d939291906120df565b60405180910390a1600082511115610b3d577f000000000000000000000000000000000000000000000000000000000000000073ffffffffffffffffffffffffffffffffffffffff166357f7789e82846040518363ffffffff1660e01b8152600401610b0a92919061218d565b600060405180830381600087803b158015610b2457600080fd5b505af1158015610b38573d6000803e3d6000fd5b505050505b50505050565b807f000000000000000000000000000000000000000000000000000000000000000073ffffffffffffffffffffffffffffffffffffffff1662fdd58e33856040518363ffffffff1660e01b8152600401610b9e929190611d25565b602060405180830381865afa158015610bbb573d6000803e3d6000fd5b505050506040513d601f19601f82011682018060405250810190610bdf91906121d2565b1015610c17576040517fad3a8b9e00000000000000000000000000000000000000000000000000000000815260040160405180910390fd5b7f000000000000000000000000000000000000000000000000000000000000000073ffffffffffffffffffffffffffffffffffffffff1663f5298aca3384846040518463ffffffff1660e01b8152600401610c74939291906121ff565b600060405180830381600087803b158015610c8e57600080fd5b505af1158015610ca2573d6000803e3d6000fd5b505050507f0e7c315b5550f34978d3c22fcd4fee0871834baf6a96d3d1950951581ae4d3a7823383604051610cd9939291906120df565b60405180910390a15050565b600063bc197c8160e01b905095945050505050565b610d0261122b565b806002819055507fc740db4457383a409d8c38dc04c3b076ed9f75d83f581fc25cbc23937b8f05d560025482604051610d3c929190612236565b60405180910390a150565b60076020528060005260406000206000915090505481565b60076000828152602001908152602001600020547f000000000000000000000000000000000000000000000000000000000000000073ffffffffffffffffffffffffffffffffffffffff166370a08231336040518263ffffffff1660e01b8152600401610dcc91906115ec565b602060405180830381865afa158015610de9573d6000803e3d6000fd5b505050506040513d601f19601f82011682018060405250810190610e0d91906121d2565b1080610eb3575060017f000000000000000000000000000000000000000000000000000000000000000073ffffffffffffffffffffffffffffffffffffffff1662fdd58e30846040518363ffffffff1660e01b8152600401610e70929190611d25565b602060405180830381865afa158015610e8d573d6000803e3d6000fd5b505050506040513d601f19601f82011682018060405250810190610eb191906121d2565b105b15610eea576040517fad3a8b9e00000000000000000000000000000000000000000000000000000000815260040160405180910390fd5b60007f000000000000000000000000000000000000000000000000000000000000000073ffffffffffffffffffffffffffffffffffffffff166323b872dd333060076000878152602001908152602001600020546040518463ffffffff1660e01b8152600401610f5c9392919061225f565b6020604051808303816000875af1158015610f7b573d6000803e3d6000fd5b505050506040513d601f19601f82011682018060405250810190610f9f9190611d7a565b90508015611124576007600083815260200190815260200160002054600860006006600086815260200190815260200160002060009054906101000a900473ffffffffffffffffffffffffffffffffffffffff1673ffffffffffffffffffffffffffffffffffffffff1673ffffffffffffffffffffffffffffffffffffffff168152602001908152602001600020600082825461103c9190611e61565b925050819055507f000000000000000000000000000000000000000000000000000000000000000073ffffffffffffffffffffffffffffffffffffffff1663f242432a30338560016040518563ffffffff1660e01b81526004016110a39493929190612087565b600060405180830381600087803b1580156110bd57600080fd5b505af11580156110d1573d6000803e3d6000fd5b505050507ff3b07963547ce2f7a8ed8d7b9cd50ac7c18007fe39d7a814cd70e87655323b2e8233600760008681526020019081526020016000205460405161111b939291906120df565b60405180910390a15b5050565b600063f23a6e6160e01b905095945050505050565b61114561122b565b600073ffffffffffffffffffffffffffffffffffffffff168173ffffffffffffffffffffffffffffffffffffffff1614156111b5576040517f08c379a00000000000000000000000000000000000000000000000000000000081526004016111ac90612308565b60405180910390fd5b6111be816112a9565b50565b60007f01ffc9a7000000000000000000000000000000000000000000000000000000007bffffffffffffffffffffffffffffffffffffffffffffffffffffffff1916827bffffffffffffffffffffffffffffffffffffffffffffffffffffffff1916149050919050565b611233611391565b73ffffffffffffffffffffffffffffffffffffffff166112516107f2565b73ffffffffffffffffffffffffffffffffffffffff16146112a7576040517f08c379a000000000000000000000000000000000000000000000000000000000815260040161129e90612374565b60405180910390fd5b565b60008060009054906101000a900473ffffffffffffffffffffffffffffffffffffffff169050816000806101000a81548173ffffffffffffffffffffffffffffffffffffffff021916908373ffffffffffffffffffffffffffffffffffffffff1602179055508173ffffffffffffffffffffffffffffffffffffffff168173ffffffffffffffffffffffffffffffffffffffff167f8be0079c531659141344cd1fd0a4f28419497f9722a3daafe3b4186f6b6457e060405160405180910390a35050565b600081600001549050919050565b6001816000016000828254019250508190555050565b600033905090565b6000604051905090565b600080fd5b600080fd5b60007fffffffff0000000000000000000000000000000000000000000000000000000082169050919050565b6113e2816113ad565b81146113ed57600080fd5b50565b6000813590506113ff816113d9565b92915050565b60006020828403121561141b5761141a6113a3565b5b6000611429848285016113f0565b91505092915050565b60008115159050919050565b61144781611432565b82525050565b6000602082019050611462600083018461143e565b92915050565b600073ffffffffffffffffffffffffffffffffffffffff82169050919050565b6000819050919050565b60006114ad6114a86114a384611468565b611488565b611468565b9050919050565b60006114bf82611492565b9050919050565b60006114d1826114b4565b9050919050565b6114e1816114c6565b82525050565b60006020820190506114fc60008301846114d8565b92915050565b6000819050919050565b61151581611502565b811461152057600080fd5b50565b6000813590506115328161150c565b92915050565b60006020828403121561154e5761154d6113a3565b5b600061155c84828501611523565b91505092915050565b61156e81611502565b82525050565b60006020820190506115896000830184611565565b92915050565b600061159a826114b4565b9050919050565b6115aa8161158f565b82525050565b60006020820190506115c560008301846115a1565b92915050565b60006115d682611468565b9050919050565b6115e6816115cb565b82525050565b600060208201905061160160008301846115dd565b92915050565b600080fd5b600080fd5b6000601f19601f8301169050919050565b7f4e487b7100000000000000000000000000000000000000000000000000000000600052604160045260246000fd5b61165a82611611565b810181811067ffffffffffffffff8211171561167957611678611622565b5b80604052505050565b600061168c611399565b90506116988282611651565b919050565b600067ffffffffffffffff8211156116b8576116b7611622565b5b6116c182611611565b9050602081019050919050565b82818337600083830152505050565b60006116f06116eb8461169d565b611682565b90508281526020810184848401111561170c5761170b61160c565b5b6117178482856116ce565b509392505050565b600082601f83011261173457611733611607565b5b81356117448482602086016116dd565b91505092915050565b600080600060608486031215611766576117656113a3565b5b600061177486828701611523565b935050602061178586828701611523565b925050604084013567ffffffffffffffff8111156117a6576117a56113a8565b5b6117b28682870161171f565b9150509250925092565b600080604083850312156117d3576117d26113a3565b5b60006117e185828601611523565b92505060206117f285828601611523565b9150509250929050565b611805816115cb565b811461181057600080fd5b50565b600081359050611822816117fc565b92915050565b600067ffffffffffffffff82111561184357611842611622565b5b602082029050602081019050919050565b600080fd5b600061186c61186784611828565b611682565b9050808382526020820190506020840283018581111561188f5761188e611854565b5b835b818110156118b857806118a48882611523565b845260208401935050602081019050611891565b5050509392505050565b600082601f8301126118d7576118d6611607565b5b81356118e7848260208601611859565b91505092915050565b600067ffffffffffffffff82111561190b5761190a611622565b5b61191482611611565b9050602081019050919050565b600061193461192f846118f0565b611682565b9050828152602081018484840111156119505761194f61160c565b5b61195b8482856116ce565b509392505050565b600082601f83011261197857611977611607565b5b8135611988848260208601611921565b91505092915050565b600080600080600060a086880312156119ad576119ac6113a3565b5b60006119bb88828901611813565b95505060206119cc88828901611813565b945050604086013567ffffffffffffffff8111156119ed576119ec6113a8565b5b6119f9888289016118c2565b935050606086013567ffffffffffffffff811115611a1a57611a196113a8565b5b611a26888289016118c2565b925050608086013567ffffffffffffffff811115611a4757611a466113a8565b5b611a5388828901611963565b9150509295509295909350565b611a69816113ad565b82525050565b6000602082019050611a846000830184611a60565b92915050565b600080600080600060a08688031215611aa657611aa56113a3565b5b6000611ab488828901611813565b9550506020611ac588828901611813565b9450506040611ad688828901611523565b9350506060611ae788828901611523565b925050608086013567ffffffffffffffff811115611b0857611b076113a8565b5b611b1488828901611963565b9150509295509295909350565b600060208284031215611b3757611b366113a3565b5b6000611b4584828501611813565b91505092915050565b600082825260208201905092915050565b7f616d6f756e74206d757374206265203c3d20746f74616c20666565732070616960008201527f6420746f207468652073686f7000000000000000000000000000000000000000602082015250565b6000611bbb602d83611b4e565b9150611bc682611b5f565b604082019050919050565b6000604082019050611be66000830184611565565b8181036020830152611bf781611bae565b905092915050565b7f4e487b7100000000000000000000000000000000000000000000000000000000600052601160045260246000fd5b6000611c3982611502565b9150611c4483611502565b925082821015611c5757611c56611bff565b5b828203905092915050565b600081905092915050565b50565b6000611c7d600083611c62565b9150611c8882611c6d565b600082019050919050565b6000611c9e82611c70565b9150819050919050565b600082825260208201905092915050565b7f6661696c656420746f2077696474687261772066756e64730000000000000000600082015250565b6000611cef601883611ca8565b9150611cfa82611cb9565b602082019050919050565b60006020820190508181036000830152611d1e81611ce2565b9050919050565b6000604082019050611d3a60008301856115dd565b611d476020830184611565565b9392505050565b611d5781611432565b8114611d6257600080fd5b50565b600081519050611d7481611d4e565b92915050565b600060208284031215611d9057611d8f6113a3565b5b6000611d9e84828501611d65565b91505092915050565b7f4e487b7100000000000000000000000000000000000000000000000000000000600052601260045260246000fd5b6000611de182611502565b9150611dec83611502565b925082611dfc57611dfb611da7565b5b828204905092915050565b6000611e1282611502565b9150611e1d83611502565b9250817fffffffffffffffffffffffffffffffffffffffffffffffffffffffffffffffff0483118215151615611e5657611e55611bff565b5b828202905092915050565b6000611e6c82611502565b9150611e7783611502565b9250827fffffffffffffffffffffffffffffffffffffffffffffffffffffffffffffffff03821115611eac57611eab611bff565b5b828201905092915050565b7f6e6f7420656e6f7567682065746820746f2070726f63657373207472616e736160008201527f6374696f6e000000000000000000000000000000000000000000000000000000602082015250565b6000611f13602583611b4e565b9150611f1e82611eb7565b604082019050919050565b6000606082019050611f3e6000830185611565565b611f4b6020830184611565565b8181036040830152611f5c81611f06565b90509392505050565b7f616d6f756e74206d7573742062652067726561746572207468616e2032000000600082015250565b6000611f9b601d83611b4e565b9150611fa682611f65565b602082019050919050565b6000604082019050611fc66000830184611565565b8181036020830152611fd781611f8e565b905092915050565b6000611fec600083611b4e565b9150611ff782611c6d565b600082019050919050565b600060808201905061201760008301866115dd565b6120246020830185611565565b6120316040830184611565565b818103606083015261204281611fdf565b9050949350505050565b6000819050919050565b600061207161206c6120678461204c565b611488565b611502565b9050919050565b61208181612056565b82525050565b600060a08201905061209c60008301876115dd565b6120a960208301866115dd565b6120b66040830185611565565b6120c36060830184612078565b81810360808301526120d481611fdf565b905095945050505050565b60006060820190506120f46000830186611565565b61210160208301856115dd565b61210e6040830184611565565b949350505050565b600081519050919050565b60005b8381101561213f578082015181840152602081019050612124565b8381111561214e576000848401525b50505050565b600061215f82612116565b6121698185611ca8565b9350612179818560208601612121565b61218281611611565b840191505092915050565b60006040820190506121a26000830185611565565b81810360208301526121b48184612154565b90509392505050565b6000815190506121cc8161150c565b92915050565b6000602082840312156121e8576121e76113a3565b5b60006121f6848285016121bd565b91505092915050565b600060608201905061221460008301866115dd565b6122216020830185611565565b61222e6040830184611565565b949350505050565b600060408201905061224b6000830185611565565b6122586020830184611565565b9392505050565b600060608201905061227460008301866115dd565b61228160208301856115dd565b61228e6040830184611565565b949350505050565b7f4f776e61626c653a206e6577206f776e657220697320746865207a65726f206160008201527f6464726573730000000000000000000000000000000000000000000000000000602082015250565b60006122f2602683611ca8565b91506122fd82612296565b604082019050919050565b60006020820190508181036000830152612321816122e5565b9050919050565b7f4f776e61626c653a2063616c6c6572206973206e6f7420746865206f776e6572600082015250565b600061235e602083611ca8565b915061236982612328565b602082019050919050565b6000602082019050818103600083015261238d81612351565b905091905056fea26469706673582212209da608cd2492e5842e4720beff603a0905d054f32b15c5c12b6ac9f7e5c86df964736f6c634300080a0033",
  "devdoc": {
    "kind": "dev",
    "methods": {
      "burn(uint256,uint256)": {
        "params": {
          "_amount": "- the amount of (token) with ID (_tokenId) to burn from (msg.sender)",
          "_tokenId": "- the token to burn"
        }
      },
      "constructor": {
        "params": {
          "_book_Contract": "- erc1155 thirdbook token contract",
          "_percentage_Claim": "- the percent reserved for shop per each Book purchase",
          "_shop_Fee": "- the fee in (wei) charged from a publisher",
          "_usd_Token_Contract": "- usdc address."
        }
      },
      "owner()": {
        "details": "Returns the address of the current owner."
      },
      "publish(uint256,uint256,string)": {
        "params": {
          "_amount": "- the amount of books to be published",
          "_price": "- the price of this book  specified in (wei)"
        }
      },
      "purchase(uint256)": {
        "params": {
          "_tokenId": "- the id of the (book) to purchase payable keyword - playing aroung with gas savings"
        }
      },
      "renounceOwnership()": {
        "details": "Leaves the contract without owner. It will not be possible to call `onlyOwner` functions anymore. Can only be called by the current owner. NOTE: Renouncing ownership will leave the contract without an owner, thereby removing any functionality that is only available to the owner."
      },
      "supportsInterface(bytes4)": {
        "details": "See {IERC165-supportsInterface}."
      },
      "transferOwnership(address)": {
        "details": "Transfers ownership of the contract to a new account (`newOwner`). Can only be called by the current owner."
      },
      "updateShopFee(uint256)": {
        "details": "updates the shop fee in wei to",
        "params": {
          "_newShopFee": "- the new fee to charge each publisher before minting"
        }
      },
      "withdraw(uint256)": {
        "params": {
          "_amount": "- amount of eth in wei to withdraw from this contract"
        }
      }
    },
    "version": 1
  },
  "userdoc": {
    "kind": "user",
    "methods": {
      "burn(uint256,uint256)": {
        "notice": "burns amount of nft with tokenid."
      },
      "claimTokens()": {
        "notice": "transfer all usdc earned from the purchase of `msg.sender` books to caller"
      },
      "publish(uint256,uint256,string)": {
        "notice": "mints books of (amount) to the shop"
      },
      "purchase(uint256)": {
        "notice": "purchase an nft (book) with usdc"
      },
      "withdraw(uint256)": {
        "notice": "withraws eth and usdc from this contract to the owner"
      }
    },
    "version": 1
  },
  "storageLayout": {
    "storage": [
      {
        "astId": 7,
        "contract": "contracts/ThirdBookShop.sol:ThirdBookShop",
        "label": "_owner",
        "offset": 0,
        "slot": "0",
        "type": "t_address"
      },
      {
        "astId": 650,
        "contract": "contracts/ThirdBookShop.sol:ThirdBookShop",
        "label": "tokenIdCounter",
        "offset": 0,
        "slot": "1",
        "type": "t_struct(Counter)466_storage"
      },
      {
        "astId": 658,
        "contract": "contracts/ThirdBookShop.sol:ThirdBookShop",
        "label": "shopFee",
        "offset": 0,
        "slot": "2",
        "type": "t_uint256"
      },
      {
        "astId": 660,
        "contract": "contracts/ThirdBookShop.sol:ThirdBookShop",
        "label": "percentageClaim",
        "offset": 0,
        "slot": "3",
        "type": "t_uint256"
      },
      {
        "astId": 662,
        "contract": "contracts/ThirdBookShop.sol:ThirdBookShop",
        "label": "totalFeesPaid",
        "offset": 0,
        "slot": "4",
        "type": "t_uint256"
      },
      {
        "astId": 664,
        "contract": "contracts/ThirdBookShop.sol:ThirdBookShop",
        "label": "totalShopClaim",
        "offset": 0,
        "slot": "5",
        "type": "t_uint256"
      },
      {
        "astId": 668,
        "contract": "contracts/ThirdBookShop.sol:ThirdBookShop",
        "label": "s_feeReciever",
        "offset": 0,
        "slot": "6",
        "type": "t_mapping(t_uint256,t_address)"
      },
      {
        "astId": 672,
        "contract": "contracts/ThirdBookShop.sol:ThirdBookShop",
        "label": "s_price",
        "offset": 0,
        "slot": "7",
        "type": "t_mapping(t_uint256,t_uint256)"
      },
      {
        "astId": 676,
        "contract": "contracts/ThirdBookShop.sol:ThirdBookShop",
        "label": "s_feeRecieverClaim",
        "offset": 0,
        "slot": "8",
        "type": "t_mapping(t_address,t_uint256)"
      }
    ],
    "types": {
      "t_address": {
        "encoding": "inplace",
        "label": "address",
        "numberOfBytes": "20"
      },
      "t_mapping(t_address,t_uint256)": {
        "encoding": "mapping",
        "key": "t_address",
        "label": "mapping(address => uint256)",
        "numberOfBytes": "32",
        "value": "t_uint256"
      },
      "t_mapping(t_uint256,t_address)": {
        "encoding": "mapping",
        "key": "t_uint256",
        "label": "mapping(uint256 => address)",
        "numberOfBytes": "32",
        "value": "t_address"
      },
      "t_mapping(t_uint256,t_uint256)": {
        "encoding": "mapping",
        "key": "t_uint256",
        "label": "mapping(uint256 => uint256)",
        "numberOfBytes": "32",
        "value": "t_uint256"
      },
      "t_struct(Counter)466_storage": {
        "encoding": "inplace",
        "label": "struct Counters.Counter",
        "members": [
          {
            "astId": 465,
            "contract": "contracts/ThirdBookShop.sol:ThirdBookShop",
            "label": "_value",
            "offset": 0,
            "slot": "0",
            "type": "t_uint256"
          }
        ],
        "numberOfBytes": "32"
      },
      "t_uint256": {
        "encoding": "inplace",
        "label": "uint256",
        "numberOfBytes": "32"
      }
    }
  }
}