{
  "address": "0x51866aA62DDD1b1Df188A2E3202846AC980895C1",
  "abi": [
    {
      "inputs": [],
      "stateMutability": "nonpayable",
      "type": "constructor"
    },
    {
      "anonymous": false,
      "inputs": [
        {
          "indexed": true,
          "internalType": "address",
          "name": "account",
          "type": "address"
        },
        {
          "indexed": true,
          "internalType": "address",
          "name": "operator",
          "type": "address"
        },
        {
          "indexed": false,
          "internalType": "bool",
          "name": "approved",
          "type": "bool"
        }
      ],
      "name": "ApprovalForAll",
      "type": "event"
    },
    {
      "anonymous": false,
      "inputs": [
        {
          "indexed": true,
          "internalType": "bytes32",
          "name": "role",
          "type": "bytes32"
        },
        {
          "indexed": true,
          "internalType": "bytes32",
          "name": "previousAdminRole",
          "type": "bytes32"
        },
        {
          "indexed": true,
          "internalType": "bytes32",
          "name": "newAdminRole",
          "type": "bytes32"
        }
      ],
      "name": "RoleAdminChanged",
      "type": "event"
    },
    {
      "anonymous": false,
      "inputs": [
        {
          "indexed": true,
          "internalType": "bytes32",
          "name": "role",
          "type": "bytes32"
        },
        {
          "indexed": true,
          "internalType": "address",
          "name": "account",
          "type": "address"
        },
        {
          "indexed": true,
          "internalType": "address",
          "name": "sender",
          "type": "address"
        }
      ],
      "name": "RoleGranted",
      "type": "event"
    },
    {
      "anonymous": false,
      "inputs": [
        {
          "indexed": true,
          "internalType": "bytes32",
          "name": "role",
          "type": "bytes32"
        },
        {
          "indexed": true,
          "internalType": "address",
          "name": "account",
          "type": "address"
        },
        {
          "indexed": true,
          "internalType": "address",
          "name": "sender",
          "type": "address"
        }
      ],
      "name": "RoleRevoked",
      "type": "event"
    },
    {
      "anonymous": false,
      "inputs": [
        {
          "indexed": true,
          "internalType": "address",
          "name": "operator",
          "type": "address"
        },
        {
          "indexed": true,
          "internalType": "address",
          "name": "from",
          "type": "address"
        },
        {
          "indexed": true,
          "internalType": "address",
          "name": "to",
          "type": "address"
        },
        {
          "indexed": false,
          "internalType": "uint256[]",
          "name": "ids",
          "type": "uint256[]"
        },
        {
          "indexed": false,
          "internalType": "uint256[]",
          "name": "values",
          "type": "uint256[]"
        }
      ],
      "name": "TransferBatch",
      "type": "event"
    },
    {
      "anonymous": false,
      "inputs": [
        {
          "indexed": true,
          "internalType": "address",
          "name": "operator",
          "type": "address"
        },
        {
          "indexed": true,
          "internalType": "address",
          "name": "from",
          "type": "address"
        },
        {
          "indexed": true,
          "internalType": "address",
          "name": "to",
          "type": "address"
        },
        {
          "indexed": false,
          "internalType": "uint256",
          "name": "id",
          "type": "uint256"
        },
        {
          "indexed": false,
          "internalType": "uint256",
          "name": "value",
          "type": "uint256"
        }
      ],
      "name": "TransferSingle",
      "type": "event"
    },
    {
      "anonymous": false,
      "inputs": [
        {
          "indexed": false,
          "internalType": "string",
          "name": "value",
          "type": "string"
        },
        {
          "indexed": true,
          "internalType": "uint256",
          "name": "id",
          "type": "uint256"
        }
      ],
      "name": "URI",
      "type": "event"
    },
    {
      "inputs": [],
      "name": "DEFAULT_ADMIN_ROLE",
      "outputs": [
        {
          "internalType": "bytes32",
          "name": "",
          "type": "bytes32"
        }
      ],
      "stateMutability": "view",
      "type": "function"
    },
    {
      "inputs": [],
      "name": "MINTER_ROLE",
      "outputs": [
        {
          "internalType": "bytes32",
          "name": "",
          "type": "bytes32"
        }
      ],
      "stateMutability": "view",
      "type": "function"
    },
    {
      "inputs": [],
      "name": "URI_SETTER_ROLE",
      "outputs": [
        {
          "internalType": "bytes32",
          "name": "",
          "type": "bytes32"
        }
      ],
      "stateMutability": "view",
      "type": "function"
    },
    {
      "inputs": [
        {
          "internalType": "address",
          "name": "account",
          "type": "address"
        },
        {
          "internalType": "uint256",
          "name": "id",
          "type": "uint256"
        }
      ],
      "name": "balanceOf",
      "outputs": [
        {
          "internalType": "uint256",
          "name": "",
          "type": "uint256"
        }
      ],
      "stateMutability": "view",
      "type": "function"
    },
    {
      "inputs": [
        {
          "internalType": "address[]",
          "name": "accounts",
          "type": "address[]"
        },
        {
          "internalType": "uint256[]",
          "name": "ids",
          "type": "uint256[]"
        }
      ],
      "name": "balanceOfBatch",
      "outputs": [
        {
          "internalType": "uint256[]",
          "name": "",
          "type": "uint256[]"
        }
      ],
      "stateMutability": "view",
      "type": "function"
    },
    {
      "inputs": [
        {
          "internalType": "address",
          "name": "account",
          "type": "address"
        },
        {
          "internalType": "uint256",
          "name": "id",
          "type": "uint256"
        },
        {
          "internalType": "uint256",
          "name": "value",
          "type": "uint256"
        }
      ],
      "name": "burn",
      "outputs": [],
      "stateMutability": "nonpayable",
      "type": "function"
    },
    {
      "inputs": [
        {
          "internalType": "address",
          "name": "account",
          "type": "address"
        },
        {
          "internalType": "uint256[]",
          "name": "ids",
          "type": "uint256[]"
        },
        {
          "internalType": "uint256[]",
          "name": "values",
          "type": "uint256[]"
        }
      ],
      "name": "burnBatch",
      "outputs": [],
      "stateMutability": "nonpayable",
      "type": "function"
    },
    {
      "inputs": [
        {
          "internalType": "uint256",
          "name": "id",
          "type": "uint256"
        }
      ],
      "name": "exists",
      "outputs": [
        {
          "internalType": "bool",
          "name": "",
          "type": "bool"
        }
      ],
      "stateMutability": "view",
      "type": "function"
    },
    {
      "inputs": [
        {
          "internalType": "bytes32",
          "name": "role",
          "type": "bytes32"
        }
      ],
      "name": "getRoleAdmin",
      "outputs": [
        {
          "internalType": "bytes32",
          "name": "",
          "type": "bytes32"
        }
      ],
      "stateMutability": "view",
      "type": "function"
    },
    {
      "inputs": [
        {
          "internalType": "bytes32",
          "name": "role",
          "type": "bytes32"
        },
        {
          "internalType": "address",
          "name": "account",
          "type": "address"
        }
      ],
      "name": "grantRole",
      "outputs": [],
      "stateMutability": "nonpayable",
      "type": "function"
    },
    {
      "inputs": [
        {
          "internalType": "bytes32",
          "name": "role",
          "type": "bytes32"
        },
        {
          "internalType": "address",
          "name": "account",
          "type": "address"
        }
      ],
      "name": "hasRole",
      "outputs": [
        {
          "internalType": "bool",
          "name": "",
          "type": "bool"
        }
      ],
      "stateMutability": "view",
      "type": "function"
    },
    {
      "inputs": [
        {
          "internalType": "address",
          "name": "account",
          "type": "address"
        },
        {
          "internalType": "address",
          "name": "operator",
          "type": "address"
        }
      ],
      "name": "isApprovedForAll",
      "outputs": [
        {
          "internalType": "bool",
          "name": "",
          "type": "bool"
        }
      ],
      "stateMutability": "view",
      "type": "function"
    },
    {
      "inputs": [
        {
          "internalType": "address",
          "name": "account",
          "type": "address"
        },
        {
          "internalType": "uint256",
          "name": "id",
          "type": "uint256"
        },
        {
          "internalType": "uint256",
          "name": "amount",
          "type": "uint256"
        },
        {
          "internalType": "bytes",
          "name": "data",
          "type": "bytes"
        }
      ],
      "name": "mint",
      "outputs": [],
      "stateMutability": "nonpayable",
      "type": "function"
    },
    {
      "inputs": [
        {
          "internalType": "address",
          "name": "to",
          "type": "address"
        },
        {
          "internalType": "uint256[]",
          "name": "ids",
          "type": "uint256[]"
        },
        {
          "internalType": "uint256[]",
          "name": "amounts",
          "type": "uint256[]"
        },
        {
          "internalType": "bytes",
          "name": "data",
          "type": "bytes"
        }
      ],
      "name": "mintBatch",
      "outputs": [],
      "stateMutability": "nonpayable",
      "type": "function"
    },
    {
      "inputs": [
        {
          "internalType": "bytes32",
          "name": "role",
          "type": "bytes32"
        },
        {
          "internalType": "address",
          "name": "account",
          "type": "address"
        }
      ],
      "name": "renounceRole",
      "outputs": [],
      "stateMutability": "nonpayable",
      "type": "function"
    },
    {
      "inputs": [
        {
          "internalType": "bytes32",
          "name": "role",
          "type": "bytes32"
        },
        {
          "internalType": "address",
          "name": "account",
          "type": "address"
        }
      ],
      "name": "revokeRole",
      "outputs": [],
      "stateMutability": "nonpayable",
      "type": "function"
    },
    {
      "inputs": [
        {
          "internalType": "address",
          "name": "from",
          "type": "address"
        },
        {
          "internalType": "address",
          "name": "to",
          "type": "address"
        },
        {
          "internalType": "uint256[]",
          "name": "ids",
          "type": "uint256[]"
        },
        {
          "internalType": "uint256[]",
          "name": "amounts",
          "type": "uint256[]"
        },
        {
          "internalType": "bytes",
          "name": "data",
          "type": "bytes"
        }
      ],
      "name": "safeBatchTransferFrom",
      "outputs": [],
      "stateMutability": "nonpayable",
      "type": "function"
    },
    {
      "inputs": [
        {
          "internalType": "address",
          "name": "from",
          "type": "address"
        },
        {
          "internalType": "address",
          "name": "to",
          "type": "address"
        },
        {
          "internalType": "uint256",
          "name": "id",
          "type": "uint256"
        },
        {
          "internalType": "uint256",
          "name": "amount",
          "type": "uint256"
        },
        {
          "internalType": "bytes",
          "name": "data",
          "type": "bytes"
        }
      ],
      "name": "safeTransferFrom",
      "outputs": [],
      "stateMutability": "nonpayable",
      "type": "function"
    },
    {
      "inputs": [
        {
          "internalType": "address",
          "name": "operator",
          "type": "address"
        },
        {
          "internalType": "bool",
          "name": "approved",
          "type": "bool"
        }
      ],
      "name": "setApprovalForAll",
      "outputs": [],
      "stateMutability": "nonpayable",
      "type": "function"
    },
    {
      "inputs": [
        {
          "internalType": "uint256",
          "name": "tokenId",
          "type": "uint256"
        },
        {
          "internalType": "string",
          "name": "_uri",
          "type": "string"
        }
      ],
      "name": "setTokenUri",
      "outputs": [],
      "stateMutability": "nonpayable",
      "type": "function"
    },
    {
      "inputs": [
        {
          "internalType": "string",
          "name": "newuri",
          "type": "string"
        }
      ],
      "name": "setURI",
      "outputs": [],
      "stateMutability": "nonpayable",
      "type": "function"
    },
    {
      "inputs": [
        {
          "internalType": "bytes4",
          "name": "interfaceId",
          "type": "bytes4"
        }
      ],
      "name": "supportsInterface",
      "outputs": [
        {
          "internalType": "bool",
          "name": "",
          "type": "bool"
        }
      ],
      "stateMutability": "view",
      "type": "function"
    },
    {
      "inputs": [
        {
          "internalType": "uint256",
          "name": "id",
          "type": "uint256"
        }
      ],
      "name": "totalSupply",
      "outputs": [
        {
          "internalType": "uint256",
          "name": "",
          "type": "uint256"
        }
      ],
      "stateMutability": "view",
      "type": "function"
    },
    {
      "inputs": [
        {
          "internalType": "uint256",
          "name": "tokenId",
          "type": "uint256"
        }
      ],
      "name": "uri",
      "outputs": [
        {
          "internalType": "string",
          "name": "",
          "type": "string"
        }
      ],
      "stateMutability": "view",
      "type": "function"
    }
  ],
  "transactionHash": "0xa9f99e6a02ccb6a8f9571a0324e16cb588b41f74702fa11121715e36c2048127",
  "args": [],
  "numDeployments": 2,
  "solcInputHash": "72a173a113c909ec60c7cff460f6048b",
  "bytecode": "0x60806040523480156200001157600080fd5b506040518060200160405280600081525062000033816200008160201b60201c565b50620000496000801b336200009d60201b60201c565b6200007b7f7804d923f43a17d325d77e781528e0793b2edd9890ab45fc64efd7b4b427744c336200009d60201b60201c565b62000317565b80600290805190602001906200009992919062000202565b5050565b620000af82826200018f60201b60201c565b6200018b5760016003600084815260200190815260200160002060000160008373ffffffffffffffffffffffffffffffffffffffff1673ffffffffffffffffffffffffffffffffffffffff16815260200190815260200160002060006101000a81548160ff02191690831515021790555062000130620001fa60201b60201c565b73ffffffffffffffffffffffffffffffffffffffff168173ffffffffffffffffffffffffffffffffffffffff16837f2f8788117e7eff1d82e926ec794901d17c78024a50270940304540a733656f0d60405160405180910390a45b5050565b60006003600084815260200190815260200160002060000160008373ffffffffffffffffffffffffffffffffffffffff1673ffffffffffffffffffffffffffffffffffffffff16815260200190815260200160002060009054906101000a900460ff16905092915050565b600033905090565b8280546200021090620002e1565b90600052602060002090601f01602090048101928262000234576000855562000280565b82601f106200024f57805160ff191683800117855562000280565b8280016001018555821562000280579182015b828111156200027f57825182559160200191906001019062000262565b5b5090506200028f919062000293565b5090565b5b80821115620002ae57600081600090555060010162000294565b5090565b7f4e487b7100000000000000000000000000000000000000000000000000000000600052602260045260246000fd5b60006002820490506001821680620002fa57607f821691505b60208210811415620003115762000310620002b2565b5b50919050565b6146e380620003276000396000f3fe608060405234801561001057600080fd5b50600436106101575760003560e01c80636b20c454116100c3578063bd85b0391161007c578063bd85b039146103e4578063d539139314610414578063d547741f14610432578063e985e9c51461044e578063f242432a1461047e578063f5298aca1461049a57610157565b80636b20c45414610324578063731133e9146103405780637f3457101461035c57806391d148541461037a578063a217fddf146103aa578063a22cb465146103c857610157565b80632eb2c2d6116101155780632eb2c2d6146102545780632f2ff15d1461027057806336568abe1461028c5780634e1273f4146102a85780634f558e79146102d857806357f7789e1461030857610157565b8062fdd58e1461015c57806301ffc9a71461018c57806302fe5305146101bc5780630e89341c146101d85780631f7fdffa14610208578063248a9ca314610224575b600080fd5b61017660048036038101906101719190612bf6565b6104b6565b6040516101839190612c45565b60405180910390f35b6101a660048036038101906101a19190612cb8565b61057f565b6040516101b39190612d00565b60405180910390f35b6101d660048036038101906101d19190612e61565b610591565b005b6101f260048036038101906101ed9190612eaa565b6105c8565b6040516101ff9190612f5f565b60405180910390f35b610222600480360381019061021d91906130ea565b61066d565b005b61023e600480360381019061023991906131db565b6106aa565b60405161024b9190613217565b60405180910390f35b61026e60048036038101906102699190613232565b6106ca565b005b61028a60048036038101906102859190613301565b61076b565b005b6102a660048036038101906102a19190613301565b61078c565b005b6102c260048036038101906102bd9190613404565b61080f565b6040516102cf919061353a565b60405180910390f35b6102f260048036038101906102ed9190612eaa565b610928565b6040516102ff9190612d00565b60405180910390f35b610322600480360381019061031d919061355c565b61093c565b005b61033e600480360381019061033991906135b8565b6109f5565b005b61035a60048036038101906103559190613643565b610a92565b005b610364610acf565b6040516103719190613217565b60405180910390f35b610394600480360381019061038f9190613301565b610af3565b6040516103a19190612d00565b60405180910390f35b6103b2610b5e565b6040516103bf9190613217565b60405180910390f35b6103e260048036038101906103dd91906136f2565b610b65565b005b6103fe60048036038101906103f99190612eaa565b610b7b565b60405161040b9190612c45565b60405180910390f35b61041c610b98565b6040516104299190613217565b60405180910390f35b61044c60048036038101906104479190613301565b610bbc565b005b61046860048036038101906104639190613732565b610bdd565b6040516104759190612d00565b60405180910390f35b61049860048036038101906104939190613772565b610c71565b005b6104b460048036038101906104af9190613809565b610d12565b005b60008073ffffffffffffffffffffffffffffffffffffffff168373ffffffffffffffffffffffffffffffffffffffff161415610527576040517f08c379a000000000000000000000000000000000000000000000000000000000815260040161051e906138ce565b60405180910390fd5b60008083815260200190815260200160002060008473ffffffffffffffffffffffffffffffffffffffff1673ffffffffffffffffffffffffffffffffffffffff16815260200190815260200160002054905092915050565b600061058a82610daf565b9050919050565b7f7804d923f43a17d325d77e781528e0793b2edd9890ab45fc64efd7b4b427744c6105bb81610e29565b6105c482610e3d565b5050565b60606005600083815260200190815260200160002080546105e89061391d565b80601f01602080910402602001604051908101604052809291908181526020018280546106149061391d565b80156106615780601f1061063657610100808354040283529160200191610661565b820191906000526020600020905b81548152906001019060200180831161064457829003601f168201915b50505050509050919050565b7f9f2df0fed2c77648de5860a4cc508cd0818c85b8b8a1ab4ceeef8d981c8956a661069781610e29565b6106a385858585610e57565b5050505050565b600060036000838152602001908152602001600020600101549050919050565b6106d2611084565b73ffffffffffffffffffffffffffffffffffffffff168573ffffffffffffffffffffffffffffffffffffffff161480610718575061071785610712611084565b610bdd565b5b610757576040517f08c379a000000000000000000000000000000000000000000000000000000000815260040161074e906139c1565b60405180910390fd5b610764858585858561108c565b5050505050565b610774826106aa565b61077d81610e29565b61078783836113ae565b505050565b610794611084565b73ffffffffffffffffffffffffffffffffffffffff168173ffffffffffffffffffffffffffffffffffffffff1614610801576040517f08c379a00000000000000000000000000000000000000000000000000000000081526004016107f890613a53565b60405180910390fd5b61080b828261148f565b5050565b60608151835114610855576040517f08c379a000000000000000000000000000000000000000000000000000000000815260040161084c90613ae5565b60405180910390fd5b6000835167ffffffffffffffff81111561087257610871612d36565b5b6040519080825280602002602001820160405280156108a05781602001602082028036833780820191505090505b50905060005b845181101561091d576108ed8582815181106108c5576108c4613b05565b5b60200260200101518583815181106108e0576108df613b05565b5b60200260200101516104b6565b828281518110610900576108ff613b05565b5b6020026020010181815250508061091690613b63565b90506108a6565b508091505092915050565b60008061093483610b7b565b119050919050565b7f9f2df0fed2c77648de5860a4cc508cd0818c85b8b8a1ab4ceeef8d981c8956a661096681610e29565b60006005600085815260200190815260200160002080546109869061391d565b9050146109c8576040517f08c379a00000000000000000000000000000000000000000000000000000000081526004016109bf90613bf8565b60405180910390fd5b816005600085815260200190815260200160002090805190602001906109ef929190612aab565b50505050565b6109fd611084565b73ffffffffffffffffffffffffffffffffffffffff168373ffffffffffffffffffffffffffffffffffffffff161480610a435750610a4283610a3d611084565b610bdd565b5b610a82576040517f08c379a0000000000000000000000000000000000000000000000000000000008152600401610a79906139c1565b60405180910390fd5b610a8d838383611571565b505050565b7f9f2df0fed2c77648de5860a4cc508cd0818c85b8b8a1ab4ceeef8d981c8956a6610abc81610e29565b610ac885858585611840565b5050505050565b7f7804d923f43a17d325d77e781528e0793b2edd9890ab45fc64efd7b4b427744c81565b60006003600084815260200190815260200160002060000160008373ffffffffffffffffffffffffffffffffffffffff1673ffffffffffffffffffffffffffffffffffffffff16815260200190815260200160002060009054906101000a900460ff16905092915050565b6000801b81565b610b77610b70611084565b83836119f1565b5050565b600060046000838152602001908152602001600020549050919050565b7f9f2df0fed2c77648de5860a4cc508cd0818c85b8b8a1ab4ceeef8d981c8956a681565b610bc5826106aa565b610bce81610e29565b610bd8838361148f565b505050565b6000600160008473ffffffffffffffffffffffffffffffffffffffff1673ffffffffffffffffffffffffffffffffffffffff16815260200190815260200160002060008373ffffffffffffffffffffffffffffffffffffffff1673ffffffffffffffffffffffffffffffffffffffff16815260200190815260200160002060009054906101000a900460ff16905092915050565b610c79611084565b73ffffffffffffffffffffffffffffffffffffffff168573ffffffffffffffffffffffffffffffffffffffff161480610cbf5750610cbe85610cb9611084565b610bdd565b5b610cfe576040517f08c379a0000000000000000000000000000000000000000000000000000000008152600401610cf5906139c1565b60405180910390fd5b610d0b8585858585611b5e565b5050505050565b610d1a611084565b73ffffffffffffffffffffffffffffffffffffffff168373ffffffffffffffffffffffffffffffffffffffff161480610d605750610d5f83610d5a611084565b610bdd565b5b610d9f576040517f08c379a0000000000000000000000000000000000000000000000000000000008152600401610d96906139c1565b60405180910390fd5b610daa838383611dfa565b505050565b60007f7965db0b000000000000000000000000000000000000000000000000000000007bffffffffffffffffffffffffffffffffffffffffffffffffffffffff1916827bffffffffffffffffffffffffffffffffffffffffffffffffffffffff19161480610e225750610e2182612041565b5b9050919050565b610e3a81610e35611084565b612123565b50565b8060029080519060200190610e53929190612aab565b5050565b600073ffffffffffffffffffffffffffffffffffffffff168473ffffffffffffffffffffffffffffffffffffffff161415610ec7576040517f08c379a0000000000000000000000000000000000000000000000000000000008152600401610ebe90613c8a565b60405180910390fd5b8151835114610f0b576040517f08c379a0000000000000000000000000000000000000000000000000000000008152600401610f0290613d1c565b60405180910390fd5b6000610f15611084565b9050610f26816000878787876121c0565b60005b8451811015610fdf57838181518110610f4557610f44613b05565b5b6020026020010151600080878481518110610f6357610f62613b05565b5b6020026020010151815260200190815260200160002060008873ffffffffffffffffffffffffffffffffffffffff1673ffffffffffffffffffffffffffffffffffffffff1681526020019081526020016000206000828254610fc59190613d3c565b925050819055508080610fd790613b63565b915050610f29565b508473ffffffffffffffffffffffffffffffffffffffff16600073ffffffffffffffffffffffffffffffffffffffff168273ffffffffffffffffffffffffffffffffffffffff167f4a39dc06d4c0dbc64b70af90fd698a233a518aa5d07e595d983b8c0526c8f7fb8787604051611057929190613d92565b60405180910390a461106e816000878787876121d6565b61107d816000878787876121de565b5050505050565b600033905090565b81518351146110d0576040517f08c379a00000000000000000000000000000000000000000000000000000000081526004016110c790613d1c565b60405180910390fd5b600073ffffffffffffffffffffffffffffffffffffffff168473ffffffffffffffffffffffffffffffffffffffff161415611140576040517f08c379a000000000000000000000000000000000000000000000000000000000815260040161113790613e3b565b60405180910390fd5b600061114a611084565b905061115a8187878787876121c0565b60005b845181101561130b57600085828151811061117b5761117a613b05565b5b60200260200101519050600085838151811061119a57611199613b05565b5b60200260200101519050600080600084815260200190815260200160002060008b73ffffffffffffffffffffffffffffffffffffffff1673ffffffffffffffffffffffffffffffffffffffff1681526020019081526020016000205490508181101561123b576040517f08c379a000000000000000000000000000000000000000000000000000000000815260040161123290613ecd565b60405180910390fd5b81810360008085815260200190815260200160002060008c73ffffffffffffffffffffffffffffffffffffffff1673ffffffffffffffffffffffffffffffffffffffff168152602001908152602001600020819055508160008085815260200190815260200160002060008b73ffffffffffffffffffffffffffffffffffffffff1673ffffffffffffffffffffffffffffffffffffffff16815260200190815260200160002060008282546112f09190613d3c565b925050819055505050508061130490613b63565b905061115d565b508473ffffffffffffffffffffffffffffffffffffffff168673ffffffffffffffffffffffffffffffffffffffff168273ffffffffffffffffffffffffffffffffffffffff167f4a39dc06d4c0dbc64b70af90fd698a233a518aa5d07e595d983b8c0526c8f7fb8787604051611382929190613d92565b60405180910390a46113988187878787876121d6565b6113a68187878787876121de565b505050505050565b6113b88282610af3565b61148b5760016003600084815260200190815260200160002060000160008373ffffffffffffffffffffffffffffffffffffffff1673ffffffffffffffffffffffffffffffffffffffff16815260200190815260200160002060006101000a81548160ff021916908315150217905550611430611084565b73ffffffffffffffffffffffffffffffffffffffff168173ffffffffffffffffffffffffffffffffffffffff16837f2f8788117e7eff1d82e926ec794901d17c78024a50270940304540a733656f0d60405160405180910390a45b5050565b6114998282610af3565b1561156d5760006003600084815260200190815260200160002060000160008373ffffffffffffffffffffffffffffffffffffffff1673ffffffffffffffffffffffffffffffffffffffff16815260200190815260200160002060006101000a81548160ff021916908315150217905550611512611084565b73ffffffffffffffffffffffffffffffffffffffff168173ffffffffffffffffffffffffffffffffffffffff16837ff6391f5c32d9c69d2a47ea670b442974b53935d1edc7fd64eb21e047a839171b60405160405180910390a45b5050565b600073ffffffffffffffffffffffffffffffffffffffff168373ffffffffffffffffffffffffffffffffffffffff1614156115e1576040517f08c379a00000000000000000000000000000000000000000000000000000000081526004016115d890613f5f565b60405180910390fd5b8051825114611625576040517f08c379a000000000000000000000000000000000000000000000000000000000815260040161161c90613d1c565b60405180910390fd5b600061162f611084565b905061164f818560008686604051806020016040528060008152506121c0565b60005b835181101561179c5760008482815181106116705761166f613b05565b5b60200260200101519050600084838151811061168f5761168e613b05565b5b60200260200101519050600080600084815260200190815260200160002060008973ffffffffffffffffffffffffffffffffffffffff1673ffffffffffffffffffffffffffffffffffffffff16815260200190815260200160002054905081811015611730576040517f08c379a000000000000000000000000000000000000000000000000000000000815260040161172790613ff1565b60405180910390fd5b81810360008085815260200190815260200160002060008a73ffffffffffffffffffffffffffffffffffffffff1673ffffffffffffffffffffffffffffffffffffffff16815260200190815260200160002081905550505050808061179490613b63565b915050611652565b50600073ffffffffffffffffffffffffffffffffffffffff168473ffffffffffffffffffffffffffffffffffffffff168273ffffffffffffffffffffffffffffffffffffffff167f4a39dc06d4c0dbc64b70af90fd698a233a518aa5d07e595d983b8c0526c8f7fb8686604051611814929190613d92565b60405180910390a461183a818560008686604051806020016040528060008152506121d6565b50505050565b600073ffffffffffffffffffffffffffffffffffffffff168473ffffffffffffffffffffffffffffffffffffffff1614156118b0576040517f08c379a00000000000000000000000000000000000000000000000000000000081526004016118a790613c8a565b60405180910390fd5b60006118ba611084565b905060006118c7856123b6565b905060006118d4856123b6565b90506118e5836000898585896121c0565b8460008088815260200190815260200160002060008973ffffffffffffffffffffffffffffffffffffffff1673ffffffffffffffffffffffffffffffffffffffff16815260200190815260200160002060008282546119449190613d3c565b925050819055508673ffffffffffffffffffffffffffffffffffffffff16600073ffffffffffffffffffffffffffffffffffffffff168473ffffffffffffffffffffffffffffffffffffffff167fc3d58168c5ae7397731d063d5bbf3d657854427343f4c083240f7aacaa2d0f6289896040516119c2929190614011565b60405180910390a46119d9836000898585896121d6565b6119e883600089898989612430565b50505050505050565b8173ffffffffffffffffffffffffffffffffffffffff168373ffffffffffffffffffffffffffffffffffffffff161415611a60576040517f08c379a0000000000000000000000000000000000000000000000000000000008152600401611a57906140ac565b60405180910390fd5b80600160008573ffffffffffffffffffffffffffffffffffffffff1673ffffffffffffffffffffffffffffffffffffffff16815260200190815260200160002060008473ffffffffffffffffffffffffffffffffffffffff1673ffffffffffffffffffffffffffffffffffffffff16815260200190815260200160002060006101000a81548160ff0219169083151502179055508173ffffffffffffffffffffffffffffffffffffffff168373ffffffffffffffffffffffffffffffffffffffff167f17307eab39ab6107e8899845ad3d59bd9653f200f220920489ca2b5937696c3183604051611b519190612d00565b60405180910390a3505050565b600073ffffffffffffffffffffffffffffffffffffffff168473ffffffffffffffffffffffffffffffffffffffff161415611bce576040517f08c379a0000000000000000000000000000000000000000000000000000000008152600401611bc590613e3b565b60405180910390fd5b6000611bd8611084565b90506000611be5856123b6565b90506000611bf2856123b6565b9050611c028389898585896121c0565b600080600088815260200190815260200160002060008a73ffffffffffffffffffffffffffffffffffffffff1673ffffffffffffffffffffffffffffffffffffffff16815260200190815260200160002054905085811015611c99576040517f08c379a0000000000000000000000000000000000000000000000000000000008152600401611c9090613ecd565b60405180910390fd5b85810360008089815260200190815260200160002060008b73ffffffffffffffffffffffffffffffffffffffff1673ffffffffffffffffffffffffffffffffffffffff168152602001908152602001600020819055508560008089815260200190815260200160002060008a73ffffffffffffffffffffffffffffffffffffffff1673ffffffffffffffffffffffffffffffffffffffff1681526020019081526020016000206000828254611d4e9190613d3c565b925050819055508773ffffffffffffffffffffffffffffffffffffffff168973ffffffffffffffffffffffffffffffffffffffff168573ffffffffffffffffffffffffffffffffffffffff167fc3d58168c5ae7397731d063d5bbf3d657854427343f4c083240f7aacaa2d0f628a8a604051611dcb929190614011565b60405180910390a4611de1848a8a86868a6121d6565b611def848a8a8a8a8a612430565b505050505050505050565b600073ffffffffffffffffffffffffffffffffffffffff168373ffffffffffffffffffffffffffffffffffffffff161415611e6a576040517f08c379a0000000000000000000000000000000000000000000000000000000008152600401611e6190613f5f565b60405180910390fd5b6000611e74611084565b90506000611e81846123b6565b90506000611e8e846123b6565b9050611eae838760008585604051806020016040528060008152506121c0565b600080600087815260200190815260200160002060008873ffffffffffffffffffffffffffffffffffffffff1673ffffffffffffffffffffffffffffffffffffffff16815260200190815260200160002054905084811015611f45576040517f08c379a0000000000000000000000000000000000000000000000000000000008152600401611f3c90613ff1565b60405180910390fd5b84810360008088815260200190815260200160002060008973ffffffffffffffffffffffffffffffffffffffff1673ffffffffffffffffffffffffffffffffffffffff16815260200190815260200160002081905550600073ffffffffffffffffffffffffffffffffffffffff168773ffffffffffffffffffffffffffffffffffffffff168573ffffffffffffffffffffffffffffffffffffffff167fc3d58168c5ae7397731d063d5bbf3d657854427343f4c083240f7aacaa2d0f628989604051612012929190614011565b60405180910390a4612038848860008686604051806020016040528060008152506121d6565b50505050505050565b60007fd9b67a26000000000000000000000000000000000000000000000000000000007bffffffffffffffffffffffffffffffffffffffffffffffffffffffff1916827bffffffffffffffffffffffffffffffffffffffffffffffffffffffff1916148061210c57507f0e89341c000000000000000000000000000000000000000000000000000000007bffffffffffffffffffffffffffffffffffffffffffffffffffffffff1916827bffffffffffffffffffffffffffffffffffffffffffffffffffffffff1916145b8061211c575061211b82612608565b5b9050919050565b61212d8282610af3565b6121bc576121528173ffffffffffffffffffffffffffffffffffffffff166014612672565b6121608360001c6020612672565b6040516020016121719291906141a0565b6040516020818303038152906040526040517f08c379a00000000000000000000000000000000000000000000000000000000081526004016121b39190612f5f565b60405180910390fd5b5050565b6121ce8686868686866128ae565b505050505050565b505050505050565b6121fd8473ffffffffffffffffffffffffffffffffffffffff16612a80565b156123ae578373ffffffffffffffffffffffffffffffffffffffff1663bc197c8187878686866040518663ffffffff1660e01b815260040161224395949392919061423e565b6020604051808303816000875af192505050801561227f57506040513d601f19601f8201168201806040525081019061227c91906142bb565b60015b6123255761228b6142f5565b806308c379a014156122e857506122a0614317565b806122ab57506122ea565b806040517f08c379a00000000000000000000000000000000000000000000000000000000081526004016122df9190612f5f565b60405180910390fd5b505b6040517f08c379a000000000000000000000000000000000000000000000000000000000815260040161231c9061441f565b60405180910390fd5b63bc197c8160e01b7bffffffffffffffffffffffffffffffffffffffffffffffffffffffff1916817bffffffffffffffffffffffffffffffffffffffffffffffffffffffff1916146123ac576040517f08c379a00000000000000000000000000000000000000000000000000000000081526004016123a3906144b1565b60405180910390fd5b505b505050505050565b60606000600167ffffffffffffffff8111156123d5576123d4612d36565b5b6040519080825280602002602001820160405280156124035781602001602082028036833780820191505090505b509050828160008151811061241b5761241a613b05565b5b60200260200101818152505080915050919050565b61244f8473ffffffffffffffffffffffffffffffffffffffff16612a80565b15612600578373ffffffffffffffffffffffffffffffffffffffff1663f23a6e6187878686866040518663ffffffff1660e01b81526004016124959594939291906144d1565b6020604051808303816000875af19250505080156124d157506040513d601f19601f820116820180604052508101906124ce91906142bb565b60015b612577576124dd6142f5565b806308c379a0141561253a57506124f2614317565b806124fd575061253c565b806040517f08c379a00000000000000000000000000000000000000000000000000000000081526004016125319190612f5f565b60405180910390fd5b505b6040517f08c379a000000000000000000000000000000000000000000000000000000000815260040161256e9061441f565b60405180910390fd5b63f23a6e6160e01b7bffffffffffffffffffffffffffffffffffffffffffffffffffffffff1916817bffffffffffffffffffffffffffffffffffffffffffffffffffffffff1916146125fe576040517f08c379a00000000000000000000000000000000000000000000000000000000081526004016125f5906144b1565b60405180910390fd5b505b505050505050565b60007f01ffc9a7000000000000000000000000000000000000000000000000000000007bffffffffffffffffffffffffffffffffffffffffffffffffffffffff1916827bffffffffffffffffffffffffffffffffffffffffffffffffffffffff1916149050919050565b606060006002836002612685919061452b565b61268f9190613d3c565b67ffffffffffffffff8111156126a8576126a7612d36565b5b6040519080825280601f01601f1916602001820160405280156126da5781602001600182028036833780820191505090505b5090507f30000000000000000000000000000000000000000000000000000000000000008160008151811061271257612711613b05565b5b60200101907effffffffffffffffffffffffffffffffffffffffffffffffffffffffffffff1916908160001a9053507f78000000000000000000000000000000000000000000000000000000000000008160018151811061277657612775613b05565b5b60200101907effffffffffffffffffffffffffffffffffffffffffffffffffffffffffffff1916908160001a905350600060018460026127b6919061452b565b6127c09190613d3c565b90505b6001811115612860577f3031323334353637383961626364656600000000000000000000000000000000600f86166010811061280257612801613b05565b5b1a60f81b82828151811061281957612818613b05565b5b60200101907effffffffffffffffffffffffffffffffffffffffffffffffffffffffffffff1916908160001a905350600485901c94508061285990614585565b90506127c3565b50600084146128a4576040517f08c379a000000000000000000000000000000000000000000000000000000000815260040161289b906145fb565b60405180910390fd5b8091505092915050565b6128bc868686868686612aa3565b600073ffffffffffffffffffffffffffffffffffffffff168573ffffffffffffffffffffffffffffffffffffffff16141561296e5760005b835181101561296c578281815181106129105761290f613b05565b5b60200260200101516004600086848151811061292f5761292e613b05565b5b6020026020010151815260200190815260200160002060008282546129549190613d3c565b925050819055508061296590613b63565b90506128f4565b505b600073ffffffffffffffffffffffffffffffffffffffff168473ffffffffffffffffffffffffffffffffffffffff161415612a785760005b8351811015612a765760008482815181106129c4576129c3613b05565b5b6020026020010151905060008483815181106129e3576129e2613b05565b5b6020026020010151905060006004600084815260200190815260200160002054905081811015612a48576040517f08c379a0000000000000000000000000000000000000000000000000000000008152600401612a3f9061468d565b60405180910390fd5b818103600460008581526020019081526020016000208190555050505080612a6f90613b63565b90506129a6565b505b505050505050565b6000808273ffffffffffffffffffffffffffffffffffffffff163b119050919050565b505050505050565b828054612ab79061391d565b90600052602060002090601f016020900481019282612ad95760008555612b20565b82601f10612af257805160ff1916838001178555612b20565b82800160010185558215612b20579182015b82811115612b1f578251825591602001919060010190612b04565b5b509050612b2d9190612b31565b5090565b5b80821115612b4a576000816000905550600101612b32565b5090565b6000604051905090565b600080fd5b600080fd5b600073ffffffffffffffffffffffffffffffffffffffff82169050919050565b6000612b8d82612b62565b9050919050565b612b9d81612b82565b8114612ba857600080fd5b50565b600081359050612bba81612b94565b92915050565b6000819050919050565b612bd381612bc0565b8114612bde57600080fd5b50565b600081359050612bf081612bca565b92915050565b60008060408385031215612c0d57612c0c612b58565b5b6000612c1b85828601612bab565b9250506020612c2c85828601612be1565b9150509250929050565b612c3f81612bc0565b82525050565b6000602082019050612c5a6000830184612c36565b92915050565b60007fffffffff0000000000000000000000000000000000000000000000000000000082169050919050565b612c9581612c60565b8114612ca057600080fd5b50565b600081359050612cb281612c8c565b92915050565b600060208284031215612cce57612ccd612b58565b5b6000612cdc84828501612ca3565b91505092915050565b60008115159050919050565b612cfa81612ce5565b82525050565b6000602082019050612d156000830184612cf1565b92915050565b600080fd5b600080fd5b6000601f19601f8301169050919050565b7f4e487b7100000000000000000000000000000000000000000000000000000000600052604160045260246000fd5b612d6e82612d25565b810181811067ffffffffffffffff82111715612d8d57612d8c612d36565b5b80604052505050565b6000612da0612b4e565b9050612dac8282612d65565b919050565b600067ffffffffffffffff821115612dcc57612dcb612d36565b5b612dd582612d25565b9050602081019050919050565b82818337600083830152505050565b6000612e04612dff84612db1565b612d96565b905082815260208101848484011115612e2057612e1f612d20565b5b612e2b848285612de2565b509392505050565b600082601f830112612e4857612e47612d1b565b5b8135612e58848260208601612df1565b91505092915050565b600060208284031215612e7757612e76612b58565b5b600082013567ffffffffffffffff811115612e9557612e94612b5d565b5b612ea184828501612e33565b91505092915050565b600060208284031215612ec057612ebf612b58565b5b6000612ece84828501612be1565b91505092915050565b600081519050919050565b600082825260208201905092915050565b60005b83811015612f11578082015181840152602081019050612ef6565b83811115612f20576000848401525b50505050565b6000612f3182612ed7565b612f3b8185612ee2565b9350612f4b818560208601612ef3565b612f5481612d25565b840191505092915050565b60006020820190508181036000830152612f798184612f26565b905092915050565b600067ffffffffffffffff821115612f9c57612f9b612d36565b5b602082029050602081019050919050565b600080fd5b6000612fc5612fc084612f81565b612d96565b90508083825260208201905060208402830185811115612fe857612fe7612fad565b5b835b818110156130115780612ffd8882612be1565b845260208401935050602081019050612fea565b5050509392505050565b600082601f8301126130305761302f612d1b565b5b8135613040848260208601612fb2565b91505092915050565b600067ffffffffffffffff82111561306457613063612d36565b5b61306d82612d25565b9050602081019050919050565b600061308d61308884613049565b612d96565b9050828152602081018484840111156130a9576130a8612d20565b5b6130b4848285612de2565b509392505050565b600082601f8301126130d1576130d0612d1b565b5b81356130e184826020860161307a565b91505092915050565b6000806000806080858703121561310457613103612b58565b5b600061311287828801612bab565b945050602085013567ffffffffffffffff81111561313357613132612b5d565b5b61313f8782880161301b565b935050604085013567ffffffffffffffff8111156131605761315f612b5d565b5b61316c8782880161301b565b925050606085013567ffffffffffffffff81111561318d5761318c612b5d565b5b613199878288016130bc565b91505092959194509250565b6000819050919050565b6131b8816131a5565b81146131c357600080fd5b50565b6000813590506131d5816131af565b92915050565b6000602082840312156131f1576131f0612b58565b5b60006131ff848285016131c6565b91505092915050565b613211816131a5565b82525050565b600060208201905061322c6000830184613208565b92915050565b600080600080600060a0868803121561324e5761324d612b58565b5b600061325c88828901612bab565b955050602061326d88828901612bab565b945050604086013567ffffffffffffffff81111561328e5761328d612b5d565b5b61329a8882890161301b565b935050606086013567ffffffffffffffff8111156132bb576132ba612b5d565b5b6132c78882890161301b565b925050608086013567ffffffffffffffff8111156132e8576132e7612b5d565b5b6132f4888289016130bc565b9150509295509295909350565b6000806040838503121561331857613317612b58565b5b6000613326858286016131c6565b925050602061333785828601612bab565b9150509250929050565b600067ffffffffffffffff82111561335c5761335b612d36565b5b602082029050602081019050919050565b600061338061337b84613341565b612d96565b905080838252602082019050602084028301858111156133a3576133a2612fad565b5b835b818110156133cc57806133b88882612bab565b8452602084019350506020810190506133a5565b5050509392505050565b600082601f8301126133eb576133ea612d1b565b5b81356133fb84826020860161336d565b91505092915050565b6000806040838503121561341b5761341a612b58565b5b600083013567ffffffffffffffff81111561343957613438612b5d565b5b613445858286016133d6565b925050602083013567ffffffffffffffff81111561346657613465612b5d565b5b6134728582860161301b565b9150509250929050565b600081519050919050565b600082825260208201905092915050565b6000819050602082019050919050565b6134b181612bc0565b82525050565b60006134c383836134a8565b60208301905092915050565b6000602082019050919050565b60006134e78261347c565b6134f18185613487565b93506134fc83613498565b8060005b8381101561352d57815161351488826134b7565b975061351f836134cf565b925050600181019050613500565b5085935050505092915050565b6000602082019050818103600083015261355481846134dc565b905092915050565b6000806040838503121561357357613572612b58565b5b600061358185828601612be1565b925050602083013567ffffffffffffffff8111156135a2576135a1612b5d565b5b6135ae85828601612e33565b9150509250929050565b6000806000606084860312156135d1576135d0612b58565b5b60006135df86828701612bab565b935050602084013567ffffffffffffffff811115613600576135ff612b5d565b5b61360c8682870161301b565b925050604084013567ffffffffffffffff81111561362d5761362c612b5d565b5b6136398682870161301b565b9150509250925092565b6000806000806080858703121561365d5761365c612b58565b5b600061366b87828801612bab565b945050602061367c87828801612be1565b935050604061368d87828801612be1565b925050606085013567ffffffffffffffff8111156136ae576136ad612b5d565b5b6136ba878288016130bc565b91505092959194509250565b6136cf81612ce5565b81146136da57600080fd5b50565b6000813590506136ec816136c6565b92915050565b6000806040838503121561370957613708612b58565b5b600061371785828601612bab565b9250506020613728858286016136dd565b9150509250929050565b6000806040838503121561374957613748612b58565b5b600061375785828601612bab565b925050602061376885828601612bab565b9150509250929050565b600080600080600060a0868803121561378e5761378d612b58565b5b600061379c88828901612bab565b95505060206137ad88828901612bab565b94505060406137be88828901612be1565b93505060606137cf88828901612be1565b925050608086013567ffffffffffffffff8111156137f0576137ef612b5d565b5b6137fc888289016130bc565b9150509295509295909350565b60008060006060848603121561382257613821612b58565b5b600061383086828701612bab565b935050602061384186828701612be1565b925050604061385286828701612be1565b9150509250925092565b7f455243313135353a2061646472657373207a65726f206973206e6f742061207660008201527f616c6964206f776e657200000000000000000000000000000000000000000000602082015250565b60006138b8602a83612ee2565b91506138c38261385c565b604082019050919050565b600060208201905081810360008301526138e7816138ab565b9050919050565b7f4e487b7100000000000000000000000000000000000000000000000000000000600052602260045260246000fd5b6000600282049050600182168061393557607f821691505b60208210811415613949576139486138ee565b5b50919050565b7f455243313135353a2063616c6c6572206973206e6f7420746f6b656e206f776e60008201527f6572206e6f7220617070726f7665640000000000000000000000000000000000602082015250565b60006139ab602f83612ee2565b91506139b68261394f565b604082019050919050565b600060208201905081810360008301526139da8161399e565b9050919050565b7f416363657373436f6e74726f6c3a2063616e206f6e6c792072656e6f756e636560008201527f20726f6c657320666f722073656c660000000000000000000000000000000000602082015250565b6000613a3d602f83612ee2565b9150613a48826139e1565b604082019050919050565b60006020820190508181036000830152613a6c81613a30565b9050919050565b7f455243313135353a206163636f756e747320616e6420696473206c656e67746860008201527f206d69736d617463680000000000000000000000000000000000000000000000602082015250565b6000613acf602983612ee2565b9150613ada82613a73565b604082019050919050565b60006020820190508181036000830152613afe81613ac2565b9050919050565b7f4e487b7100000000000000000000000000000000000000000000000000000000600052603260045260246000fd5b7f4e487b7100000000000000000000000000000000000000000000000000000000600052601160045260246000fd5b6000613b6e82612bc0565b91507fffffffffffffffffffffffffffffffffffffffffffffffffffffffffffffffff821415613ba157613ba0613b34565b5b600182019050919050565b7f7572692063616e6e6f74206265206f7665727772697474656e00000000000000600082015250565b6000613be2601983612ee2565b9150613bed82613bac565b602082019050919050565b60006020820190508181036000830152613c1181613bd5565b9050919050565b7f455243313135353a206d696e7420746f20746865207a65726f2061646472657360008201527f7300000000000000000000000000000000000000000000000000000000000000602082015250565b6000613c74602183612ee2565b9150613c7f82613c18565b604082019050919050565b60006020820190508181036000830152613ca381613c67565b9050919050565b7f455243313135353a2069647320616e6420616d6f756e7473206c656e6774682060008201527f6d69736d61746368000000000000000000000000000000000000000000000000602082015250565b6000613d06602883612ee2565b9150613d1182613caa565b604082019050919050565b60006020820190508181036000830152613d3581613cf9565b9050919050565b6000613d4782612bc0565b9150613d5283612bc0565b9250827fffffffffffffffffffffffffffffffffffffffffffffffffffffffffffffffff03821115613d8757613d86613b34565b5b828201905092915050565b60006040820190508181036000830152613dac81856134dc565b90508181036020830152613dc081846134dc565b90509392505050565b7f455243313135353a207472616e7366657220746f20746865207a65726f20616460008201527f6472657373000000000000000000000000000000000000000000000000000000602082015250565b6000613e25602583612ee2565b9150613e3082613dc9565b604082019050919050565b60006020820190508181036000830152613e5481613e18565b9050919050565b7f455243313135353a20696e73756666696369656e742062616c616e636520666f60008201527f72207472616e7366657200000000000000000000000000000000000000000000602082015250565b6000613eb7602a83612ee2565b9150613ec282613e5b565b604082019050919050565b60006020820190508181036000830152613ee681613eaa565b9050919050565b7f455243313135353a206275726e2066726f6d20746865207a65726f206164647260008201527f6573730000000000000000000000000000000000000000000000000000000000602082015250565b6000613f49602383612ee2565b9150613f5482613eed565b604082019050919050565b60006020820190508181036000830152613f7881613f3c565b9050919050565b7f455243313135353a206275726e20616d6f756e7420657863656564732062616c60008201527f616e636500000000000000000000000000000000000000000000000000000000602082015250565b6000613fdb602483612ee2565b9150613fe682613f7f565b604082019050919050565b6000602082019050818103600083015261400a81613fce565b9050919050565b60006040820190506140266000830185612c36565b6140336020830184612c36565b9392505050565b7f455243313135353a2073657474696e6720617070726f76616c2073746174757360008201527f20666f722073656c660000000000000000000000000000000000000000000000602082015250565b6000614096602983612ee2565b91506140a18261403a565b604082019050919050565b600060208201905081810360008301526140c581614089565b9050919050565b600081905092915050565b7f416363657373436f6e74726f6c3a206163636f756e7420000000000000000000600082015250565b600061410d6017836140cc565b9150614118826140d7565b601782019050919050565b600061412e82612ed7565b61413881856140cc565b9350614148818560208601612ef3565b80840191505092915050565b7f206973206d697373696e6720726f6c6520000000000000000000000000000000600082015250565b600061418a6011836140cc565b915061419582614154565b601182019050919050565b60006141ab82614100565b91506141b78285614123565b91506141c28261417d565b91506141ce8284614123565b91508190509392505050565b6141e381612b82565b82525050565b600081519050919050565b600082825260208201905092915050565b6000614210826141e9565b61421a81856141f4565b935061422a818560208601612ef3565b61423381612d25565b840191505092915050565b600060a08201905061425360008301886141da565b61426060208301876141da565b818103604083015261427281866134dc565b9050818103606083015261428681856134dc565b9050818103608083015261429a8184614205565b90509695505050505050565b6000815190506142b581612c8c565b92915050565b6000602082840312156142d1576142d0612b58565b5b60006142df848285016142a6565b91505092915050565b60008160e01c9050919050565b600060033d11156143145760046000803e6143116000516142e8565b90505b90565b600060443d1015614327576143aa565b61432f612b4e565b60043d036004823e80513d602482011167ffffffffffffffff821117156143575750506143aa565b808201805167ffffffffffffffff81111561437557505050506143aa565b80602083010160043d0385018111156143925750505050506143aa565b6143a182602001850186612d65565b82955050505050505b90565b7f455243313135353a207472616e7366657220746f206e6f6e204552433131353560008201527f526563656976657220696d706c656d656e746572000000000000000000000000602082015250565b6000614409603483612ee2565b9150614414826143ad565b604082019050919050565b60006020820190508181036000830152614438816143fc565b9050919050565b7f455243313135353a204552433131353552656365697665722072656a6563746560008201527f6420746f6b656e73000000000000000000000000000000000000000000000000602082015250565b600061449b602883612ee2565b91506144a68261443f565b604082019050919050565b600060208201905081810360008301526144ca8161448e565b9050919050565b600060a0820190506144e660008301886141da565b6144f360208301876141da565b6145006040830186612c36565b61450d6060830185612c36565b818103608083015261451f8184614205565b90509695505050505050565b600061453682612bc0565b915061454183612bc0565b9250817fffffffffffffffffffffffffffffffffffffffffffffffffffffffffffffffff048311821515161561457a57614579613b34565b5b828202905092915050565b600061459082612bc0565b915060008214156145a4576145a3613b34565b5b600182039050919050565b7f537472696e67733a20686578206c656e67746820696e73756666696369656e74600082015250565b60006145e5602083612ee2565b91506145f0826145af565b602082019050919050565b60006020820190508181036000830152614614816145d8565b9050919050565b7f455243313135353a206275726e20616d6f756e74206578636565647320746f7460008201527f616c537570706c79000000000000000000000000000000000000000000000000602082015250565b6000614677602883612ee2565b91506146828261461b565b604082019050919050565b600060208201905081810360008301526146a68161466a565b905091905056fea264697066735822122056cf36733a13f3764caf626e9ba5f0bc218da111ad8b76db96372f70489fac5d64736f6c634300080a0033",
  "devdoc": {
    "kind": "dev",
    "methods": {
      "balanceOf(address,uint256)": {
        "details": "See {IERC1155-balanceOf}. Requirements: - `account` cannot be the zero address."
      },
      "balanceOfBatch(address[],uint256[])": {
        "details": "See {IERC1155-balanceOfBatch}. Requirements: - `accounts` and `ids` must have the same length."
      },
      "exists(uint256)": {
        "details": "Indicates whether any token exist with a given id, or not."
      },
      "getRoleAdmin(bytes32)": {
        "details": "Returns the admin role that controls `role`. See {grantRole} and {revokeRole}. To change a role's admin, use {_setRoleAdmin}."
      },
      "grantRole(bytes32,address)": {
        "details": "Grants `role` to `account`. If `account` had not been already granted `role`, emits a {RoleGranted} event. Requirements: - the caller must have ``role``'s admin role. May emit a {RoleGranted} event."
      },
      "hasRole(bytes32,address)": {
        "details": "Returns `true` if `account` has been granted `role`."
      },
      "isApprovedForAll(address,address)": {
        "details": "See {IERC1155-isApprovedForAll}."
      },
      "renounceRole(bytes32,address)": {
        "details": "Revokes `role` from the calling account. Roles are often managed via {grantRole} and {revokeRole}: this function's purpose is to provide a mechanism for accounts to lose their privileges if they are compromised (such as when a trusted device is misplaced). If the calling account had been revoked `role`, emits a {RoleRevoked} event. Requirements: - the caller must be `account`. May emit a {RoleRevoked} event."
      },
      "revokeRole(bytes32,address)": {
        "details": "Revokes `role` from `account`. If `account` had been granted `role`, emits a {RoleRevoked} event. Requirements: - the caller must have ``role``'s admin role. May emit a {RoleRevoked} event."
      },
      "safeBatchTransferFrom(address,address,uint256[],uint256[],bytes)": {
        "details": "See {IERC1155-safeBatchTransferFrom}."
      },
      "safeTransferFrom(address,address,uint256,uint256,bytes)": {
        "details": "See {IERC1155-safeTransferFrom}."
      },
      "setApprovalForAll(address,bool)": {
        "details": "See {IERC1155-setApprovalForAll}."
      },
      "totalSupply(uint256)": {
        "details": "Total amount of tokens in with a given id."
      }
    },
    "version": 1
  },
  "userdoc": {
    "kind": "user",
    "methods": {},
    "version": 1
  },
  "storageLayout": {
    "storage": [
      {
        "astId": 418,
        "contract": "contracts/ThirdBook.sol:ThirdBook",
        "label": "_balances",
        "offset": 0,
        "slot": "0",
        "type": "t_mapping(t_uint256,t_mapping(t_address,t_uint256))"
      },
      {
        "astId": 424,
        "contract": "contracts/ThirdBook.sol:ThirdBook",
        "label": "_operatorApprovals",
        "offset": 0,
        "slot": "1",
        "type": "t_mapping(t_address,t_mapping(t_address,t_bool))"
      },
      {
        "astId": 426,
        "contract": "contracts/ThirdBook.sol:ThirdBook",
        "label": "_uri",
        "offset": 0,
        "slot": "2",
        "type": "t_string_storage"
      },
      {
        "astId": 24,
        "contract": "contracts/ThirdBook.sol:ThirdBook",
        "label": "_roles",
        "offset": 0,
        "slot": "3",
        "type": "t_mapping(t_bytes32,t_struct(RoleData)19_storage)"
      },
      {
        "astId": 1857,
        "contract": "contracts/ThirdBook.sol:ThirdBook",
        "label": "_totalSupply",
        "offset": 0,
        "slot": "4",
        "type": "t_mapping(t_uint256,t_uint256)"
      },
      {
        "astId": 2626,
        "contract": "contracts/ThirdBook.sol:ThirdBook",
        "label": "_uris",
        "offset": 0,
        "slot": "5",
        "type": "t_mapping(t_uint256,t_string_storage)"
      }
    ],
    "types": {
      "t_address": {
        "encoding": "inplace",
        "label": "address",
        "numberOfBytes": "20"
      },
      "t_bool": {
        "encoding": "inplace",
        "label": "bool",
        "numberOfBytes": "1"
      },
      "t_bytes32": {
        "encoding": "inplace",
        "label": "bytes32",
        "numberOfBytes": "32"
      },
      "t_mapping(t_address,t_bool)": {
        "encoding": "mapping",
        "key": "t_address",
        "label": "mapping(address => bool)",
        "numberOfBytes": "32",
        "value": "t_bool"
      },
      "t_mapping(t_address,t_mapping(t_address,t_bool))": {
        "encoding": "mapping",
        "key": "t_address",
        "label": "mapping(address => mapping(address => bool))",
        "numberOfBytes": "32",
        "value": "t_mapping(t_address,t_bool)"
      },
      "t_mapping(t_address,t_uint256)": {
        "encoding": "mapping",
        "key": "t_address",
        "label": "mapping(address => uint256)",
        "numberOfBytes": "32",
        "value": "t_uint256"
      },
      "t_mapping(t_bytes32,t_struct(RoleData)19_storage)": {
        "encoding": "mapping",
        "key": "t_bytes32",
        "label": "mapping(bytes32 => struct AccessControl.RoleData)",
        "numberOfBytes": "32",
        "value": "t_struct(RoleData)19_storage"
      },
      "t_mapping(t_uint256,t_mapping(t_address,t_uint256))": {
        "encoding": "mapping",
        "key": "t_uint256",
        "label": "mapping(uint256 => mapping(address => uint256))",
        "numberOfBytes": "32",
        "value": "t_mapping(t_address,t_uint256)"
      },
      "t_mapping(t_uint256,t_string_storage)": {
        "encoding": "mapping",
        "key": "t_uint256",
        "label": "mapping(uint256 => string)",
        "numberOfBytes": "32",
        "value": "t_string_storage"
      },
      "t_mapping(t_uint256,t_uint256)": {
        "encoding": "mapping",
        "key": "t_uint256",
        "label": "mapping(uint256 => uint256)",
        "numberOfBytes": "32",
        "value": "t_uint256"
      },
      "t_string_storage": {
        "encoding": "bytes",
        "label": "string",
        "numberOfBytes": "32"
      },
      "t_struct(RoleData)19_storage": {
        "encoding": "inplace",
        "label": "struct AccessControl.RoleData",
        "members": [
          {
            "astId": 16,
            "contract": "contracts/ThirdBook.sol:ThirdBook",
            "label": "members",
            "offset": 0,
            "slot": "0",
            "type": "t_mapping(t_address,t_bool)"
          },
          {
            "astId": 18,
            "contract": "contracts/ThirdBook.sol:ThirdBook",
            "label": "adminRole",
            "offset": 0,
            "slot": "1",
            "type": "t_bytes32"
          }
        ],
        "numberOfBytes": "64"
      },
      "t_uint256": {
        "encoding": "inplace",
        "label": "uint256",
        "numberOfBytes": "32"
      }
    }
  }
}